{
  "contractName": "Market",
  "abi": [
    {
      "inputs": [],
      "name": "ItemNotApproved",
      "type": "error"
    },
    {
      "anonymous": false,
      "inputs": [
        {
          "indexed": false,
          "internalType": "uint256",
          "name": "id",
          "type": "uint256"
        },
        {
          "indexed": true,
          "internalType": "uint256",
          "name": "itemId",
          "type": "uint256"
        },
        {
          "indexed": false,
          "internalType": "uint256",
          "name": "reservePrice",
          "type": "uint256"
        },
        {
          "indexed": false,
          "internalType": "uint256",
          "name": "expireAt",
          "type": "uint256"
        },
        {
          "indexed": false,
          "internalType": "address",
          "name": "previousBidder",
          "type": "address"
        },
        {
          "indexed": false,
          "internalType": "address",
          "name": "currentBidder",
          "type": "address"
        },
        {
          "indexed": false,
          "internalType": "address",
          "name": "seller",
          "type": "address"
        },
        {
          "indexed": true,
          "internalType": "address",
          "name": "contractAddress",
          "type": "address"
        },
        {
          "indexed": false,
          "internalType": "bool",
          "name": "sold",
          "type": "bool"
        },
        {
          "indexed": true,
          "internalType": "enum Market.TypeAuction",
          "name": "eventType",
          "type": "uint8"
        }
      ],
      "name": "EventAuction",
      "type": "event"
    },
    {
      "anonymous": false,
      "inputs": [
        {
          "indexed": false,
          "internalType": "uint256",
          "name": "id",
          "type": "uint256"
        },
        {
          "indexed": true,
          "internalType": "uint256",
          "name": "itemId",
          "type": "uint256"
        },
        {
          "indexed": false,
          "internalType": "uint256",
          "name": "amount",
          "type": "uint256"
        },
        {
          "indexed": false,
          "internalType": "uint256",
          "name": "expireAt",
          "type": "uint256"
        },
        {
          "indexed": true,
          "internalType": "address",
          "name": "contractAddress",
          "type": "address"
        },
        {
          "indexed": false,
          "internalType": "address",
          "name": "offerFrom",
          "type": "address"
        },
        {
          "indexed": false,
          "internalType": "bool",
          "name": "sold",
          "type": "bool"
        },
        {
          "indexed": true,
          "internalType": "enum Market.TypeOffer",
          "name": "eventType",
          "type": "uint8"
        }
      ],
      "name": "EventOffer",
      "type": "event"
    },
    {
      "anonymous": false,
      "inputs": [
        {
          "indexed": false,
          "internalType": "uint256",
          "name": "id",
          "type": "uint256"
        },
        {
          "indexed": true,
          "internalType": "uint256",
          "name": "itemId",
          "type": "uint256"
        },
        {
          "indexed": false,
          "internalType": "uint256",
          "name": "amount",
          "type": "uint256"
        },
        {
          "indexed": true,
          "internalType": "address",
          "name": "contractAddress",
          "type": "address"
        },
        {
          "indexed": false,
          "internalType": "address",
          "name": "seller",
          "type": "address"
        },
        {
          "indexed": false,
          "internalType": "bool",
          "name": "sold",
          "type": "bool"
        },
        {
          "indexed": true,
          "internalType": "enum Market.TypeSale",
          "name": "eventType",
          "type": "uint8"
        }
      ],
      "name": "EventSale",
      "type": "event"
    },
    {
      "inputs": [
        {
          "internalType": "uint256",
          "name": "",
          "type": "uint256"
        }
      ],
      "name": "auctions",
      "outputs": [
        {
          "internalType": "uint256",
          "name": "id",
          "type": "uint256"
        },
        {
          "internalType": "uint256",
          "name": "itemId",
          "type": "uint256"
        },
        {
          "internalType": "uint256",
          "name": "reservePrice",
          "type": "uint256"
        },
        {
          "internalType": "uint256",
          "name": "expireAt",
          "type": "uint256"
        },
        {
          "internalType": "address",
          "name": "previousBidder",
          "type": "address"
        },
        {
          "internalType": "address",
          "name": "currentBidder",
          "type": "address"
        },
        {
          "internalType": "address",
          "name": "seller",
          "type": "address"
        },
        {
          "internalType": "address",
          "name": "contractAddress",
          "type": "address"
        },
        {
          "internalType": "bool",
          "name": "sold",
          "type": "bool"
        }
      ],
      "stateMutability": "view",
      "type": "function",
      "constant": true
    },
    {
      "inputs": [
        {
          "internalType": "uint256",
          "name": "",
          "type": "uint256"
        }
      ],
      "name": "offers",
      "outputs": [
        {
          "internalType": "uint256",
          "name": "id",
          "type": "uint256"
        },
        {
          "internalType": "uint256",
          "name": "itemId",
          "type": "uint256"
        },
        {
          "internalType": "uint256",
          "name": "amount",
          "type": "uint256"
        },
        {
          "internalType": "uint256",
          "name": "expireAt",
          "type": "uint256"
        },
        {
          "internalType": "address",
          "name": "contractAddress",
          "type": "address"
        },
        {
          "internalType": "address",
          "name": "offerFrom",
          "type": "address"
        },
        {
          "internalType": "bool",
          "name": "sold",
          "type": "bool"
        }
      ],
      "stateMutability": "view",
      "type": "function",
      "constant": true
    },
    {
      "inputs": [
        {
          "internalType": "uint256",
          "name": "",
          "type": "uint256"
        }
      ],
      "name": "sales",
      "outputs": [
        {
          "internalType": "uint256",
          "name": "id",
          "type": "uint256"
        },
        {
          "internalType": "uint256",
          "name": "itemId",
          "type": "uint256"
        },
        {
          "internalType": "uint256",
          "name": "amount",
          "type": "uint256"
        },
        {
          "internalType": "address",
          "name": "contractAddress",
          "type": "address"
        },
        {
          "internalType": "address",
          "name": "seller",
          "type": "address"
        },
        {
          "internalType": "bool",
          "name": "sold",
          "type": "bool"
        }
      ],
      "stateMutability": "view",
      "type": "function",
      "constant": true
    },
    {
      "inputs": [
        {
          "internalType": "address",
          "name": "_contractAddress",
          "type": "address"
        },
        {
          "internalType": "uint256",
          "name": "_itemId",
          "type": "uint256"
        },
        {
          "internalType": "uint256",
          "name": "_reservePrice",
          "type": "uint256"
        }
      ],
      "name": "createReserveAuction",
      "outputs": [
        {
          "internalType": "uint256",
          "name": "",
          "type": "uint256"
        }
      ],
      "stateMutability": "nonpayable",
      "type": "function"
    },
    {
      "inputs": [
        {
          "internalType": "uint256",
          "name": "_auctionId",
          "type": "uint256"
        }
      ],
      "name": "placeBid",
      "outputs": [
        {
          "internalType": "uint256",
          "name": "",
          "type": "uint256"
        }
      ],
      "stateMutability": "payable",
      "type": "function",
      "payable": true
    },
    {
      "inputs": [
        {
          "internalType": "uint256",
          "name": "_auctionId",
          "type": "uint256"
        }
      ],
      "name": "settleAuction",
      "outputs": [
        {
          "internalType": "uint256",
          "name": "",
          "type": "uint256"
        }
      ],
      "stateMutability": "nonpayable",
      "type": "function"
    },
    {
      "inputs": [
        {
          "internalType": "uint256",
          "name": "_auctionId",
          "type": "uint256"
        },
        {
          "internalType": "uint256",
          "name": "_reservePrice",
          "type": "uint256"
        }
      ],
      "name": "updateReservePrice",
      "outputs": [],
      "stateMutability": "nonpayable",
      "type": "function"
    },
    {
      "inputs": [
        {
          "internalType": "uint256",
          "name": "_auctionId",
          "type": "uint256"
        }
      ],
      "name": "cancelReserveAuction",
      "outputs": [],
      "stateMutability": "nonpayable",
      "type": "function"
    },
    {
      "inputs": [
        {
          "internalType": "address",
          "name": "_contractAddress",
          "type": "address"
        },
        {
          "internalType": "uint256",
          "name": "_itemId",
          "type": "uint256"
        },
        {
          "internalType": "uint256",
          "name": "_amount",
          "type": "uint256"
        }
      ],
      "name": "makeOffer",
      "outputs": [
        {
          "internalType": "uint256",
          "name": "",
          "type": "uint256"
        }
      ],
      "stateMutability": "payable",
      "type": "function",
      "payable": true
    },
    {
      "inputs": [
        {
          "internalType": "uint256",
          "name": "_offerId",
          "type": "uint256"
        }
      ],
      "name": "acceptOffer",
      "outputs": [],
      "stateMutability": "nonpayable",
      "type": "function"
    },
    {
      "inputs": [
        {
          "internalType": "uint256",
          "name": "_offerId",
          "type": "uint256"
        }
      ],
      "name": "cancelOffer",
      "outputs": [],
      "stateMutability": "nonpayable",
      "type": "function"
    },
    {
      "inputs": [
        {
          "internalType": "address",
          "name": "_contractAddress",
          "type": "address"
        },
        {
          "internalType": "uint256",
          "name": "_itemId",
          "type": "uint256"
        },
        {
          "internalType": "uint256",
          "name": "_amount",
          "type": "uint256"
        }
      ],
      "name": "setBuyPrice",
      "outputs": [
        {
          "internalType": "uint256",
          "name": "",
          "type": "uint256"
        }
      ],
      "stateMutability": "nonpayable",
      "type": "function"
    },
    {
      "inputs": [
        {
          "internalType": "address",
          "name": "_contractAddress",
          "type": "address"
        },
        {
          "internalType": "uint256",
          "name": "_itemId",
          "type": "uint256"
        },
        {
          "internalType": "uint256",
          "name": "_saleId",
          "type": "uint256"
        }
      ],
      "name": "buy",
      "outputs": [],
      "stateMutability": "payable",
      "type": "function",
      "payable": true
    },
    {
      "inputs": [
        {
          "internalType": "uint256",
          "name": "_saleId",
          "type": "uint256"
        },
        {
          "internalType": "uint256",
          "name": "_amount",
          "type": "uint256"
        }
      ],
      "name": "updateBuyPrice",
      "outputs": [],
      "stateMutability": "nonpayable",
      "type": "function"
    },
    {
      "inputs": [
        {
          "internalType": "uint256",
          "name": "_saleId",
          "type": "uint256"
        }
      ],
      "name": "cancelBuyPrice",
      "outputs": [],
      "stateMutability": "nonpayable",
      "type": "function"
    }
  ],
  "bytecode": "0x608060405234801561001057600080fd5b506147a6806100206000396000f3fe6080604052600436106100e85760003560e01c80638a72ea6a1161008a578063b62deb6511610059578063b62deb651461033c578063c815729d14610365578063cfbf4ee91461038e578063ef706adf146103b7576100e8565b80638a72ea6a1461026b5780639979ef45146102ae578063a59ac6dd146102de578063b5f522f7146102fa576100e8565b80634ce6931a116100c65780634ce6931a1461017c578063571a26a0146101b9578063798bac8d146101fe5780637de3bd071461023b576100e8565b806321506fff146100ed5780632e993611146101165780633892739414610153575b600080fd5b3480156100f957600080fd5b50610114600480360381019061010f91906133da565b6103e0565b005b34801561012257600080fd5b5061013d600480360381019061013891906133da565b6107ad565b60405161014a9190613416565b60405180910390f35b34801561015f57600080fd5b5061017a60048036038101906101759190613431565b610c59565b005b34801561018857600080fd5b506101a3600480360381019061019e91906134cf565b610f55565b6040516101b09190613416565b60405180910390f35b3480156101c557600080fd5b506101e060048036038101906101db91906133da565b611286565b6040516101f59998979695949392919061354c565b60405180910390f35b34801561020a57600080fd5b50610225600480360381019061022091906134cf565b611361565b6040516102329190613416565b60405180910390f35b610255600480360381019061025091906134cf565b611732565b6040516102629190613416565b60405180910390f35b34801561027757600080fd5b50610292600480360381019061028d91906133da565b611afd565b6040516102a597969594939291906135d9565b60405180910390f35b6102c860048036038101906102c391906133da565b611b8c565b6040516102d59190613416565b60405180910390f35b6102f860048036038101906102f391906134cf565b611ec6565b005b34801561030657600080fd5b50610321600480360381019061031c91906133da565b61244f565b60405161033396959493929190613648565b60405180910390f35b34801561034857600080fd5b50610363600480360381019061035e91906133da565b6124d8565b005b34801561037157600080fd5b5061038c600480360381019061038791906133da565b61286b565b005b34801561039a57600080fd5b506103b560048036038101906103b09190613431565b612cbc565b005b3480156103c357600080fd5b506103de60048036038101906103d991906133da565b612fa6565b005b806103eb600061337b565b81111561042d576040517f08c379a000000000000000000000000000000000000000000000000000000000815260040161042490613706565b60405180910390fd5b60006003600084815260200190815260200160002090508060060160009054906101000a900473ffffffffffffffffffffffffffffffffffffffff1673ffffffffffffffffffffffffffffffffffffffff163373ffffffffffffffffffffffffffffffffffffffff16146104d6576040517f08c379a00000000000000000000000000000000000000000000000000000000081526004016104cd90613798565b60405180910390fd5b600073ffffffffffffffffffffffffffffffffffffffff168160050160009054906101000a900473ffffffffffffffffffffffffffffffffffffffff1673ffffffffffffffffffffffffffffffffffffffff161480156105865750600073ffffffffffffffffffffffffffffffffffffffff168160040160009054906101000a900473ffffffffffffffffffffffffffffffffffffffff1673ffffffffffffffffffffffffffffffffffffffff16145b6105c5576040517f08c379a00000000000000000000000000000000000000000000000000000000081526004016105bc9061382a565b60405180910390fd5b8060070160009054906101000a900473ffffffffffffffffffffffffffffffffffffffff1673ffffffffffffffffffffffffffffffffffffffff166323b872dd308360060160009054906101000a900473ffffffffffffffffffffffffffffffffffffffff1684600101546040518463ffffffff1660e01b815260040161064e9392919061384a565b600060405180830381600087803b15801561066857600080fd5b505af115801561067c573d6000803e3d6000fd5b5050505060018160070160146101000a81548160ff0219169083151502179055506003808111156106b0576106af613881565b5b8160070160009054906101000a900473ffffffffffffffffffffffffffffffffffffffff1673ffffffffffffffffffffffffffffffffffffffff1682600101547f88e98201e0ee31d381fbbafcc13f7a5a0a8e8203bf21a2eb739fa2388ac8720786856002015486600301548760040160009054906101000a900473ffffffffffffffffffffffffffffffffffffffff168860050160009054906101000a900473ffffffffffffffffffffffffffffffffffffffff168960060160009054906101000a900473ffffffffffffffffffffffffffffffffffffffff1660016040516107a097969594939291906138b0565b60405180910390a4505050565b6000816107ba600061337b565b8111156107fc576040517f08c379a00000000000000000000000000000000000000000000000000000000081526004016107f390613706565b60405180910390fd5b60006003600085815260200190815260200160002090508060060160009054906101000a900473ffffffffffffffffffffffffffffffffffffffff1673ffffffffffffffffffffffffffffffffffffffff163373ffffffffffffffffffffffffffffffffffffffff1614806108c057508060050160009054906101000a900473ffffffffffffffffffffffffffffffffffffffff1673ffffffffffffffffffffffffffffffffffffffff163373ffffffffffffffffffffffffffffffffffffffff16145b6108ff576040517f08c379a00000000000000000000000000000000000000000000000000000000081526004016108f6906139b7565b60405180910390fd5b80600301544211610945576040517f08c379a000000000000000000000000000000000000000000000000000000000815260040161093c90613a49565b60405180910390fd5b8060070160149054906101000a900460ff1615610997576040517f08c379a000000000000000000000000000000000000000000000000000000000815260040161098e90613adb565b60405180910390fd5b60018160070160146101000a81548160ff0219169083151502179055508060070160009054906101000a900473ffffffffffffffffffffffffffffffffffffffff1673ffffffffffffffffffffffffffffffffffffffff166323b872dd308360050160009054906101000a900473ffffffffffffffffffffffffffffffffffffffff1684600101546040518463ffffffff1660e01b8152600401610a3d9392919061384a565b600060405180830381600087803b158015610a5757600080fd5b505af1158015610a6b573d6000803e3d6000fd5b5050505060008160060160009054906101000a900473ffffffffffffffffffffffffffffffffffffffff1673ffffffffffffffffffffffffffffffffffffffff168260020154604051610abd90613b2c565b60006040518083038185875af1925050503d8060008114610afa576040519150601f19603f3d011682016040523d82523d6000602084013e610aff565b606091505b5050905080610b43576040517f08c379a0000000000000000000000000000000000000000000000000000000008152600401610b3a90613bb3565b60405180910390fd5b600380811115610b5657610b55613881565b5b8260070160009054906101000a900473ffffffffffffffffffffffffffffffffffffffff1673ffffffffffffffffffffffffffffffffffffffff1683600101547f88e98201e0ee31d381fbbafcc13f7a5a0a8e8203bf21a2eb739fa2388ac8720788866002015487600301548860040160009054906101000a900473ffffffffffffffffffffffffffffffffffffffff168960050160009054906101000a900473ffffffffffffffffffffffffffffffffffffffff168a60060160009054906101000a900473ffffffffffffffffffffffffffffffffffffffff166001604051610c4697969594939291906138b0565b60405180910390a4849350505050919050565b81610c64600061337b565b811115610ca6576040517f08c379a0000000000000000000000000000000000000000000000000000000008152600401610c9d90613706565b60405180910390fd5b60006003600085815260200190815260200160002090508060060160009054906101000a900473ffffffffffffffffffffffffffffffffffffffff1673ffffffffffffffffffffffffffffffffffffffff163373ffffffffffffffffffffffffffffffffffffffff1614610d4f576040517f08c379a0000000000000000000000000000000000000000000000000000000008152600401610d4690613c45565b60405180910390fd5b600073ffffffffffffffffffffffffffffffffffffffff168160050160009054906101000a900473ffffffffffffffffffffffffffffffffffffffff1673ffffffffffffffffffffffffffffffffffffffff16148015610dff5750600073ffffffffffffffffffffffffffffffffffffffff168160040160009054906101000a900473ffffffffffffffffffffffffffffffffffffffff1673ffffffffffffffffffffffffffffffffffffffff16145b610e3e576040517f08c379a0000000000000000000000000000000000000000000000000000000008152600401610e359061382a565b60405180910390fd5b82816002018190555060016003811115610e5b57610e5a613881565b5b8160070160009054906101000a900473ffffffffffffffffffffffffffffffffffffffff1673ffffffffffffffffffffffffffffffffffffffff1682600101547f88e98201e0ee31d381fbbafcc13f7a5a0a8e8203bf21a2eb739fa2388ac87207878786600301548760040160009054906101000a900473ffffffffffffffffffffffffffffffffffffffff168860050160009054906101000a900473ffffffffffffffffffffffffffffffffffffffff168960060160009054906101000a900473ffffffffffffffffffffffffffffffffffffffff166000604051610f4797969594939291906138b0565b60405180910390a450505050565b6000610f616000613389565b6000610f6d600061337b565b90508473ffffffffffffffffffffffffffffffffffffffff166323b872dd3330876040518463ffffffff1660e01b8152600401610fac9392919061384a565b600060405180830381600087803b158015610fc657600080fd5b505af1158015610fda573d6000803e3d6000fd5b5050505060006201518042610fef9190613c94565b9050604051806101200160405280838152602001868152602001858152602001828152602001600073ffffffffffffffffffffffffffffffffffffffff168152602001600073ffffffffffffffffffffffffffffffffffffffff1681526020013373ffffffffffffffffffffffffffffffffffffffff1681526020018773ffffffffffffffffffffffffffffffffffffffff16815260200160001515815250600360008481526020019081526020016000206000820151816000015560208201518160010155604082015181600201556060820151816003015560808201518160040160006101000a81548173ffffffffffffffffffffffffffffffffffffffff021916908373ffffffffffffffffffffffffffffffffffffffff16021790555060a08201518160050160006101000a81548173ffffffffffffffffffffffffffffffffffffffff021916908373ffffffffffffffffffffffffffffffffffffffff16021790555060c08201518160060160006101000a81548173ffffffffffffffffffffffffffffffffffffffff021916908373ffffffffffffffffffffffffffffffffffffffff16021790555060e08201518160070160006101000a81548173ffffffffffffffffffffffffffffffffffffffff021916908373ffffffffffffffffffffffffffffffffffffffff1602179055506101008201518160070160146101000a81548160ff0219169083151502179055509050506000600381111561121d5761121c613881565b5b8673ffffffffffffffffffffffffffffffffffffffff16867f88e98201e0ee31d381fbbafcc13f7a5a0a8e8203bf21a2eb739fa2388ac8720785888660008033600060405161127297969594939291906138b0565b60405180910390a481925050509392505050565b60036020528060005260406000206000915090508060000154908060010154908060020154908060030154908060040160009054906101000a900473ffffffffffffffffffffffffffffffffffffffff16908060050160009054906101000a900473ffffffffffffffffffffffffffffffffffffffff16908060060160009054906101000a900473ffffffffffffffffffffffffffffffffffffffff16908060070160009054906101000a900473ffffffffffffffffffffffffffffffffffffffff16908060070160149054906101000a900460ff16905089565b600083833073ffffffffffffffffffffffffffffffffffffffff168273ffffffffffffffffffffffffffffffffffffffff1663081812fc836040518263ffffffff1660e01b81526004016113b59190613416565b602060405180830381865afa1580156113d2573d6000803e3d6000fd5b505050506040513d601f19601f820116820180604052508101906113f69190613cff565b73ffffffffffffffffffffffffffffffffffffffff16141580156114bf57503073ffffffffffffffffffffffffffffffffffffffff168273ffffffffffffffffffffffffffffffffffffffff16636352211e836040518263ffffffff1660e01b81526004016114659190613416565b602060405180830381865afa158015611482573d6000803e3d6000fd5b505050506040513d601f19601f820116820180604052508101906114a69190613cff565b73ffffffffffffffffffffffffffffffffffffffff1614155b156114f6576040517ff826f86200000000000000000000000000000000000000000000000000000000815260040160405180910390fd5b6115006002613389565b600061150c600261337b565b90506040518060c001604052808281526020018781526020018681526020018873ffffffffffffffffffffffffffffffffffffffff1681526020013073ffffffffffffffffffffffffffffffffffffffff168152602001600015158152506005600083815260200190815260200160002060008201518160000155602082015181600101556040820151816002015560608201518160030160006101000a81548173ffffffffffffffffffffffffffffffffffffffff021916908373ffffffffffffffffffffffffffffffffffffffff16021790555060808201518160040160006101000a81548173ffffffffffffffffffffffffffffffffffffffff021916908373ffffffffffffffffffffffffffffffffffffffff16021790555060a08201518160040160146101000a81548160ff0219169083151502179055509050508673ffffffffffffffffffffffffffffffffffffffff166323b872dd3330896040518463ffffffff1660e01b81526004016116899392919061384a565b600060405180830381600087803b1580156116a357600080fd5b505af11580156116b7573d6000803e3d6000fd5b50505050600060038111156116cf576116ce613881565b5b8773ffffffffffffffffffffffffffffffffffffffff16877f0cd43fd9c12c0b040dc330b451adcefd47851dfa029dec57f23f570054ef4688848930600060405161171d9493929190613d2c565b60405180910390a48093505050509392505050565b600083833073ffffffffffffffffffffffffffffffffffffffff168273ffffffffffffffffffffffffffffffffffffffff1663081812fc836040518263ffffffff1660e01b81526004016117869190613416565b602060405180830381865afa1580156117a3573d6000803e3d6000fd5b505050506040513d601f19601f820116820180604052508101906117c79190613cff565b73ffffffffffffffffffffffffffffffffffffffff161415801561189057503073ffffffffffffffffffffffffffffffffffffffff168273ffffffffffffffffffffffffffffffffffffffff16636352211e836040518263ffffffff1660e01b81526004016118369190613416565b602060405180830381865afa158015611853573d6000803e3d6000fd5b505050506040513d601f19601f820116820180604052508101906118779190613cff565b73ffffffffffffffffffffffffffffffffffffffff1614155b156118c7576040517ff826f86200000000000000000000000000000000000000000000000000000000815260040160405180910390fd5b8334101561190a576040517f08c379a000000000000000000000000000000000000000000000000000000000815260040161190190613de3565b60405180910390fd5b6119146001613389565b6000611920600161337b565b9050600062015180426119339190613c94565b90506040518060e001604052808381526020018881526020018781526020018281526020018973ffffffffffffffffffffffffffffffffffffffff1681526020013373ffffffffffffffffffffffffffffffffffffffff16815260200160001515815250600460008481526020019081526020016000206000820151816000015560208201518160010155604082015181600201556060820151816003015560808201518160040160006101000a81548173ffffffffffffffffffffffffffffffffffffffff021916908373ffffffffffffffffffffffffffffffffffffffff16021790555060a08201518160050160006101000a81548173ffffffffffffffffffffffffffffffffffffffff021916908373ffffffffffffffffffffffffffffffffffffffff16021790555060c08201518160050160146101000a81548160ff02191690831515021790555090505060006002811115611a9757611a96613881565b5b8873ffffffffffffffffffffffffffffffffffffffff16887f3d44ddf83a852335fb93dea137ad2410905452f00c66ea62151f153d0a11ae5e858a86336000604051611ae7959493929190613e03565b60405180910390a4819450505050509392505050565b60046020528060005260406000206000915090508060000154908060010154908060020154908060030154908060040160009054906101000a900473ffffffffffffffffffffffffffffffffffffffff16908060050160009054906101000a900473ffffffffffffffffffffffffffffffffffffffff16908060050160149054906101000a900460ff16905087565b600081611b99600061337b565b811115611bdb576040517f08c379a0000000000000000000000000000000000000000000000000000000008152600401611bd290613706565b60405180910390fd5b60006003600085815260200190815260200160002090508060030154421115611c39576040517f08c379a0000000000000000000000000000000000000000000000000000000008152600401611c3090613ea2565b60405180910390fd5b8060070160149054906101000a900460ff1615611c8b576040517f08c379a0000000000000000000000000000000000000000000000000000000008152600401611c8290613f5a565b60405180910390fd5b80600201543411611cd1576040517f08c379a0000000000000000000000000000000000000000000000000000000008152600401611cc890613fec565b60405180910390fd5b60008160050160009054906101000a900473ffffffffffffffffffffffffffffffffffffffff169050338260050160006101000a81548173ffffffffffffffffffffffffffffffffffffffff021916908373ffffffffffffffffffffffffffffffffffffffff160217905550808260040160006101000a81548173ffffffffffffffffffffffffffffffffffffffff021916908373ffffffffffffffffffffffffffffffffffffffff160217905550600073ffffffffffffffffffffffffffffffffffffffff168260040160009054906101000a900473ffffffffffffffffffffffffffffffffffffffff1673ffffffffffffffffffffffffffffffffffffffff1614611eae5760008260040160009054906101000a900473ffffffffffffffffffffffffffffffffffffffff1673ffffffffffffffffffffffffffffffffffffffff168360020154604051611e2690613b2c565b60006040518083038185875af1925050503d8060008114611e63576040519150601f19603f3d011682016040523d82523d6000602084013e611e68565b606091505b5050905080611eac576040517f08c379a0000000000000000000000000000000000000000000000000000000008152600401611ea39061407e565b60405180910390fd5b505b34826002018190555081600001549350505050919050565b82823073ffffffffffffffffffffffffffffffffffffffff168273ffffffffffffffffffffffffffffffffffffffff1663081812fc836040518263ffffffff1660e01b8152600401611f189190613416565b602060405180830381865afa158015611f35573d6000803e3d6000fd5b505050506040513d601f19601f82011682018060405250810190611f599190613cff565b73ffffffffffffffffffffffffffffffffffffffff161415801561202257503073ffffffffffffffffffffffffffffffffffffffff168273ffffffffffffffffffffffffffffffffffffffff16636352211e836040518263ffffffff1660e01b8152600401611fc89190613416565b602060405180830381865afa158015611fe5573d6000803e3d6000fd5b505050506040513d601f19601f820116820180604052508101906120099190613cff565b73ffffffffffffffffffffffffffffffffffffffff1614155b15612059576040517ff826f86200000000000000000000000000000000000000000000000000000000815260040160405180910390fd5b82612064600261337b565b8111156120a6576040517f08c379a000000000000000000000000000000000000000000000000000000000815260040161209d906140ea565b60405180910390fd5b836000600560008381526020019081526020016000206040518060c00160405290816000820154815260200160018201548152602001600282015481526020016003820160009054906101000a900473ffffffffffffffffffffffffffffffffffffffff1673ffffffffffffffffffffffffffffffffffffffff1673ffffffffffffffffffffffffffffffffffffffff1681526020016004820160009054906101000a900473ffffffffffffffffffffffffffffffffffffffff1673ffffffffffffffffffffffffffffffffffffffff1673ffffffffffffffffffffffffffffffffffffffff1681526020016004820160149054906101000a900460ff16151515158152505090508060a00151156121f3576040517f08c379a00000000000000000000000000000000000000000000000000000000081526004016121ea9061417c565b60405180910390fd5b60006005600088815260200190815260200160002090503481600201541015612251576040517f08c379a0000000000000000000000000000000000000000000000000000000008152600401612248906141e8565b60405180910390fd5b60018160040160146101000a81548160ff0219169083151502179055508873ffffffffffffffffffffffffffffffffffffffff166323b872dd8260040160009054906101000a900473ffffffffffffffffffffffffffffffffffffffff16338a6040518463ffffffff1660e01b81526004016122cf9392919061384a565b600060405180830381600087803b1580156122e957600080fd5b505af11580156122fd573d6000803e3d6000fd5b5050505060008160040160009054906101000a900473ffffffffffffffffffffffffffffffffffffffff1673ffffffffffffffffffffffffffffffffffffffff16826002015460405161234f90613b2c565b60006040518083038185875af1925050503d806000811461238c576040519150601f19603f3d011682016040523d82523d6000602084013e612391565b606091505b50509050806123d5576040517f08c379a00000000000000000000000000000000000000000000000000000000081526004016123cc9061427a565b60405180910390fd5b600160038111156123e9576123e8613881565b5b8a73ffffffffffffffffffffffffffffffffffffffff168a7f0cd43fd9c12c0b040dc330b451adcefd47851dfa029dec57f23f570054ef46888b866002015430600160405161243b9493929190613d2c565b60405180910390a450505050505050505050565b60056020528060005260406000206000915090508060000154908060010154908060020154908060030160009054906101000a900473ffffffffffffffffffffffffffffffffffffffff16908060040160009054906101000a900473ffffffffffffffffffffffffffffffffffffffff16908060040160149054906101000a900460ff16905086565b806124e3600261337b565b811115612525576040517f08c379a000000000000000000000000000000000000000000000000000000000815260040161251c906140ea565b60405180910390fd5b816000600560008381526020019081526020016000206040518060c00160405290816000820154815260200160018201548152602001600282015481526020016003820160009054906101000a900473ffffffffffffffffffffffffffffffffffffffff1673ffffffffffffffffffffffffffffffffffffffff1673ffffffffffffffffffffffffffffffffffffffff1681526020016004820160009054906101000a900473ffffffffffffffffffffffffffffffffffffffff1673ffffffffffffffffffffffffffffffffffffffff1673ffffffffffffffffffffffffffffffffffffffff1681526020016004820160149054906101000a900460ff16151515158152505090508060a0015115612672576040517f08c379a00000000000000000000000000000000000000000000000000000000081526004016126699061417c565b60405180910390fd5b60006005600086815260200190815260200160002090508060040160009054906101000a900473ffffffffffffffffffffffffffffffffffffffff1673ffffffffffffffffffffffffffffffffffffffff163373ffffffffffffffffffffffffffffffffffffffff161461271b576040517f08c379a00000000000000000000000000000000000000000000000000000000081526004016127129061430c565b60405180910390fd5b60018160040160146101000a81548160ff0219169083151502179055508060030160009054906101000a900473ffffffffffffffffffffffffffffffffffffffff1673ffffffffffffffffffffffffffffffffffffffff166323b872dd303384600101546040518463ffffffff1660e01b815260040161279d9392919061384a565b600060405180830381600087803b1580156127b757600080fd5b505af11580156127cb573d6000803e3d6000fd5b505050506003808111156127e2576127e1613881565b5b8160030160009054906101000a900473ffffffffffffffffffffffffffffffffffffffff1673ffffffffffffffffffffffffffffffffffffffff1682600101547f0cd43fd9c12c0b040dc330b451adcefd47851dfa029dec57f23f570054ef468888856002015430600160405161285c9493929190613d2c565b60405180910390a45050505050565b80612876600161337b565b8111156128b8576040517f08c379a00000000000000000000000000000000000000000000000000000000081526004016128af90614378565b60405180910390fd5b60006004600084815260200190815260200160002090508060030154421115612916576040517f08c379a000000000000000000000000000000000000000000000000000000000815260040161290d906143e4565b60405180910390fd5b8060050160149054906101000a900460ff1615612968576040517f08c379a000000000000000000000000000000000000000000000000000000000815260040161295f90614476565b60405180910390fd5b3073ffffffffffffffffffffffffffffffffffffffff168160040160009054906101000a900473ffffffffffffffffffffffffffffffffffffffff1673ffffffffffffffffffffffffffffffffffffffff1663081812fc83600101546040518263ffffffff1660e01b81526004016129e09190613416565b602060405180830381865afa1580156129fd573d6000803e3d6000fd5b505050506040513d601f19601f82011682018060405250810190612a219190613cff565b73ffffffffffffffffffffffffffffffffffffffff1614612a6e576040517ff826f86200000000000000000000000000000000000000000000000000000000815260040160405180910390fd5b60018160050160146101000a81548160ff0219169083151502179055508060040160009054906101000a900473ffffffffffffffffffffffffffffffffffffffff1673ffffffffffffffffffffffffffffffffffffffff166323b872dd338360050160009054906101000a900473ffffffffffffffffffffffffffffffffffffffff1684600101546040518463ffffffff1660e01b8152600401612b149392919061384a565b600060405180830381600087803b158015612b2e57600080fd5b505af1158015612b42573d6000803e3d6000fd5b5050505060003373ffffffffffffffffffffffffffffffffffffffff168260020154604051612b7090613b2c565b60006040518083038185875af1925050503d8060008114612bad576040519150601f19603f3d011682016040523d82523d6000602084013e612bb2565b606091505b5050905080612bf6576040517f08c379a0000000000000000000000000000000000000000000000000000000008152600401612bed90614508565b60405180910390fd5b60016002811115612c0a57612c09613881565b5b8260040160009054906101000a900473ffffffffffffffffffffffffffffffffffffffff1673ffffffffffffffffffffffffffffffffffffffff1683600101547f3d44ddf83a852335fb93dea137ad2410905452f00c66ea62151f153d0a11ae5e87866002015487600301548860050160009054906101000a900473ffffffffffffffffffffffffffffffffffffffff166001604051612cae959493929190613e03565b60405180910390a450505050565b81612cc7600261337b565b811115612d09576040517f08c379a0000000000000000000000000000000000000000000000000000000008152600401612d00906140ea565b60405180910390fd5b826000600560008381526020019081526020016000206040518060c00160405290816000820154815260200160018201548152602001600282015481526020016003820160009054906101000a900473ffffffffffffffffffffffffffffffffffffffff1673ffffffffffffffffffffffffffffffffffffffff1673ffffffffffffffffffffffffffffffffffffffff1681526020016004820160009054906101000a900473ffffffffffffffffffffffffffffffffffffffff1673ffffffffffffffffffffffffffffffffffffffff1673ffffffffffffffffffffffffffffffffffffffff1681526020016004820160149054906101000a900460ff16151515158152505090508060a0015115612e56576040517f08c379a0000000000000000000000000000000000000000000000000000000008152600401612e4d9061417c565b60405180910390fd5b60006005600087815260200190815260200160002090508060040160009054906101000a900473ffffffffffffffffffffffffffffffffffffffff1673ffffffffffffffffffffffffffffffffffffffff163373ffffffffffffffffffffffffffffffffffffffff1614612eff576040517f08c379a0000000000000000000000000000000000000000000000000000000008152600401612ef69061459a565b60405180910390fd5b84816002018190555060026003811115612f1c57612f1b613881565b5b8160030160009054906101000a900473ffffffffffffffffffffffffffffffffffffffff1673ffffffffffffffffffffffffffffffffffffffff1682600101547f0cd43fd9c12c0b040dc330b451adcefd47851dfa029dec57f23f570054ef4688898560020154306000604051612f969493929190613d2c565b60405180910390a4505050505050565b80612fb1600161337b565b811115612ff3576040517f08c379a0000000000000000000000000000000000000000000000000000000008152600401612fea90614378565b60405180910390fd5b60006004600084815260200190815260200160002090508060050160009054906101000a900473ffffffffffffffffffffffffffffffffffffffff1673ffffffffffffffffffffffffffffffffffffffff163373ffffffffffffffffffffffffffffffffffffffff16148061313457508060040160009054906101000a900473ffffffffffffffffffffffffffffffffffffffff1673ffffffffffffffffffffffffffffffffffffffff16636352211e82600101546040518263ffffffff1660e01b81526004016130c49190613416565b602060405180830381865afa1580156130e1573d6000803e3d6000fd5b505050506040513d601f19601f820116820180604052508101906131059190613cff565b73ffffffffffffffffffffffffffffffffffffffff163373ffffffffffffffffffffffffffffffffffffffff16145b613173576040517f08c379a000000000000000000000000000000000000000000000000000000000815260040161316a9061462c565b60405180910390fd5b8060050160149054906101000a900460ff16156131c5576040517f08c379a00000000000000000000000000000000000000000000000000000000081526004016131bc906146be565b60405180910390fd5b60018160050160146101000a81548160ff02191690831515021790555060008160050160009054906101000a900473ffffffffffffffffffffffffffffffffffffffff1673ffffffffffffffffffffffffffffffffffffffff16826002015460405161323090613b2c565b60006040518083038185875af1925050503d806000811461326d576040519150601f19603f3d011682016040523d82523d6000602084013e613272565b606091505b50509050806132b6576040517f08c379a00000000000000000000000000000000000000000000000000000000081526004016132ad90614750565b60405180910390fd5b6002808111156132c9576132c8613881565b5b8260040160009054906101000a900473ffffffffffffffffffffffffffffffffffffffff1673ffffffffffffffffffffffffffffffffffffffff1683600101547f3d44ddf83a852335fb93dea137ad2410905452f00c66ea62151f153d0a11ae5e87866002015487600301548860050160009054906101000a900473ffffffffffffffffffffffffffffffffffffffff16600160405161336d959493929190613e03565b60405180910390a450505050565b600081600001549050919050565b6001816000016000828254019250508190555050565b600080fd5b6000819050919050565b6133b7816133a4565b81146133c257600080fd5b50565b6000813590506133d4816133ae565b92915050565b6000602082840312156133f0576133ef61339f565b5b60006133fe848285016133c5565b91505092915050565b613410816133a4565b82525050565b600060208201905061342b6000830184613407565b92915050565b600080604083850312156134485761344761339f565b5b6000613456858286016133c5565b9250506020613467858286016133c5565b9150509250929050565b600073ffffffffffffffffffffffffffffffffffffffff82169050919050565b600061349c82613471565b9050919050565b6134ac81613491565b81146134b757600080fd5b50565b6000813590506134c9816134a3565b92915050565b6000806000606084860312156134e8576134e761339f565b5b60006134f6868287016134ba565b9350506020613507868287016133c5565b9250506040613518868287016133c5565b9150509250925092565b61352b81613491565b82525050565b60008115159050919050565b61354681613531565b82525050565b600061012082019050613562600083018c613407565b61356f602083018b613407565b61357c604083018a613407565b6135896060830189613407565b6135966080830188613522565b6135a360a0830187613522565b6135b060c0830186613522565b6135bd60e0830185613522565b6135cb61010083018461353d565b9a9950505050505050505050565b600060e0820190506135ee600083018a613407565b6135fb6020830189613407565b6136086040830188613407565b6136156060830187613407565b6136226080830186613522565b61362f60a0830185613522565b61363c60c083018461353d565b98975050505050505050565b600060c08201905061365d6000830189613407565b61366a6020830188613407565b6136776040830187613407565b6136846060830186613522565b6136916080830185613522565b61369e60a083018461353d565b979650505050505050565b600082825260208201905092915050565b7f4d61726b65743a20496e76616c69642061756374696f6e206964210000000000600082015250565b60006136f0601b836136a9565b91506136fb826136ba565b602082019050919050565b6000602082019050818103600083015261371f816136e3565b9050919050565b7f4d61726b65743a204f6e6c79207468652061756374696f6e2073656c6c65722060008201527f63616e2063616e63656c207468652061756374696f6e21000000000000000000602082015250565b60006137826037836136a9565b915061378d82613726565b604082019050919050565b600060208201905081810360008301526137b181613775565b9050919050565b7f4d61726b65743a2041756374696f6e20686173207374617274656420616c726560008201527f6164792c2063616e7420757064617465206e6f77210000000000000000000000602082015250565b60006138146035836136a9565b915061381f826137b8565b604082019050919050565b6000602082019050818103600083015261384381613807565b9050919050565b600060608201905061385f6000830186613522565b61386c6020830185613522565b6138796040830184613407565b949350505050565b7f4e487b7100000000000000000000000000000000000000000000000000000000600052602160045260246000fd5b600060e0820190506138c5600083018a613407565b6138d26020830189613407565b6138df6040830188613407565b6138ec6060830187613522565b6138f96080830186613522565b61390660a0830185613522565b61391360c083018461353d565b98975050505050505050565b7f4d61726b65743a204f6e6c792073656c6c6572206f722063757272656e74206860008201527f696768657374206269646465722063616e20736574746c65207468697320617560208201527f6374696f6e210000000000000000000000000000000000000000000000000000604082015250565b60006139a16046836136a9565b91506139ac8261391f565b606082019050919050565b600060208201905081810360008301526139d081613994565b9050919050565b7f4d61726b65743a2041756374696f6e20686173206e6f7420657870697265642060008201527f7965742100000000000000000000000000000000000000000000000000000000602082015250565b6000613a336024836136a9565b9150613a3e826139d7565b604082019050919050565b60006020820190508181036000830152613a6281613a26565b9050919050565b7f4d61726b65743a2041756374696f6e20686173206265656e20736574746c656460008201527f20616c7265616479210000000000000000000000000000000000000000000000602082015250565b6000613ac56029836136a9565b9150613ad082613a69565b604082019050919050565b60006020820190508181036000830152613af481613ab8565b9050919050565b600081905092915050565b50565b6000613b16600083613afb565b9150613b2182613b06565b600082019050919050565b6000613b3782613b09565b9150819050919050565b7f4d61726b65743a2042696420616d6f756e7420686173206e6f74206265656e2060008201527f73656e7420746f207468652073656c6c65722e00000000000000000000000000602082015250565b6000613b9d6033836136a9565b9150613ba882613b41565b604082019050919050565b60006020820190508181036000830152613bcc81613b90565b9050919050565b7f4d61726b65743a204f6e6c79207468652061756374696f6e2073656c6c65722060008201527f63616e206d6f64696679207468652061756374696f6e21000000000000000000602082015250565b6000613c2f6037836136a9565b9150613c3a82613bd3565b604082019050919050565b60006020820190508181036000830152613c5e81613c22565b9050919050565b7f4e487b7100000000000000000000000000000000000000000000000000000000600052601160045260246000fd5b6000613c9f826133a4565b9150613caa836133a4565b9250827fffffffffffffffffffffffffffffffffffffffffffffffffffffffffffffffff03821115613cdf57613cde613c65565b5b828201905092915050565b600081519050613cf9816134a3565b92915050565b600060208284031215613d1557613d1461339f565b5b6000613d2384828501613cea565b91505092915050565b6000608082019050613d416000830187613407565b613d4e6020830186613407565b613d5b6040830185613522565b613d68606083018461353d565b95945050505050565b7f4d61726b65743a20416d6f756e742073656e742073686f756c6420626520677260008201527f6561746572207468616e206f6666657220616d6f756e74210000000000000000602082015250565b6000613dcd6038836136a9565b9150613dd882613d71565b604082019050919050565b60006020820190508181036000830152613dfc81613dc0565b9050919050565b600060a082019050613e186000830188613407565b613e256020830187613407565b613e326040830186613407565b613e3f6060830185613522565b613e4c608083018461353d565b9695505050505050565b7f4d61726b65743a2041756374696f6e2068617320657870697265642100000000600082015250565b6000613e8c601c836136a9565b9150613e9782613e56565b602082019050919050565b60006020820190508181036000830152613ebb81613e7f565b9050919050565b7f4d61726b65743a2041756374696f6e206973206e6f206d6f726520616374697660008201527f652c204974656d20686173206265656e20736f6c6420616c7265616479206f7260208201527f2072656d6f766564210000000000000000000000000000000000000000000000604082015250565b6000613f446049836136a9565b9150613f4f82613ec2565b606082019050919050565b60006020820190508181036000830152613f7381613f37565b9050919050565b7f4d61726b65743a20506c656173652073656e6420616d6f756e7420677265617460008201527f6572207468616e207265736572766520616d6f756e7421000000000000000000602082015250565b6000613fd66037836136a9565b9150613fe182613f7a565b604082019050919050565b6000602082019050818103600083015261400581613fc9565b9050919050565b7f4d61726b65743a2042696420616d6f756e7420686173206e6f74206265656e2060008201527f73656e7420746f207468652070726576696f7573206269646465722e00000000602082015250565b6000614068603c836136a9565b91506140738261400c565b604082019050919050565b600060208201905081810360008301526140978161405b565b9050919050565b7f4d61726b65743a20496e76616c69642073616c65206964210000000000000000600082015250565b60006140d46018836136a9565b91506140df8261409e565b602082019050919050565b60006020820190508181036000830152614103816140c7565b9050919050565b7f4d61726b65743a2053616c6520686173206265656e20656e646564206f72206360008201527f616e63656c656421000000000000000000000000000000000000000000000000602082015250565b60006141666028836136a9565b91506141718261410a565b604082019050919050565b6000602082019050818103600083015261419581614159565b9050919050565b7f4d61726b65743a2053656e64207468652061736b696e67207072696365210000600082015250565b60006141d2601e836136a9565b91506141dd8261419c565b602082019050919050565b60006020820190508181036000830152614201816141c5565b9050919050565b7f4d61726b65743a2053616c6520616d6f756e74206e6f742072657475726e656460008201527f20746f207468652073656c6c6572210000000000000000000000000000000000602082015250565b6000614264602f836136a9565b915061426f82614208565b604082019050919050565b6000602082019050818103600083015261429381614257565b9050919050565b7f4d61726b65743a204f6e6c792073656c6c65722063616e2063616e63656c207460008201527f68652073616c6521000000000000000000000000000000000000000000000000602082015250565b60006142f66028836136a9565b91506143018261429a565b604082019050919050565b60006020820190508181036000830152614325816142e9565b9050919050565b7f4d61726b65743a20496e76616c6964204f666665722069642100000000000000600082015250565b60006143626019836136a9565b915061436d8261432c565b602082019050919050565b6000602082019050818103600083015261439181614355565b9050919050565b7f4d61726b65743a204f6666657220686173206578706972656421000000000000600082015250565b60006143ce601a836136a9565b91506143d982614398565b602082019050919050565b600060208201905081810360008301526143fd816143c1565b9050919050565b7f4d61726b65743a204f6666657220686173206265656e20736574746c6564206160008201527f6c72656164792100000000000000000000000000000000000000000000000000602082015250565b60006144606027836136a9565b915061446b82614404565b604082019050919050565b6000602082019050818103600083015261448f81614453565b9050919050565b7f4d61726b65743a204f6666657220616d6f756e7420686173206e6f742062656560008201527f6e2073656e7420746f20746865206173736574206f776e65722e000000000000602082015250565b60006144f2603a836136a9565b91506144fd82614496565b604082019050919050565b60006020820190508181036000830152614521816144e5565b9050919050565b7f4d61726b65743a204f6e6c792073656c6c65722063616e20757064617465206260008201527f7579207072696365210000000000000000000000000000000000000000000000602082015250565b60006145846029836136a9565b915061458f82614528565b604082019050919050565b600060208201905081810360008301526145b381614577565b9050919050565b7f4d61726b65743a2043616e2062652063616e63656c656420627920746865206160008201527f73736574206f776e6572206f7220627920746865206f66666572657221000000602082015250565b6000614616603d836136a9565b9150614621826145ba565b604082019050919050565b6000602082019050818103600083015261464581614609565b9050919050565b7f4d61726b65743a204f6666657220686173206265656e20736574746c6564206f60008201527f7220686173206265656e2063616e63656c656420616c72656164792100000000602082015250565b60006146a8603c836136a9565b91506146b38261464c565b604082019050919050565b600060208201905081810360008301526146d78161469b565b9050919050565b7f4d61726b65743a204f6666657220616d6f756e74206e6f742072657475726e6560008201527f6420746f20746865206f66666572657221000000000000000000000000000000602082015250565b600061473a6031836136a9565b9150614745826146de565b604082019050919050565b600060208201905081810360008301526147698161472d565b905091905056fea2646970667358221220e9d3295ee2c1d3f750930e9f6d0751b9cb5bba882951e0e2782a8e78576e6fde64736f6c634300080d0033",
  "immutableReferences": {},
  "source": "// SPDX-License-Identifier: MITX\r\npragma solidity >=0.8.0 <0.9.0;\r\n\r\nimport \"@openzeppelin/contracts/utils/Counters.sol\";\r\nimport \"@openzeppelin/contracts/token/ERC721/IERC721.sol\";\r\n\r\ncontract Market {\r\n    // ERRORS\r\n    // \"Market: Market doesn't has approved status for this item!\"\r\n    error ItemNotApproved();\r\n    \r\n    using Counters for Counters.Counter;\r\n    Counters.Counter private _auctionCount;\r\n    Counters.Counter private _offersCount;\r\n    Counters.Counter private _salesCount;\r\n\r\n    mapping(uint256 => Auction) public auctions;\r\n    mapping(uint256 => Offer) public offers;\r\n    mapping(uint256 => Sale) public sales;\r\n\r\n    // Event enums\r\n    enum TypeAuction {create, update, cancel, settle}\r\n    enum TypeOffer {create, accept, decline}\r\n    enum TypeSale {create, accept, update, cancel}\r\n\r\n    struct Auction {\r\n        uint256 id;\r\n        uint256 itemId;\r\n        uint256 reservePrice;\r\n        uint256 expireAt;\r\n        address previousBidder;\r\n        address currentBidder;\r\n        address seller;\r\n        address contractAddress;\r\n        bool sold;\r\n    }\r\n\r\n    struct Offer {\r\n        uint id;\r\n        uint256 itemId;\r\n        uint256 amount;\r\n        uint256 expireAt;\r\n        address contractAddress;\r\n        address offerFrom;\r\n        bool sold;\r\n    }\r\n\r\n    struct Sale {\r\n        uint id;\r\n        uint itemId;\r\n        uint256 amount;\r\n        address contractAddress;\r\n        address seller;\r\n        bool sold;\r\n    }\r\n\r\n    event EventAuction (\r\n        uint256 id,\r\n        uint256 indexed itemId,\r\n        uint256 reservePrice,\r\n        uint256 expireAt,\r\n        address previousBidder,\r\n        address currentBidder,\r\n        address seller,\r\n        address indexed contractAddress,\r\n        bool sold,\r\n        TypeAuction indexed eventType\r\n    );\r\n\r\n    event EventOffer (\r\n        uint id,\r\n        uint256 indexed itemId,\r\n        uint256 amount,\r\n        uint256 expireAt,\r\n        address indexed contractAddress,\r\n        address offerFrom,\r\n        bool sold,\r\n        TypeOffer indexed eventType\r\n    );\r\n\r\n    event EventSale (\r\n        uint id,\r\n        uint indexed itemId,\r\n        uint256 amount,\r\n        address indexed contractAddress,\r\n        address seller,\r\n        bool sold,\r\n        TypeSale indexed eventType\r\n    );\r\n\r\n    modifier _auctionExists(uint256 _auctionId) {\r\n        // Check if auction exist's\r\n        require(_auctionId <= _auctionCount.current(), \"Market: Invalid auction id!\");\r\n        _;\r\n    }\r\n\r\n    modifier _offerExists(uint256 _offerId) {\r\n        // Check if offer exist's\r\n        require(_offerId <= _offersCount.current(), \"Market: Invalid Offer id!\");\r\n        _;\r\n    }\r\n\r\n    modifier _saleExists(uint256 _saleId) {\r\n        require(_saleId <= _salesCount.current(), \"Market: Invalid sale id!\");\r\n        _;\r\n    }\r\n\r\n    modifier _saleEnded(uint256 _saleId) {\r\n        Sale memory sale = sales[_saleId];\r\n        require(!sale.sold, \"Market: Sale has been ended or canceled!\");\r\n        _;\r\n    }\r\n\r\n    modifier _isApproved(address _contractAddress, uint256 _itemId) {\r\n        // Can only make offers if the item has approval from this contract\r\n        if(IERC721(_contractAddress).getApproved(_itemId) != address(this) && IERC721(_contractAddress).ownerOf(_itemId) != address(this)){\r\n            revert ItemNotApproved();\r\n        }\r\n        _;\r\n    }\r\n\r\n    // Create Auction\r\n    function createReserveAuction(address _contractAddress, uint256 _itemId, uint256 _reservePrice) external returns(uint256) {\r\n        _auctionCount.increment();\r\n        uint256 _auctionId = _auctionCount.current();\r\n        IERC721(_contractAddress).transferFrom(msg.sender, address(this), _itemId);\r\n        uint256 expireAt = block.timestamp + 1 days;\r\n        \r\n        auctions[_auctionId] = Auction({\r\n            id: _auctionId,\r\n            contractAddress: _contractAddress,\r\n            itemId:_itemId,\r\n            reservePrice:_reservePrice,\r\n            previousBidder:address(0),\r\n            currentBidder: address(0),\r\n            seller: payable(msg.sender),\r\n            sold: false,\r\n            expireAt: expireAt\r\n        });\r\n\r\n        emit EventAuction (\r\n            _auctionId,\r\n            _itemId,\r\n            _reservePrice,\r\n            expireAt,\r\n            address(0),\r\n            address(0),\r\n            msg.sender,\r\n            _contractAddress,\r\n            false,\r\n            TypeAuction.create\r\n        );\r\n        return _auctionId;\r\n    }\r\n\r\n    // Bid Auction\r\n    function placeBid(uint256 _auctionId) external payable _auctionExists(_auctionId) returns (uint256) {\r\n        Auction storage auction = auctions[_auctionId];\r\n        // Check if it is not expired or sold\r\n        require(block.timestamp <= auction.expireAt, \"Market: Auction has expired!\");\r\n        require(!auction.sold,\"Market: Auction is no more active, Item has been sold already or removed!\");\r\n        // Send the requried amount to this contract\r\n        require(msg.value > auction.reservePrice, \"Market: Please send amount greater than reserve amount!\");\r\n\r\n        // Change state, new owner and previous owner\r\n        address _currentBidder = auction.currentBidder;\r\n        auction.currentBidder = payable(msg.sender);\r\n        auction.previousBidder = payable(_currentBidder);\r\n        // Payback the old bidder\r\n        if(auction.previousBidder != address(0)) {\r\n            (bool sent, ) = auction.previousBidder.call{value: auction.reservePrice}(\"\");\r\n            require(sent,\"Market: Bid amount has not been sent to the previous bidder.\");\r\n        }\r\n        // Update the reserve price to the new bid amount\r\n        auction.reservePrice = msg.value;\r\n\r\n        return auction.id;\r\n    }\r\n\r\n    // Settle Auction\r\n    function settleAuction(uint256 _auctionId) external _auctionExists(_auctionId) returns (uint256) {\r\n        Auction storage auction = auctions[_auctionId];\r\n\r\n        // Only seller or currentBidder can settle this auction.\r\n        require(msg.sender == auction.seller || msg.sender == auction.currentBidder, \"Market: Only seller or current highest bidder can settle this auction!\");\r\n\r\n        // Check if it is expired or sold\r\n        require(block.timestamp > auction.expireAt, \"Market: Auction has not expired yet!\");\r\n        require(!auction.sold, \"Market: Auction has been settled already!\");\r\n\r\n        // Change state, sold.\r\n        auction.sold = true;\r\n        // Sent the asset to the highest bidder\r\n        IERC721(auction.contractAddress).transferFrom(address(this), auction.currentBidder, auction.itemId);\r\n        // Transfer the bid amount to the seller\r\n        (bool sent,) = auction.seller.call{value: auction.reservePrice}(\"\");\r\n        require(sent,\"Market: Bid amount has not been sent to the seller.\");\r\n\r\n        emit EventAuction (\r\n            _auctionId,\r\n            auction.itemId,\r\n            auction.reservePrice,\r\n            auction.expireAt,\r\n            auction.previousBidder,\r\n            auction.currentBidder,\r\n            auction.seller,\r\n            auction.contractAddress,\r\n            true,\r\n            TypeAuction.settle\r\n        );\r\n        \r\n        return _auctionId;\r\n    }\r\n\r\n    // Update Reserve Price\r\n    function updateReservePrice(uint256 _auctionId, uint256 _reservePrice) external _auctionExists(_auctionId)  {\r\n        Auction storage auction = auctions[_auctionId];\r\n\r\n        // Only seller can update the auction\r\n        require(msg.sender == auction.seller, \"Market: Only the auction seller can modify the auction!\");\r\n\r\n        // Only update if the auction has not started\r\n        require(auction.currentBidder == address(0) && auction.previousBidder == address(0), \"Market: Auction has started already, cant update now!\");\r\n\r\n        // Change state\r\n        auction.reservePrice = _reservePrice;\r\n\r\n        emit EventAuction (\r\n            _auctionId,\r\n            auction.itemId,\r\n            _reservePrice,\r\n            auction.expireAt,\r\n            auction.previousBidder,\r\n            auction.currentBidder,\r\n            auction.seller,\r\n            auction.contractAddress,\r\n            false,\r\n            TypeAuction.update\r\n        );\r\n    }\r\n\r\n    // Cancel the Auction\r\n    function cancelReserveAuction(uint256 _auctionId) external _auctionExists(_auctionId) {\r\n        Auction storage auction = auctions[_auctionId];\r\n\r\n        // Only seller can update the auction\r\n        require(msg.sender == auction.seller, \"Market: Only the auction seller can cancel the auction!\");\r\n\r\n        // Only update if the auction has not started\r\n        require(auction.currentBidder == address(0) && auction.previousBidder == address(0), \"Market: Auction has started already, cant update now!\");\r\n\r\n        // Send back the asset to the seller\r\n        IERC721(auction.contractAddress).transferFrom(address(this), auction.seller, auction.itemId);\r\n        // Change state\r\n        auction.sold = true;\r\n\r\n        emit EventAuction (\r\n            _auctionId,\r\n            auction.itemId,\r\n            auction.reservePrice,\r\n            auction.expireAt,\r\n            auction.previousBidder,\r\n            auction.currentBidder,\r\n            auction.seller,\r\n            auction.contractAddress,\r\n            true,\r\n            TypeAuction.settle\r\n        );\r\n    }\r\n\r\n    // OFFERS //\r\n    // Create Offer\r\n    function makeOffer(address _contractAddress, uint256 _itemId, uint256 _amount) external payable _isApproved(_contractAddress, _itemId) returns(uint256){\r\n\r\n        require(msg.value >= _amount, \"Market: Amount sent should be greater than offer amount!\");\r\n\r\n        _offersCount.increment();\r\n        uint256 offerId = _offersCount.current();\r\n        uint256 expireAt =  block.timestamp + 1 days;\r\n\r\n        offers[offerId] = Offer({\r\n            id: offerId,\r\n            itemId: _itemId,\r\n            amount:_amount,\r\n            expireAt: expireAt,\r\n            contractAddress: _contractAddress,\r\n            offerFrom: payable(msg.sender),\r\n            sold: false\r\n        });\r\n\r\n        emit EventOffer (\r\n            offerId,\r\n            _itemId,\r\n            _amount,\r\n            expireAt,\r\n            _contractAddress,\r\n            msg.sender,\r\n            false,\r\n            TypeOffer.create\r\n        );\r\n\r\n        return offerId;\r\n    }\r\n\r\n    function acceptOffer(uint256 _offerId) external _offerExists(_offerId) {\r\n\r\n        Offer storage offer = offers[_offerId];\r\n\r\n        // Check if it is expired or sold\r\n        require(block.timestamp <= offer.expireAt, \"Market: Offer has expired!\");\r\n        require(!offer.sold, \"Market: Offer has been settled already!\");\r\n\r\n        if(IERC721(offer.contractAddress).getApproved(offer.itemId) != address(this)){\r\n            revert ItemNotApproved();\r\n        }\r\n\r\n        // Change State\r\n        offer.sold = true;\r\n\r\n        IERC721(offer.contractAddress).transferFrom(msg.sender, offer.offerFrom, offer.itemId);\r\n        (bool sent,) = msg.sender.call{value: offer.amount}(\"\");\r\n        require(sent, \"Market: Offer amount has not been sent to the asset owner.\");\r\n\r\n        emit EventOffer (\r\n            _offerId,\r\n            offer.itemId,\r\n            offer.amount,\r\n            offer.expireAt,\r\n            offer.contractAddress,\r\n            offer.offerFrom,\r\n            true,\r\n            TypeOffer.accept\r\n        );\r\n    }\r\n\r\n    function cancelOffer(uint _offerId) external _offerExists(_offerId) {\r\n        Offer storage offer = offers[_offerId];\r\n\r\n        // Can be canceled by the asset owner or the offerer\r\n        require(msg.sender == offer.offerFrom || msg.sender == IERC721(offer.contractAddress).ownerOf(offer.itemId), \"Market: Can be canceled by the asset owner or by the offerer!\");\r\n        \r\n        require(!offer.sold, \"Market: Offer has been settled or has been canceled already!\");\r\n\r\n        offer.sold = true;\r\n        (bool sent, ) = offer.offerFrom.call{value:offer.amount}(\"\");\r\n        require(sent, \"Market: Offer amount not returned to the offerer!\");\r\n\r\n        emit EventOffer (\r\n            _offerId,\r\n            offer.itemId,\r\n            offer.amount,\r\n            offer.expireAt,\r\n            offer.contractAddress,\r\n            offer.offerFrom,\r\n            true,\r\n            TypeOffer.decline\r\n        );\r\n    }\r\n\r\n    // BUY //\r\n    function setBuyPrice(address _contractAddress, uint256 _itemId, uint256 _amount) external _isApproved(_contractAddress, _itemId) returns(uint256) {\r\n        _salesCount.increment();\r\n\r\n        uint256 saleId = _salesCount.current();\r\n\r\n        sales[saleId] = Sale({\r\n            id: saleId,\r\n            itemId: _itemId,\r\n            amount:_amount,\r\n            contractAddress: _contractAddress,\r\n            seller: payable(address(this)),\r\n            sold: false\r\n        });\r\n\r\n        IERC721(_contractAddress).transferFrom(msg.sender, address(this), _itemId);\r\n\r\n        emit EventSale (\r\n            saleId,\r\n            _itemId,\r\n            _amount,\r\n            _contractAddress,\r\n            address(this),\r\n            false,\r\n            TypeSale.create\r\n        );\r\n\r\n        return saleId;\r\n    }\r\n\r\n    function buy(address _contractAddress, uint256 _itemId, uint256 _saleId) external payable _isApproved(_contractAddress, _itemId) _saleExists(_saleId) _saleEnded(_saleId) {\r\n        Sale storage sale = sales[_saleId];\r\n\r\n        require(sale.amount >= msg.value, \"Market: Send the asking price!\");\r\n\r\n        // Change state\r\n        sale.sold = true;\r\n\r\n        IERC721(_contractAddress).transferFrom(sale.seller, msg.sender, _saleId);\r\n        (bool sent, ) = sale.seller.call{value:sale.amount}(\"\");\r\n        require(sent, \"Market: Sale amount not returned to the seller!\");\r\n\r\n        emit EventSale (\r\n            _saleId,\r\n            _itemId,\r\n            sale.amount,\r\n            _contractAddress,\r\n            address(this),\r\n            true,\r\n            TypeSale.accept\r\n        );\r\n    }\r\n\r\n    function updateBuyPrice(uint256 _saleId, uint256 _amount) external _saleExists(_saleId)  _saleEnded(_saleId) {\r\n        Sale storage sale = sales[_saleId];\r\n\r\n        require(msg.sender == sale.seller,\"Market: Only seller can update buy price!\");\r\n\r\n        // Change State\r\n        sale.amount = _amount;\r\n\r\n        emit EventSale (\r\n            _saleId,\r\n            sale.itemId,\r\n            sale.amount,\r\n            sale.contractAddress,\r\n            address(this),\r\n            false,\r\n            TypeSale.update\r\n        );\r\n    }\r\n\r\n    function cancelBuyPrice(uint256 _saleId) external _saleExists(_saleId) _saleEnded(_saleId) {\r\n        Sale storage sale = sales[_saleId];\r\n\r\n        require(msg.sender == sale.seller,\"Market: Only seller can cancel the sale!\");\r\n\r\n        // Change State\r\n        sale.sold = true;\r\n\r\n        IERC721(sale.contractAddress).transferFrom(address(this), msg.sender, sale.itemId);\r\n\r\n        emit EventSale (\r\n            _saleId,\r\n            sale.itemId,\r\n            sale.amount,\r\n            sale.contractAddress,\r\n            address(this),\r\n            true,\r\n            TypeSale.cancel\r\n        );\r\n    }\r\n}",
  "sourcePath": "D:\\nft\\cd\\contracts\\Market.sol",
  "compiler": {
    "name": "solc",
    "version": "0.8.13+commit.abaa5c0e.Emscripten.clang"
  },
  "schemaVersion": "3.4.7",
  "updatedAt": "2022-05-15T08:52:39.301Z",
  "networkType": "ethereum",
  "devdoc": {
    "kind": "dev",
    "methods": {},
    "version": 1
  },
  "userdoc": {
    "kind": "user",
    "methods": {},
    "version": 1
  }
}