{
	"contractName": "Market",
	"abi": [
		{
			"inputs": [],
			"stateMutability": "nonpayable",
			"type": "constructor"
		},
		{
			"inputs": [],
			"name": "ItemNotApproved",
			"type": "error"
		},
		{
			"anonymous": false,
			"inputs": [
				{
					"indexed": false,
					"internalType": "uint256",
					"name": "id",
					"type": "uint256"
				},
				{
					"indexed": true,
					"internalType": "uint256",
					"name": "itemId",
					"type": "uint256"
				},
				{
					"indexed": false,
					"internalType": "uint256",
					"name": "reservePrice",
					"type": "uint256"
				},
				{
					"indexed": false,
					"internalType": "uint256",
					"name": "expireAt",
					"type": "uint256"
				},
				{
					"indexed": false,
					"internalType": "address",
					"name": "previousBidder",
					"type": "address"
				},
				{
					"indexed": false,
					"internalType": "address",
					"name": "currentBidder",
					"type": "address"
				},
				{
					"indexed": false,
					"internalType": "address",
					"name": "seller",
					"type": "address"
				},
				{
					"indexed": true,
					"internalType": "address",
					"name": "contractAddress",
					"type": "address"
				},
				{
					"indexed": false,
					"internalType": "bool",
					"name": "sold",
					"type": "bool"
				},
				{
					"indexed": true,
					"internalType": "enum Market.TypeAuction",
					"name": "eventType",
					"type": "uint8"
				}
			],
			"name": "EventAuction",
			"type": "event"
		},
		{
			"anonymous": false,
			"inputs": [
				{
					"indexed": false,
					"internalType": "uint256",
					"name": "id",
					"type": "uint256"
				},
				{
					"indexed": true,
					"internalType": "uint256",
					"name": "itemId",
					"type": "uint256"
				},
				{
					"indexed": false,
					"internalType": "uint256",
					"name": "amount",
					"type": "uint256"
				},
				{
					"indexed": false,
					"internalType": "uint256",
					"name": "expireAt",
					"type": "uint256"
				},
				{
					"indexed": true,
					"internalType": "address",
					"name": "contractAddress",
					"type": "address"
				},
				{
					"indexed": false,
					"internalType": "address",
					"name": "offerFrom",
					"type": "address"
				},
				{
					"indexed": false,
					"internalType": "bool",
					"name": "sold",
					"type": "bool"
				},
				{
					"indexed": true,
					"internalType": "enum Market.TypeOffer",
					"name": "eventType",
					"type": "uint8"
				}
			],
			"name": "EventOffer",
			"type": "event"
		},
		{
			"anonymous": false,
			"inputs": [
				{
					"indexed": false,
					"internalType": "uint256",
					"name": "id",
					"type": "uint256"
				},
				{
					"indexed": true,
					"internalType": "uint256",
					"name": "itemId",
					"type": "uint256"
				},
				{
					"indexed": false,
					"internalType": "uint256",
					"name": "amount",
					"type": "uint256"
				},
				{
					"indexed": true,
					"internalType": "address",
					"name": "contractAddress",
					"type": "address"
				},
				{
					"indexed": false,
					"internalType": "address",
					"name": "seller",
					"type": "address"
				},
				{
					"indexed": false,
					"internalType": "bool",
					"name": "sold",
					"type": "bool"
				},
				{
					"indexed": true,
					"internalType": "enum Market.TypeSale",
					"name": "eventType",
					"type": "uint8"
				}
			],
			"name": "EventSale",
			"type": "event"
		},
		{
			"anonymous": false,
			"inputs": [
				{
					"indexed": true,
					"internalType": "address",
					"name": "previousOwner",
					"type": "address"
				},
				{
					"indexed": true,
					"internalType": "address",
					"name": "newOwner",
					"type": "address"
				}
			],
			"name": "OwnershipTransferred",
			"type": "event"
		},
		{
			"anonymous": false,
			"inputs": [
				{
					"indexed": false,
					"internalType": "address",
					"name": "account",
					"type": "address"
				}
			],
			"name": "Paused",
			"type": "event"
		},
		{
			"anonymous": false,
			"inputs": [
				{
					"indexed": false,
					"internalType": "address",
					"name": "account",
					"type": "address"
				}
			],
			"name": "Unpaused",
			"type": "event"
		},
		{
			"inputs": [
				{
					"internalType": "uint256",
					"name": "",
					"type": "uint256"
				}
			],
			"name": "auctions",
			"outputs": [
				{
					"internalType": "uint256",
					"name": "id",
					"type": "uint256"
				},
				{
					"internalType": "uint256",
					"name": "itemId",
					"type": "uint256"
				},
				{
					"internalType": "uint256",
					"name": "reservePrice",
					"type": "uint256"
				},
				{
					"internalType": "uint256",
					"name": "expireAt",
					"type": "uint256"
				},
				{
					"internalType": "address",
					"name": "previousBidder",
					"type": "address"
				},
				{
					"internalType": "address",
					"name": "currentBidder",
					"type": "address"
				},
				{
					"internalType": "address",
					"name": "seller",
					"type": "address"
				},
				{
					"internalType": "address",
					"name": "contractAddress",
					"type": "address"
				},
				{
					"internalType": "bool",
					"name": "sold",
					"type": "bool"
				}
			],
			"stateMutability": "view",
			"type": "function",
			"constant": true
		},
		{
			"inputs": [
				{
					"internalType": "uint256",
					"name": "",
					"type": "uint256"
				}
			],
			"name": "offers",
			"outputs": [
				{
					"internalType": "uint256",
					"name": "id",
					"type": "uint256"
				},
				{
					"internalType": "uint256",
					"name": "itemId",
					"type": "uint256"
				},
				{
					"internalType": "uint256",
					"name": "amount",
					"type": "uint256"
				},
				{
					"internalType": "uint256",
					"name": "expireAt",
					"type": "uint256"
				},
				{
					"internalType": "address",
					"name": "contractAddress",
					"type": "address"
				},
				{
					"internalType": "address",
					"name": "offerFrom",
					"type": "address"
				},
				{
					"internalType": "bool",
					"name": "sold",
					"type": "bool"
				}
			],
			"stateMutability": "view",
			"type": "function",
			"constant": true
		},
		{
			"inputs": [],
			"name": "owner",
			"outputs": [
				{
					"internalType": "address",
					"name": "",
					"type": "address"
				}
			],
			"stateMutability": "view",
			"type": "function",
			"constant": true
		},
		{
			"inputs": [],
			"name": "paused",
			"outputs": [
				{
					"internalType": "bool",
					"name": "",
					"type": "bool"
				}
			],
			"stateMutability": "view",
			"type": "function",
			"constant": true
		},
		{
			"inputs": [],
			"name": "renounceOwnership",
			"outputs": [],
			"stateMutability": "nonpayable",
			"type": "function"
		},
		{
			"inputs": [
				{
					"internalType": "uint256",
					"name": "",
					"type": "uint256"
				}
			],
			"name": "sales",
			"outputs": [
				{
					"internalType": "uint256",
					"name": "id",
					"type": "uint256"
				},
				{
					"internalType": "uint256",
					"name": "itemId",
					"type": "uint256"
				},
				{
					"internalType": "uint256",
					"name": "amount",
					"type": "uint256"
				},
				{
					"internalType": "address",
					"name": "contractAddress",
					"type": "address"
				},
				{
					"internalType": "address",
					"name": "seller",
					"type": "address"
				},
				{
					"internalType": "bool",
					"name": "sold",
					"type": "bool"
				}
			],
			"stateMutability": "view",
			"type": "function",
			"constant": true
		},
		{
			"inputs": [
				{
					"internalType": "address",
					"name": "newOwner",
					"type": "address"
				}
			],
			"name": "transferOwnership",
			"outputs": [],
			"stateMutability": "nonpayable",
			"type": "function"
		},
		{
			"inputs": [],
			"name": "pause",
			"outputs": [],
			"stateMutability": "nonpayable",
			"type": "function"
		},
		{
			"inputs": [],
			"name": "unPause",
			"outputs": [],
			"stateMutability": "nonpayable",
			"type": "function"
		},
		{
			"inputs": [
				{
					"internalType": "address",
					"name": "_contractAddress",
					"type": "address"
				},
				{
					"internalType": "uint256",
					"name": "_itemId",
					"type": "uint256"
				},
				{
					"internalType": "address",
					"name": "_to",
					"type": "address"
				}
			],
			"name": "sendTokenTo",
			"outputs": [
				{
					"internalType": "uint256",
					"name": "",
					"type": "uint256"
				}
			],
			"stateMutability": "nonpayable",
			"type": "function"
		},
		{
			"inputs": [
				{
					"internalType": "address",
					"name": "_to",
					"type": "address"
				},
				{
					"internalType": "uint256",
					"name": "_amount",
					"type": "uint256"
				}
			],
			"name": "transferTo",
			"outputs": [],
			"stateMutability": "nonpayable",
			"type": "function"
		},
		{
			"inputs": [
				{
					"internalType": "address",
					"name": "_contractAddress",
					"type": "address"
				},
				{
					"internalType": "uint256",
					"name": "_itemId",
					"type": "uint256"
				},
				{
					"internalType": "uint256",
					"name": "_reservePrice",
					"type": "uint256"
				}
			],
			"name": "createReserveAuction",
			"outputs": [
				{
					"internalType": "uint256",
					"name": "",
					"type": "uint256"
				}
			],
			"stateMutability": "nonpayable",
			"type": "function"
		},
		{
			"inputs": [
				{
					"internalType": "uint256",
					"name": "_auctionId",
					"type": "uint256"
				}
			],
			"name": "placeBid",
			"outputs": [
				{
					"internalType": "uint256",
					"name": "",
					"type": "uint256"
				}
			],
			"stateMutability": "payable",
			"type": "function",
			"payable": true
		},
		{
			"inputs": [
				{
					"internalType": "uint256",
					"name": "_auctionId",
					"type": "uint256"
				}
			],
			"name": "settleAuction",
			"outputs": [
				{
					"internalType": "uint256",
					"name": "",
					"type": "uint256"
				}
			],
			"stateMutability": "nonpayable",
			"type": "function"
		},
		{
			"inputs": [
				{
					"internalType": "uint256",
					"name": "_auctionId",
					"type": "uint256"
				},
				{
					"internalType": "uint256",
					"name": "_reservePrice",
					"type": "uint256"
				}
			],
			"name": "updateReservePrice",
			"outputs": [],
			"stateMutability": "nonpayable",
			"type": "function"
		},
		{
			"inputs": [
				{
					"internalType": "uint256",
					"name": "_auctionId",
					"type": "uint256"
				}
			],
			"name": "cancelReserveAuction",
			"outputs": [],
			"stateMutability": "nonpayable",
			"type": "function"
		},
		{
			"inputs": [
				{
					"internalType": "address",
					"name": "_contractAddress",
					"type": "address"
				},
				{
					"internalType": "uint256",
					"name": "_itemId",
					"type": "uint256"
				},
				{
					"internalType": "uint256",
					"name": "_amount",
					"type": "uint256"
				}
			],
			"name": "makeOffer",
			"outputs": [
				{
					"internalType": "uint256",
					"name": "",
					"type": "uint256"
				}
			],
			"stateMutability": "payable",
			"type": "function",
			"payable": true
		},
		{
			"inputs": [
				{
					"internalType": "uint256",
					"name": "_offerId",
					"type": "uint256"
				}
			],
			"name": "acceptOffer",
			"outputs": [],
			"stateMutability": "nonpayable",
			"type": "function"
		},
		{
			"inputs": [
				{
					"internalType": "uint256",
					"name": "_offerId",
					"type": "uint256"
				}
			],
			"name": "cancelOffer",
			"outputs": [],
			"stateMutability": "nonpayable",
			"type": "function"
		},
		{
			"inputs": [
				{
					"internalType": "address",
					"name": "_contractAddress",
					"type": "address"
				},
				{
					"internalType": "uint256",
					"name": "_itemId",
					"type": "uint256"
				},
				{
					"internalType": "uint256",
					"name": "_amount",
					"type": "uint256"
				}
			],
			"name": "setBuyPrice",
			"outputs": [
				{
					"internalType": "uint256",
					"name": "",
					"type": "uint256"
				}
			],
			"stateMutability": "nonpayable",
			"type": "function"
		},
		{
			"inputs": [
				{
					"internalType": "address",
					"name": "_contractAddress",
					"type": "address"
				},
				{
					"internalType": "uint256",
					"name": "_itemId",
					"type": "uint256"
				},
				{
					"internalType": "uint256",
					"name": "_saleId",
					"type": "uint256"
				}
			],
			"name": "buy",
			"outputs": [],
			"stateMutability": "payable",
			"type": "function",
			"payable": true
		},
		{
			"inputs": [
				{
					"internalType": "uint256",
					"name": "_saleId",
					"type": "uint256"
				},
				{
					"internalType": "uint256",
					"name": "_amount",
					"type": "uint256"
				}
			],
			"name": "updateBuyPrice",
			"outputs": [],
			"stateMutability": "nonpayable",
			"type": "function"
		},
		{
			"inputs": [
				{
					"internalType": "uint256",
					"name": "_saleId",
					"type": "uint256"
				}
			],
			"name": "cancelBuyPrice",
			"outputs": [],
			"stateMutability": "nonpayable",
			"type": "function"
		}
	],
	"bytecode": "0x60806040523480156200001157600080fd5b5060016000819055506000600160006101000a81548160ff02191690831515021790555062000055620000496200005b60201b60201c565b6200006360201b60201c565b62000126565b600033905090565b600060018054906101000a900473ffffffffffffffffffffffffffffffffffffffff169050816001806101000a81548173ffffffffffffffffffffffffffffffffffffffff021916908373ffffffffffffffffffffffffffffffffffffffff1602179055508173ffffffffffffffffffffffffffffffffffffffff168173ffffffffffffffffffffffffffffffffffffffff167f8be0079c531659141344cd1fd0a4f28419497f9722a3daafe3b4186f6b6457e060405160405180910390a35050565b61556780620001366000396000f3fe6080604052600436106101405760003560e01c80638456cb59116100b6578063b62deb651161006f578063b62deb651461047e578063c815729d146104a7578063cfbf4ee9146104d0578063ef706adf146104f9578063f2fde38b14610522578063f7b188a51461054b57610140565b80638456cb591461036b5780638a72ea6a146103825780638da5cb5b146103c55780639979ef45146103f0578063a59ac6dd14610420578063b5f522f71461043c57610140565b80634ce6931a116101085780634ce6931a1461023a578063571a26a0146102775780635c975abb146102bc578063715018a6146102e7578063798bac8d146102fe5780637de3bd071461033b57610140565b806321506fff146101455780632ccb1b301461016e5780632e993611146101975780633762c8c1146101d45780633892739414610211575b600080fd5b34801561015157600080fd5b5061016c60048036038101906101679190613f3b565b610562565b005b34801561017a57600080fd5b5061019560048036038101906101909190613e55565b61092f565b005b3480156101a357600080fd5b506101be60048036038101906101b99190613f3b565b610afa565b6040516101cb91906148da565b60405180910390f35b3480156101e057600080fd5b506101fb60048036038101906101f69190613e95565b610ffc565b60405161020891906148da565b60405180910390f35b34801561021d57600080fd5b5061023860048036038101906102339190613f68565b6110f3565b005b34801561024657600080fd5b50610261600480360381019061025c9190613ee8565b6113ef565b60405161026e91906148da565b60405180910390f35b34801561028357600080fd5b5061029e60048036038101906102999190613f3b565b611720565b6040516102b399989796959493929190614a5d565b60405180910390f35b3480156102c857600080fd5b506102d16117fb565b6040516102de91906144bf565b60405180910390f35b3480156102f357600080fd5b506102fc611812565b005b34801561030a57600080fd5b5061032560048036038101906103209190613ee8565b61189a565b60405161033291906148da565b60405180910390f35b61035560048036038101906103509190613ee8565b611c89565b60405161036291906148da565b60405180910390f35b34801561037757600080fd5b50610380611f07565b005b34801561038e57600080fd5b506103a960048036038101906103a49190613f3b565b611f8d565b6040516103bc9796959493929190614aea565b60405180910390f35b3480156103d157600080fd5b506103da61201c565b6040516103e7919061446d565b60405180910390f35b61040a60048036038101906104059190613f3b565b612044565b60405161041791906148da565b60405180910390f35b61043a60048036038101906104359190613ee8565b612422565b005b34801561044857600080fd5b50610463600480360381019061045e9190613f3b565b612a6b565b604051610475969594939291906149a9565b60405180910390f35b34801561048a57600080fd5b506104a560048036038101906104a09190613f3b565b612af4565b005b3480156104b357600080fd5b506104ce60048036038101906104c99190613f3b565b612eab565b005b3480156104dc57600080fd5b506104f760048036038101906104f29190613f68565b6133a9565b005b34801561050557600080fd5b50610520600480360381019061051b9190613f3b565b6136b7565b005b34801561052e57600080fd5b5061054960048036038101906105449190613dfb565b613a0b565b005b34801561055757600080fd5b50610560613b03565b005b8061056d6002613b89565b8111156105af576040517f08c379a00000000000000000000000000000000000000000000000000000000081526004016105a69061465a565b60405180910390fd5b60006005600084815260200190815260200160002090508060060160009054906101000a900473ffffffffffffffffffffffffffffffffffffffff1673ffffffffffffffffffffffffffffffffffffffff163373ffffffffffffffffffffffffffffffffffffffff1614610658576040517f08c379a000000000000000000000000000000000000000000000000000000000815260040161064f9061457a565b60405180910390fd5b600073ffffffffffffffffffffffffffffffffffffffff168160050160009054906101000a900473ffffffffffffffffffffffffffffffffffffffff1673ffffffffffffffffffffffffffffffffffffffff161480156107085750600073ffffffffffffffffffffffffffffffffffffffff168160040160009054906101000a900473ffffffffffffffffffffffffffffffffffffffff1673ffffffffffffffffffffffffffffffffffffffff16145b610747576040517f08c379a000000000000000000000000000000000000000000000000000000000815260040161073e9061461a565b60405180910390fd5b8060070160009054906101000a900473ffffffffffffffffffffffffffffffffffffffff1673ffffffffffffffffffffffffffffffffffffffff166323b872dd308360060160009054906101000a900473ffffffffffffffffffffffffffffffffffffffff1684600101546040518463ffffffff1660e01b81526004016107d093929190614488565b600060405180830381600087803b1580156107ea57600080fd5b505af11580156107fe573d6000803e3d6000fd5b5050505060018160070160146101000a81548160ff02191690831515021790555060038081111561083257610831614c42565b5b8160070160009054906101000a900473ffffffffffffffffffffffffffffffffffffffff1673ffffffffffffffffffffffffffffffffffffffff1682600101547f88e98201e0ee31d381fbbafcc13f7a5a0a8e8203bf21a2eb739fa2388ac8720786856002015486600301548760040160009054906101000a900473ffffffffffffffffffffffffffffffffffffffff168860050160009054906101000a900473ffffffffffffffffffffffffffffffffffffffff168960060160009054906101000a900473ffffffffffffffffffffffffffffffffffffffff166001604051610922979695949392919061493a565b60405180910390a4505050565b610937613b97565b73ffffffffffffffffffffffffffffffffffffffff1661095561201c565b73ffffffffffffffffffffffffffffffffffffffff16146109ab576040517f08c379a00000000000000000000000000000000000000000000000000000000081526004016109a2906146da565b60405180910390fd5b600260005414156109f1576040517f08c379a00000000000000000000000000000000000000000000000000000000081526004016109e89061483a565b60405180910390fd5b6002600081905550610a016117fb565b15610a41576040517f08c379a0000000000000000000000000000000000000000000000000000000008152600401610a389061467a565b60405180910390fd5b60008273ffffffffffffffffffffffffffffffffffffffff1682604051610a6790614458565b60006040518083038185875af1925050503d8060008114610aa4576040519150601f19603f3d011682016040523d82523d6000602084013e610aa9565b606091505b5050905080610aed576040517f08c379a0000000000000000000000000000000000000000000000000000000008152600401610ae49061487a565b60405180910390fd5b5060016000819055505050565b600081610b076002613b89565b811115610b49576040517f08c379a0000000000000000000000000000000000000000000000000000000008152600401610b409061465a565b60405180910390fd5b60026000541415610b8f576040517f08c379a0000000000000000000000000000000000000000000000000000000008152600401610b869061483a565b60405180910390fd5b600260008190555060006005600085815260200190815260200160002090508060060160009054906101000a900473ffffffffffffffffffffffffffffffffffffffff1673ffffffffffffffffffffffffffffffffffffffff163373ffffffffffffffffffffffffffffffffffffffff161480610c5b57508060050160009054906101000a900473ffffffffffffffffffffffffffffffffffffffff1673ffffffffffffffffffffffffffffffffffffffff163373ffffffffffffffffffffffffffffffffffffffff16145b610c9a576040517f08c379a0000000000000000000000000000000000000000000000000000000008152600401610c919061479a565b60405180910390fd5b80600301544211610ce0576040517f08c379a0000000000000000000000000000000000000000000000000000000008152600401610cd79061473a565b60405180910390fd5b8060070160149054906101000a900460ff1615610d32576040517f08c379a0000000000000000000000000000000000000000000000000000000008152600401610d299061475a565b60405180910390fd5b60018160070160146101000a81548160ff0219169083151502179055508060070160009054906101000a900473ffffffffffffffffffffffffffffffffffffffff1673ffffffffffffffffffffffffffffffffffffffff166323b872dd308360050160009054906101000a900473ffffffffffffffffffffffffffffffffffffffff1684600101546040518463ffffffff1660e01b8152600401610dd893929190614488565b600060405180830381600087803b158015610df257600080fd5b505af1158015610e06573d6000803e3d6000fd5b5050505060008160060160009054906101000a900473ffffffffffffffffffffffffffffffffffffffff1673ffffffffffffffffffffffffffffffffffffffff168260020154604051610e5890614458565b60006040518083038185875af1925050503d8060008114610e95576040519150601f19603f3d011682016040523d82523d6000602084013e610e9a565b606091505b5050905080610ede576040517f08c379a0000000000000000000000000000000000000000000000000000000008152600401610ed5906146ba565b60405180910390fd5b600380811115610ef157610ef0614c42565b5b8260070160009054906101000a900473ffffffffffffffffffffffffffffffffffffffff1673ffffffffffffffffffffffffffffffffffffffff1683600101547f88e98201e0ee31d381fbbafcc13f7a5a0a8e8203bf21a2eb739fa2388ac8720788866002015487600301548860040160009054906101000a900473ffffffffffffffffffffffffffffffffffffffff168960050160009054906101000a900473ffffffffffffffffffffffffffffffffffffffff168a60060160009054906101000a900473ffffffffffffffffffffffffffffffffffffffff166001604051610fe1979695949392919061493a565b60405180910390a48493505050600160008190555050919050565b6000611006613b97565b73ffffffffffffffffffffffffffffffffffffffff1661102461201c565b73ffffffffffffffffffffffffffffffffffffffff161461107a576040517f08c379a0000000000000000000000000000000000000000000000000000000008152600401611071906146da565b60405180910390fd5b8373ffffffffffffffffffffffffffffffffffffffff166323b872dd3084866040518463ffffffff1660e01b81526004016110b793929190614488565b600060405180830381600087803b1580156110d157600080fd5b505af11580156110e5573d6000803e3d6000fd5b505050508290509392505050565b816110fe6002613b89565b811115611140576040517f08c379a00000000000000000000000000000000000000000000000000000000081526004016111379061465a565b60405180910390fd5b60006005600085815260200190815260200160002090508060060160009054906101000a900473ffffffffffffffffffffffffffffffffffffffff1673ffffffffffffffffffffffffffffffffffffffff163373ffffffffffffffffffffffffffffffffffffffff16146111e9576040517f08c379a00000000000000000000000000000000000000000000000000000000081526004016111e09061469a565b60405180910390fd5b600073ffffffffffffffffffffffffffffffffffffffff168160050160009054906101000a900473ffffffffffffffffffffffffffffffffffffffff1673ffffffffffffffffffffffffffffffffffffffff161480156112995750600073ffffffffffffffffffffffffffffffffffffffff168160040160009054906101000a900473ffffffffffffffffffffffffffffffffffffffff1673ffffffffffffffffffffffffffffffffffffffff16145b6112d8576040517f08c379a00000000000000000000000000000000000000000000000000000000081526004016112cf9061461a565b60405180910390fd5b828160020181905550600160038111156112f5576112f4614c42565b5b8160070160009054906101000a900473ffffffffffffffffffffffffffffffffffffffff1673ffffffffffffffffffffffffffffffffffffffff1682600101547f88e98201e0ee31d381fbbafcc13f7a5a0a8e8203bf21a2eb739fa2388ac87207878786600301548760040160009054906101000a900473ffffffffffffffffffffffffffffffffffffffff168860050160009054906101000a900473ffffffffffffffffffffffffffffffffffffffff168960060160009054906101000a900473ffffffffffffffffffffffffffffffffffffffff1660006040516113e1979695949392919061493a565b60405180910390a450505050565b60006113fb6002613b9f565b60006114076002613b89565b90508473ffffffffffffffffffffffffffffffffffffffff166323b872dd3330876040518463ffffffff1660e01b815260040161144693929190614488565b600060405180830381600087803b15801561146057600080fd5b505af1158015611474573d6000803e3d6000fd5b50505050600062015180426114899190614b75565b9050604051806101200160405280838152602001868152602001858152602001828152602001600073ffffffffffffffffffffffffffffffffffffffff168152602001600073ffffffffffffffffffffffffffffffffffffffff1681526020013373ffffffffffffffffffffffffffffffffffffffff1681526020018773ffffffffffffffffffffffffffffffffffffffff16815260200160001515815250600560008481526020019081526020016000206000820151816000015560208201518160010155604082015181600201556060820151816003015560808201518160040160006101000a81548173ffffffffffffffffffffffffffffffffffffffff021916908373ffffffffffffffffffffffffffffffffffffffff16021790555060a08201518160050160006101000a81548173ffffffffffffffffffffffffffffffffffffffff021916908373ffffffffffffffffffffffffffffffffffffffff16021790555060c08201518160060160006101000a81548173ffffffffffffffffffffffffffffffffffffffff021916908373ffffffffffffffffffffffffffffffffffffffff16021790555060e08201518160070160006101000a81548173ffffffffffffffffffffffffffffffffffffffff021916908373ffffffffffffffffffffffffffffffffffffffff1602179055506101008201518160070160146101000a81548160ff021916908315150217905550905050600060038111156116b7576116b6614c42565b5b8673ffffffffffffffffffffffffffffffffffffffff16867f88e98201e0ee31d381fbbafcc13f7a5a0a8e8203bf21a2eb739fa2388ac8720785888660008033600060405161170c979695949392919061493a565b60405180910390a481925050509392505050565b60056020528060005260406000206000915090508060000154908060010154908060020154908060030154908060040160009054906101000a900473ffffffffffffffffffffffffffffffffffffffff16908060050160009054906101000a900473ffffffffffffffffffffffffffffffffffffffff16908060060160009054906101000a900473ffffffffffffffffffffffffffffffffffffffff16908060070160009054906101000a900473ffffffffffffffffffffffffffffffffffffffff16908060070160149054906101000a900460ff16905089565b6000600160009054906101000a900460ff16905090565b61181a613b97565b73ffffffffffffffffffffffffffffffffffffffff1661183861201c565b73ffffffffffffffffffffffffffffffffffffffff161461188e576040517f08c379a0000000000000000000000000000000000000000000000000000000008152600401611885906146da565b60405180910390fd5b6118986000613bb5565b565b600083833073ffffffffffffffffffffffffffffffffffffffff168273ffffffffffffffffffffffffffffffffffffffff1663081812fc836040518263ffffffff1660e01b81526004016118ee91906148da565b60206040518083038186803b15801561190657600080fd5b505afa15801561191a573d6000803e3d6000fd5b505050506040513d601f19601f8201168201806040525081019061193e9190613e28565b73ffffffffffffffffffffffffffffffffffffffff1614158015611a1657503073ffffffffffffffffffffffffffffffffffffffff168273ffffffffffffffffffffffffffffffffffffffff16636352211e836040518263ffffffff1660e01b81526004016119ad91906148da565b60206040518083038186803b1580156119c557600080fd5b505afa1580156119d9573d6000803e3d6000fd5b505050506040513d601f19601f820116820180604052508101906119fd9190613e28565b73ffffffffffffffffffffffffffffffffffffffff1614155b15611a4d576040517ff826f86200000000000000000000000000000000000000000000000000000000815260040160405180910390fd5b611a576004613b9f565b6000611a636004613b89565b90506040518060c001604052808281526020018781526020018681526020018873ffffffffffffffffffffffffffffffffffffffff1681526020013373ffffffffffffffffffffffffffffffffffffffff168152602001600015158152506007600083815260200190815260200160002060008201518160000155602082015181600101556040820151816002015560608201518160030160006101000a81548173ffffffffffffffffffffffffffffffffffffffff021916908373ffffffffffffffffffffffffffffffffffffffff16021790555060808201518160040160006101000a81548173ffffffffffffffffffffffffffffffffffffffff021916908373ffffffffffffffffffffffffffffffffffffffff16021790555060a08201518160040160146101000a81548160ff0219169083151502179055509050508673ffffffffffffffffffffffffffffffffffffffff166323b872dd3330896040518463ffffffff1660e01b8152600401611be093929190614488565b600060405180830381600087803b158015611bfa57600080fd5b505af1158015611c0e573d6000803e3d6000fd5b5050505060006003811115611c2657611c25614c42565b5b8773ffffffffffffffffffffffffffffffffffffffff16877f0cd43fd9c12c0b040dc330b451adcefd47851dfa029dec57f23f570054ef46888489336000604051611c7494939291906148f5565b60405180910390a48093505050509392505050565b6000611c936117fb565b15611cd3576040517f08c379a0000000000000000000000000000000000000000000000000000000008152600401611cca9061467a565b60405180910390fd5b81341015611d16576040517f08c379a0000000000000000000000000000000000000000000000000000000008152600401611d0d906148ba565b60405180910390fd5b611d206003613b9f565b6000611d2c6003613b89565b905060006201518042611d3f9190614b75565b90506040518060e001604052808381526020018681526020018581526020018281526020018773ffffffffffffffffffffffffffffffffffffffff1681526020013373ffffffffffffffffffffffffffffffffffffffff16815260200160001515815250600660008481526020019081526020016000206000820151816000015560208201518160010155604082015181600201556060820151816003015560808201518160040160006101000a81548173ffffffffffffffffffffffffffffffffffffffff021916908373ffffffffffffffffffffffffffffffffffffffff16021790555060a08201518160050160006101000a81548173ffffffffffffffffffffffffffffffffffffffff021916908373ffffffffffffffffffffffffffffffffffffffff16021790555060c08201518160050160146101000a81548160ff02191690831515021790555090505060006002811115611ea357611ea2614c42565b5b8673ffffffffffffffffffffffffffffffffffffffff16867f3d44ddf83a852335fb93dea137ad2410905452f00c66ea62151f153d0a11ae5e858886336000604051611ef3959493929190614a0a565b60405180910390a481925050509392505050565b611f0f613b97565b73ffffffffffffffffffffffffffffffffffffffff16611f2d61201c565b73ffffffffffffffffffffffffffffffffffffffff1614611f83576040517f08c379a0000000000000000000000000000000000000000000000000000000008152600401611f7a906146da565b60405180910390fd5b611f8b613c78565b565b60066020528060005260406000206000915090508060000154908060010154908060020154908060030154908060040160009054906101000a900473ffffffffffffffffffffffffffffffffffffffff16908060050160009054906101000a900473ffffffffffffffffffffffffffffffffffffffff16908060050160149054906101000a900460ff16905087565b600060018054906101000a900473ffffffffffffffffffffffffffffffffffffffff16905090565b6000816120516002613b89565b811115612093576040517f08c379a000000000000000000000000000000000000000000000000000000000815260040161208a9061465a565b60405180910390fd5b600260005414156120d9576040517f08c379a00000000000000000000000000000000000000000000000000000000081526004016120d09061483a565b60405180910390fd5b60026000819055506120e96117fb565b15612129576040517f08c379a00000000000000000000000000000000000000000000000000000000081526004016121209061467a565b60405180910390fd5b60006005600085815260200190815260200160002090508060030154421115612187576040517f08c379a000000000000000000000000000000000000000000000000000000000815260040161217e9061455a565b60405180910390fd5b8060070160149054906101000a900460ff16156121d9576040517f08c379a00000000000000000000000000000000000000000000000000000000081526004016121d0906144fa565b60405180910390fd5b8060020154341161221f576040517f08c379a0000000000000000000000000000000000000000000000000000000008152600401612216906147ba565b60405180910390fd5b60008160050160009054906101000a900473ffffffffffffffffffffffffffffffffffffffff169050338260050160006101000a81548173ffffffffffffffffffffffffffffffffffffffff021916908373ffffffffffffffffffffffffffffffffffffffff160217905550808260040160006101000a81548173ffffffffffffffffffffffffffffffffffffffff021916908373ffffffffffffffffffffffffffffffffffffffff160217905550600082600201549050348360020181905550600073ffffffffffffffffffffffffffffffffffffffff168360040160009054906101000a900473ffffffffffffffffffffffffffffffffffffffff1673ffffffffffffffffffffffffffffffffffffffff161461240a5760008360040160009054906101000a900473ffffffffffffffffffffffffffffffffffffffff1673ffffffffffffffffffffffffffffffffffffffff168260405161238290614458565b60006040518083038185875af1925050503d80600081146123bf576040519150601f19603f3d011682016040523d82523d6000602084013e6123c4565b606091505b5050905080612408576040517f08c379a00000000000000000000000000000000000000000000000000000000081526004016123ff9061463a565b60405180910390fd5b505b82600001549450505050600160008190555050919050565b61242a6117fb565b1561246a576040517f08c379a00000000000000000000000000000000000000000000000000000000081526004016124619061467a565b60405180910390fd5b600260005414156124b0576040517f08c379a00000000000000000000000000000000000000000000000000000000081526004016124a79061483a565b60405180910390fd5b600260008190555082823073ffffffffffffffffffffffffffffffffffffffff168273ffffffffffffffffffffffffffffffffffffffff1663081812fc836040518263ffffffff1660e01b815260040161250a91906148da565b60206040518083038186803b15801561252257600080fd5b505afa158015612536573d6000803e3d6000fd5b505050506040513d601f19601f8201168201806040525081019061255a9190613e28565b73ffffffffffffffffffffffffffffffffffffffff161415801561263257503073ffffffffffffffffffffffffffffffffffffffff168273ffffffffffffffffffffffffffffffffffffffff16636352211e836040518263ffffffff1660e01b81526004016125c991906148da565b60206040518083038186803b1580156125e157600080fd5b505afa1580156125f5573d6000803e3d6000fd5b505050506040513d601f19601f820116820180604052508101906126199190613e28565b73ffffffffffffffffffffffffffffffffffffffff1614155b15612669576040517ff826f86200000000000000000000000000000000000000000000000000000000815260040160405180910390fd5b826126746004613b89565b8111156126b6576040517f08c379a00000000000000000000000000000000000000000000000000000000081526004016126ad9061471a565b60405180910390fd5b836000600760008381526020019081526020016000206040518060c00160405290816000820154815260200160018201548152602001600282015481526020016003820160009054906101000a900473ffffffffffffffffffffffffffffffffffffffff1673ffffffffffffffffffffffffffffffffffffffff1673ffffffffffffffffffffffffffffffffffffffff1681526020016004820160009054906101000a900473ffffffffffffffffffffffffffffffffffffffff1673ffffffffffffffffffffffffffffffffffffffff1673ffffffffffffffffffffffffffffffffffffffff1681526020016004820160149054906101000a900460ff16151515158152505090508060a0015115612803576040517f08c379a00000000000000000000000000000000000000000000000000000000081526004016127fa9061489a565b60405180910390fd5b60006007600088815260200190815260200160002090508060020154341015612861576040517f08c379a0000000000000000000000000000000000000000000000000000000008152600401612858906144da565b60405180910390fd5b60018160040160146101000a81548160ff0219169083151502179055508873ffffffffffffffffffffffffffffffffffffffff166323b872dd303384600101546040518463ffffffff1660e01b81526004016128bf93929190614488565b600060405180830381600087803b1580156128d957600080fd5b505af11580156128ed573d6000803e3d6000fd5b5050505060008160040160009054906101000a900473ffffffffffffffffffffffffffffffffffffffff1673ffffffffffffffffffffffffffffffffffffffff16826002015460405161293f90614458565b60006040518083038185875af1925050503d806000811461297c576040519150601f19603f3d011682016040523d82523d6000602084013e612981565b606091505b50509050806129c5576040517f08c379a00000000000000000000000000000000000000000000000000000000081526004016129bc906147da565b60405180910390fd5b600160038111156129d9576129d8614c42565b5b8a73ffffffffffffffffffffffffffffffffffffffff168a7f0cd43fd9c12c0b040dc330b451adcefd47851dfa029dec57f23f570054ef46888b86600201548760040160009054906101000a900473ffffffffffffffffffffffffffffffffffffffff166001604051612a4f94939291906148f5565b60405180910390a4505050505050506001600081905550505050565b60076020528060005260406000206000915090508060000154908060010154908060020154908060030160009054906101000a900473ffffffffffffffffffffffffffffffffffffffff16908060040160009054906101000a900473ffffffffffffffffffffffffffffffffffffffff16908060040160149054906101000a900460ff16905086565b80612aff6004613b89565b811115612b41576040517f08c379a0000000000000000000000000000000000000000000000000000000008152600401612b389061471a565b60405180910390fd5b816000600760008381526020019081526020016000206040518060c00160405290816000820154815260200160018201548152602001600282015481526020016003820160009054906101000a900473ffffffffffffffffffffffffffffffffffffffff1673ffffffffffffffffffffffffffffffffffffffff1673ffffffffffffffffffffffffffffffffffffffff1681526020016004820160009054906101000a900473ffffffffffffffffffffffffffffffffffffffff1673ffffffffffffffffffffffffffffffffffffffff1673ffffffffffffffffffffffffffffffffffffffff1681526020016004820160149054906101000a900460ff16151515158152505090508060a0015115612c8e576040517f08c379a0000000000000000000000000000000000000000000000000000000008152600401612c859061489a565b60405180910390fd5b60006007600086815260200190815260200160002090508060040160009054906101000a900473ffffffffffffffffffffffffffffffffffffffff1673ffffffffffffffffffffffffffffffffffffffff163373ffffffffffffffffffffffffffffffffffffffff1614612d37576040517f08c379a0000000000000000000000000000000000000000000000000000000008152600401612d2e906146fa565b60405180910390fd5b60018160040160146101000a81548160ff0219169083151502179055508060030160009054906101000a900473ffffffffffffffffffffffffffffffffffffffff1673ffffffffffffffffffffffffffffffffffffffff166323b872dd303384600101546040518463ffffffff1660e01b8152600401612db993929190614488565b600060405180830381600087803b158015612dd357600080fd5b505af1158015612de7573d6000803e3d6000fd5b50505050600380811115612dfe57612dfd614c42565b5b8160030160009054906101000a900473ffffffffffffffffffffffffffffffffffffffff1673ffffffffffffffffffffffffffffffffffffffff1682600101547f0cd43fd9c12c0b040dc330b451adcefd47851dfa029dec57f23f570054ef46888885600201548660040160009054906101000a900473ffffffffffffffffffffffffffffffffffffffff166001604051612e9c94939291906148f5565b60405180910390a45050505050565b60026000541415612ef1576040517f08c379a0000000000000000000000000000000000000000000000000000000008152600401612ee89061483a565b60405180910390fd5b6002600081905550612f016117fb565b15612f41576040517f08c379a0000000000000000000000000000000000000000000000000000000008152600401612f389061467a565b60405180910390fd5b80612f4c6003613b89565b811115612f8e576040517f08c379a0000000000000000000000000000000000000000000000000000000008152600401612f859061453a565b60405180910390fd5b60006006600084815260200190815260200160002090508060030154421115612fec576040517f08c379a0000000000000000000000000000000000000000000000000000000008152600401612fe39061481a565b60405180910390fd5b8060050160149054906101000a900460ff161561303e576040517f08c379a00000000000000000000000000000000000000000000000000000000081526004016130359061477a565b60405180910390fd5b3073ffffffffffffffffffffffffffffffffffffffff168160040160009054906101000a900473ffffffffffffffffffffffffffffffffffffffff1673ffffffffffffffffffffffffffffffffffffffff1663081812fc83600101546040518263ffffffff1660e01b81526004016130b691906148da565b60206040518083038186803b1580156130ce57600080fd5b505afa1580156130e2573d6000803e3d6000fd5b505050506040513d601f19601f820116820180604052508101906131069190613e28565b73ffffffffffffffffffffffffffffffffffffffff1614613153576040517ff826f86200000000000000000000000000000000000000000000000000000000815260040160405180910390fd5b60018160050160146101000a81548160ff0219169083151502179055508060040160009054906101000a900473ffffffffffffffffffffffffffffffffffffffff1673ffffffffffffffffffffffffffffffffffffffff166323b872dd338360050160009054906101000a900473ffffffffffffffffffffffffffffffffffffffff1684600101546040518463ffffffff1660e01b81526004016131f993929190614488565b600060405180830381600087803b15801561321357600080fd5b505af1158015613227573d6000803e3d6000fd5b5050505060003373ffffffffffffffffffffffffffffffffffffffff16826002015460405161325590614458565b60006040518083038185875af1925050503d8060008114613292576040519150601f19603f3d011682016040523d82523d6000602084013e613297565b606091505b50509050806132db576040517f08c379a00000000000000000000000000000000000000000000000000000000081526004016132d2906145ba565b60405180910390fd5b600160028111156132ef576132ee614c42565b5b8260040160009054906101000a900473ffffffffffffffffffffffffffffffffffffffff1673ffffffffffffffffffffffffffffffffffffffff1683600101547f3d44ddf83a852335fb93dea137ad2410905452f00c66ea62151f153d0a11ae5e87866002015487600301548860050160009054906101000a900473ffffffffffffffffffffffffffffffffffffffff166001604051613393959493929190614a0a565b60405180910390a4505050600160008190555050565b816133b46004613b89565b8111156133f6576040517f08c379a00000000000000000000000000000000000000000000000000000000081526004016133ed9061471a565b60405180910390fd5b826000600760008381526020019081526020016000206040518060c00160405290816000820154815260200160018201548152602001600282015481526020016003820160009054906101000a900473ffffffffffffffffffffffffffffffffffffffff1673ffffffffffffffffffffffffffffffffffffffff1673ffffffffffffffffffffffffffffffffffffffff1681526020016004820160009054906101000a900473ffffffffffffffffffffffffffffffffffffffff1673ffffffffffffffffffffffffffffffffffffffff1673ffffffffffffffffffffffffffffffffffffffff1681526020016004820160149054906101000a900460ff16151515158152505090508060a0015115613543576040517f08c379a000000000000000000000000000000000000000000000000000000000815260040161353a9061489a565b60405180910390fd5b60006007600087815260200190815260200160002090508060040160009054906101000a900473ffffffffffffffffffffffffffffffffffffffff1673ffffffffffffffffffffffffffffffffffffffff163373ffffffffffffffffffffffffffffffffffffffff16146135ec576040517f08c379a00000000000000000000000000000000000000000000000000000000081526004016135e39061485a565b60405180910390fd5b8481600201819055506002600381111561360957613608614c42565b5b8160030160009054906101000a900473ffffffffffffffffffffffffffffffffffffffff1673ffffffffffffffffffffffffffffffffffffffff1682600101547f0cd43fd9c12c0b040dc330b451adcefd47851dfa029dec57f23f570054ef46888985600201548660040160009054906101000a900473ffffffffffffffffffffffffffffffffffffffff1660006040516136a794939291906148f5565b60405180910390a4505050505050565b600260005414156136fd576040517f08c379a00000000000000000000000000000000000000000000000000000000081526004016136f49061483a565b60405180910390fd5b6002600081905550806137106003613b89565b811115613752576040517f08c379a00000000000000000000000000000000000000000000000000000000081526004016137499061453a565b60405180910390fd5b60006006600084815260200190815260200160002090508060050160009054906101000a900473ffffffffffffffffffffffffffffffffffffffff1673ffffffffffffffffffffffffffffffffffffffff163373ffffffffffffffffffffffffffffffffffffffff16146137fb576040517f08c379a00000000000000000000000000000000000000000000000000000000081526004016137f2906147fa565b60405180910390fd5b8060050160149054906101000a900460ff161561384d576040517f08c379a0000000000000000000000000000000000000000000000000000000008152600401613844906145da565b60405180910390fd5b60018160050160146101000a81548160ff02191690831515021790555060008160050160009054906101000a900473ffffffffffffffffffffffffffffffffffffffff1673ffffffffffffffffffffffffffffffffffffffff1682600201546040516138b890614458565b60006040518083038185875af1925050503d80600081146138f5576040519150601f19603f3d011682016040523d82523d6000602084013e6138fa565b606091505b505090508061393e576040517f08c379a0000000000000000000000000000000000000000000000000000000008152600401613935906145fa565b60405180910390fd5b60028081111561395157613950614c42565b5b8260040160009054906101000a900473ffffffffffffffffffffffffffffffffffffffff1673ffffffffffffffffffffffffffffffffffffffff1683600101547f3d44ddf83a852335fb93dea137ad2410905452f00c66ea62151f153d0a11ae5e87866002015487600301548860050160009054906101000a900473ffffffffffffffffffffffffffffffffffffffff1660016040516139f5959493929190614a0a565b60405180910390a4505050600160008190555050565b613a13613b97565b73ffffffffffffffffffffffffffffffffffffffff16613a3161201c565b73ffffffffffffffffffffffffffffffffffffffff1614613a87576040517f08c379a0000000000000000000000000000000000000000000000000000000008152600401613a7e906146da565b60405180910390fd5b600073ffffffffffffffffffffffffffffffffffffffff168173ffffffffffffffffffffffffffffffffffffffff161415613af7576040517f08c379a0000000000000000000000000000000000000000000000000000000008152600401613aee9061459a565b60405180910390fd5b613b0081613bb5565b50565b613b0b613b97565b73ffffffffffffffffffffffffffffffffffffffff16613b2961201c565b73ffffffffffffffffffffffffffffffffffffffff1614613b7f576040517f08c379a0000000000000000000000000000000000000000000000000000000008152600401613b76906146da565b60405180910390fd5b613b87613d1a565b565b600081600001549050919050565b600033905090565b6001816000016000828254019250508190555050565b600060018054906101000a900473ffffffffffffffffffffffffffffffffffffffff169050816001806101000a81548173ffffffffffffffffffffffffffffffffffffffff021916908373ffffffffffffffffffffffffffffffffffffffff1602179055508173ffffffffffffffffffffffffffffffffffffffff168173ffffffffffffffffffffffffffffffffffffffff167f8be0079c531659141344cd1fd0a4f28419497f9722a3daafe3b4186f6b6457e060405160405180910390a35050565b613c806117fb565b15613cc0576040517f08c379a0000000000000000000000000000000000000000000000000000000008152600401613cb79061467a565b60405180910390fd5b60018060006101000a81548160ff0219169083151502179055507f62e78cea01bee320cd4e420270b5ea74000d11b0c9f74754ebdbfc544b05a258613d03613b97565b604051613d10919061446d565b60405180910390a1565b613d226117fb565b613d61576040517f08c379a0000000000000000000000000000000000000000000000000000000008152600401613d589061451a565b60405180910390fd5b6000600160006101000a81548160ff0219169083151502179055507f5db9ee0a495bf2e6ff9c91a7834c1ba4fdd244a5e8aa4e537bd38aeae4b073aa613da5613b97565b604051613db2919061446d565b60405180910390a1565b600081359050613dcb81615503565b92915050565b600081519050613de081615503565b92915050565b600081359050613df58161551a565b92915050565b600060208284031215613e1157613e10614c71565b5b6000613e1f84828501613dbc565b91505092915050565b600060208284031215613e3e57613e3d614c71565b5b6000613e4c84828501613dd1565b91505092915050565b60008060408385031215613e6c57613e6b614c71565b5b6000613e7a85828601613dbc565b9250506020613e8b85828601613de6565b9150509250929050565b600080600060608486031215613eae57613ead614c71565b5b6000613ebc86828701613dbc565b9350506020613ecd86828701613de6565b9250506040613ede86828701613dbc565b9150509250925092565b600080600060608486031215613f0157613f00614c71565b5b6000613f0f86828701613dbc565b9350506020613f2086828701613de6565b9250506040613f3186828701613de6565b9150509250925092565b600060208284031215613f5157613f50614c71565b5b6000613f5f84828501613de6565b91505092915050565b60008060408385031215613f7f57613f7e614c71565b5b6000613f8d85828601613de6565b9250506020613f9e85828601613de6565b9150509250929050565b613fb181614bcb565b82525050565b613fc081614bdd565b82525050565b6000613fd3601e83614b64565b9150613fde82614c76565b602082019050919050565b6000613ff6604983614b64565b915061400182614c9f565b606082019050919050565b6000614019601483614b64565b915061402482614d14565b602082019050919050565b600061403c601983614b64565b915061404782614d3d565b602082019050919050565b600061405f601c83614b64565b915061406a82614d66565b602082019050919050565b6000614082603783614b64565b915061408d82614d8f565b604082019050919050565b60006140a5602683614b64565b91506140b082614dde565b604082019050919050565b60006140c8603a83614b64565b91506140d382614e2d565b604082019050919050565b60006140eb603c83614b64565b91506140f682614e7c565b604082019050919050565b600061410e603183614b64565b915061411982614ecb565b604082019050919050565b6000614131603583614b64565b915061413c82614f1a565b604082019050919050565b6000614154603c83614b64565b915061415f82614f69565b604082019050919050565b6000614177601b83614b64565b915061418282614fb8565b602082019050919050565b600061419a601083614b64565b91506141a582614fe1565b602082019050919050565b60006141bd603783614b64565b91506141c88261500a565b604082019050919050565b60006141e0603383614b64565b91506141eb82615059565b604082019050919050565b6000614203602083614b64565b915061420e826150a8565b602082019050919050565b6000614226602883614b64565b9150614231826150d1565b604082019050919050565b6000614249601883614b64565b915061425482615120565b602082019050919050565b600061426c602483614b64565b915061427782615149565b604082019050919050565b600061428f602983614b64565b915061429a82615198565b604082019050919050565b60006142b2602783614b64565b91506142bd826151e7565b604082019050919050565b60006142d5604683614b64565b91506142e082615236565b606082019050919050565b60006142f8600083614b59565b9150614303826152ab565b600082019050919050565b600061431b603783614b64565b9150614326826152ae565b604082019050919050565b600061433e602f83614b64565b9150614349826152fd565b604082019050919050565b6000614361602783614b64565b915061436c8261534c565b604082019050919050565b6000614384601a83614b64565b915061438f8261539b565b602082019050919050565b60006143a7601f83614b64565b91506143b2826153c4565b602082019050919050565b60006143ca602983614b64565b91506143d5826153ed565b604082019050919050565b60006143ed601883614b64565b91506143f88261543c565b602082019050919050565b6000614410602883614b64565b915061441b82615465565b604082019050919050565b6000614433603883614b64565b915061443e826154b4565b604082019050919050565b61445281614c09565b82525050565b6000614463826142eb565b9150819050919050565b60006020820190506144826000830184613fa8565b92915050565b600060608201905061449d6000830186613fa8565b6144aa6020830185613fa8565b6144b76040830184614449565b949350505050565b60006020820190506144d46000830184613fb7565b92915050565b600060208201905081810360008301526144f381613fc6565b9050919050565b6000602082019050818103600083015261451381613fe9565b9050919050565b600060208201905081810360008301526145338161400c565b9050919050565b600060208201905081810360008301526145538161402f565b9050919050565b6000602082019050818103600083015261457381614052565b9050919050565b6000602082019050818103600083015261459381614075565b9050919050565b600060208201905081810360008301526145b381614098565b9050919050565b600060208201905081810360008301526145d3816140bb565b9050919050565b600060208201905081810360008301526145f3816140de565b9050919050565b6000602082019050818103600083015261461381614101565b9050919050565b6000602082019050818103600083015261463381614124565b9050919050565b6000602082019050818103600083015261465381614147565b9050919050565b600060208201905081810360008301526146738161416a565b9050919050565b600060208201905081810360008301526146938161418d565b9050919050565b600060208201905081810360008301526146b3816141b0565b9050919050565b600060208201905081810360008301526146d3816141d3565b9050919050565b600060208201905081810360008301526146f3816141f6565b9050919050565b6000602082019050818103600083015261471381614219565b9050919050565b600060208201905081810360008301526147338161423c565b9050919050565b600060208201905081810360008301526147538161425f565b9050919050565b6000602082019050818103600083015261477381614282565b9050919050565b60006020820190508181036000830152614793816142a5565b9050919050565b600060208201905081810360008301526147b3816142c8565b9050919050565b600060208201905081810360008301526147d38161430e565b9050919050565b600060208201905081810360008301526147f381614331565b9050919050565b6000602082019050818103600083015261481381614354565b9050919050565b6000602082019050818103600083015261483381614377565b9050919050565b600060208201905081810360008301526148538161439a565b9050919050565b60006020820190508181036000830152614873816143bd565b9050919050565b60006020820190508181036000830152614893816143e0565b9050919050565b600060208201905081810360008301526148b381614403565b9050919050565b600060208201905081810360008301526148d381614426565b9050919050565b60006020820190506148ef6000830184614449565b92915050565b600060808201905061490a6000830187614449565b6149176020830186614449565b6149246040830185613fa8565b6149316060830184613fb7565b95945050505050565b600060e08201905061494f600083018a614449565b61495c6020830189614449565b6149696040830188614449565b6149766060830187613fa8565b6149836080830186613fa8565b61499060a0830185613fa8565b61499d60c0830184613fb7565b98975050505050505050565b600060c0820190506149be6000830189614449565b6149cb6020830188614449565b6149d86040830187614449565b6149e56060830186613fa8565b6149f26080830185613fa8565b6149ff60a0830184613fb7565b979650505050505050565b600060a082019050614a1f6000830188614449565b614a2c6020830187614449565b614a396040830186614449565b614a466060830185613fa8565b614a536080830184613fb7565b9695505050505050565b600061012082019050614a73600083018c614449565b614a80602083018b614449565b614a8d604083018a614449565b614a9a6060830189614449565b614aa76080830188613fa8565b614ab460a0830187613fa8565b614ac160c0830186613fa8565b614ace60e0830185613fa8565b614adc610100830184613fb7565b9a9950505050505050505050565b600060e082019050614aff600083018a614449565b614b0c6020830189614449565b614b196040830188614449565b614b266060830187614449565b614b336080830186613fa8565b614b4060a0830185613fa8565b614b4d60c0830184613fb7565b98975050505050505050565b600081905092915050565b600082825260208201905092915050565b6000614b8082614c09565b9150614b8b83614c09565b9250827fffffffffffffffffffffffffffffffffffffffffffffffffffffffffffffffff03821115614bc057614bbf614c13565b5b828201905092915050565b6000614bd682614be9565b9050919050565b60008115159050919050565b600073ffffffffffffffffffffffffffffffffffffffff82169050919050565b6000819050919050565b7f4e487b7100000000000000000000000000000000000000000000000000000000600052601160045260246000fd5b7f4e487b7100000000000000000000000000000000000000000000000000000000600052602160045260246000fd5b600080fd5b7f4d61726b65743a2053656e64207468652061736b696e67207072696365210000600082015250565b7f4d61726b65743a2041756374696f6e206973206e6f206d6f726520616374697660008201527f652c204974656d20686173206265656e20736f6c6420616c7265616479206f7260208201527f2072656d6f766564210000000000000000000000000000000000000000000000604082015250565b7f5061757361626c653a206e6f7420706175736564000000000000000000000000600082015250565b7f4d61726b65743a20496e76616c6964204f666665722069642100000000000000600082015250565b7f4d61726b65743a2041756374696f6e2068617320657870697265642100000000600082015250565b7f4d61726b65743a204f6e6c79207468652061756374696f6e2073656c6c65722060008201527f63616e2063616e63656c207468652061756374696f6e21000000000000000000602082015250565b7f4f776e61626c653a206e6577206f776e657220697320746865207a65726f206160008201527f6464726573730000000000000000000000000000000000000000000000000000602082015250565b7f4d61726b65743a204f6666657220616d6f756e7420686173206e6f742062656560008201527f6e2073656e7420746f20746865206173736574206f776e65722e000000000000602082015250565b7f4d61726b65743a204f6666657220686173206265656e20736574746c6564206f60008201527f7220686173206265656e2063616e63656c656420616c72656164792100000000602082015250565b7f4d61726b65743a204f6666657220616d6f756e74206e6f742072657475726e6560008201527f6420746f20746865206f66666572657221000000000000000000000000000000602082015250565b7f4d61726b65743a2041756374696f6e20686173207374617274656420616c726560008201527f6164792c2063616e7420757064617465206e6f77210000000000000000000000602082015250565b7f4d61726b65743a2042696420616d6f756e7420686173206e6f74206265656e2060008201527f73656e7420746f207468652070726576696f7573206269646465722e00000000602082015250565b7f4d61726b65743a20496e76616c69642061756374696f6e206964210000000000600082015250565b7f5061757361626c653a2070617573656400000000000000000000000000000000600082015250565b7f4d61726b65743a204f6e6c79207468652061756374696f6e2073656c6c65722060008201527f63616e206d6f64696679207468652061756374696f6e21000000000000000000602082015250565b7f4d61726b65743a2042696420616d6f756e7420686173206e6f74206265656e2060008201527f73656e7420746f207468652073656c6c65722e00000000000000000000000000602082015250565b7f4f776e61626c653a2063616c6c6572206973206e6f7420746865206f776e6572600082015250565b7f4d61726b65743a204f6e6c792073656c6c65722063616e2063616e63656c207460008201527f68652073616c6521000000000000000000000000000000000000000000000000602082015250565b7f4d61726b65743a20496e76616c69642073616c65206964210000000000000000600082015250565b7f4d61726b65743a2041756374696f6e20686173206e6f7420657870697265642060008201527f7965742100000000000000000000000000000000000000000000000000000000602082015250565b7f4d61726b65743a2041756374696f6e20686173206265656e20736574746c656460008201527f20616c7265616479210000000000000000000000000000000000000000000000602082015250565b7f4d61726b65743a204f6666657220686173206265656e20736574746c6564206160008201527f6c72656164792100000000000000000000000000000000000000000000000000602082015250565b7f4d61726b65743a204f6e6c792073656c6c6572206f722063757272656e74206860008201527f696768657374206269646465722063616e20736574746c65207468697320617560208201527f6374696f6e210000000000000000000000000000000000000000000000000000604082015250565b50565b7f4d61726b65743a20506c656173652073656e6420616d6f756e7420677265617460008201527f6572207468616e207265736572766520616d6f756e7421000000000000000000602082015250565b7f4d61726b65743a2053616c6520616d6f756e74206e6f742072657475726e656460008201527f20746f207468652073656c6c6572210000000000000000000000000000000000602082015250565b7f4d61726b65743a2043616e2062652063616e63656c656420627920746865206f60008201527f6666657265722100000000000000000000000000000000000000000000000000602082015250565b7f4d61726b65743a204f6666657220686173206578706972656421000000000000600082015250565b7f5265656e7472616e637947756172643a207265656e7472616e742063616c6c00600082015250565b7f4d61726b65743a204f6e6c792073656c6c65722063616e20757064617465206260008201527f7579207072696365210000000000000000000000000000000000000000000000602082015250565b7f4d61726b65743a20416d6f756e74206e6f742073656e742e0000000000000000600082015250565b7f4d61726b65743a2053616c6520686173206265656e20656e646564206f72206360008201527f616e63656c656421000000000000000000000000000000000000000000000000602082015250565b7f4d61726b65743a20416d6f756e742073656e742073686f756c6420626520677260008201527f6561746572207468616e206f6666657220616d6f756e74210000000000000000602082015250565b61550c81614bcb565b811461551757600080fd5b50565b61552381614c09565b811461552e57600080fd5b5056fea26469706673582212202880ddfdb2198eae46755fa33fc3dda611f646888af279e9ce9b7778a56d219664736f6c63430008070033",
	"immutableReferences": {},
	"source": "// SPDX-License-Identifier: MITX\r\npragma solidity 0.8.7;\r\n\r\nimport \"@openzeppelin/contracts/utils/Counters.sol\";\r\nimport \"@openzeppelin/contracts/token/ERC721/IERC721.sol\";\r\nimport \"@openzeppelin/contracts/security/ReentrancyGuard.sol\";\r\nimport \"@openzeppelin/contracts/security/Pausable.sol\";\r\nimport \"@openzeppelin/contracts/access/Ownable.sol\";\r\n\r\ncontract Market is ReentrancyGuard, Pausable, Ownable {\r\n    // ERRORS\r\n    // \"Market: Market doesn't has approved status for this item!\"\r\n    error ItemNotApproved();\r\n    \r\n    using Counters for Counters.Counter;\r\n    Counters.Counter private _auctionCount;\r\n    Counters.Counter private _offersCount;\r\n    Counters.Counter private _salesCount;\r\n\r\n    mapping(uint256 => Auction) public auctions;\r\n    mapping(uint256 => Offer) public offers;\r\n    mapping(uint256 => Sale) public sales;\r\n\r\n    // Event enums\r\n    enum TypeAuction {create, update, cancel, settle}\r\n    enum TypeOffer {create, accept, decline}\r\n    enum TypeSale {create, accept, update, cancel}\r\n\r\n    struct Auction {\r\n        uint256 id;\r\n        uint256 itemId;\r\n        uint256 reservePrice;\r\n        uint256 expireAt;\r\n        address previousBidder;\r\n        address currentBidder;\r\n        address seller;\r\n        address contractAddress;\r\n        bool sold;\r\n    }\r\n\r\n    struct Offer {\r\n        uint id;\r\n        uint256 itemId;\r\n        uint256 amount;\r\n        uint256 expireAt;\r\n        address contractAddress;\r\n        address offerFrom;\r\n        bool sold;\r\n    }\r\n\r\n    struct Sale {\r\n        uint id;\r\n        uint itemId;\r\n        uint256 amount;\r\n        address contractAddress;\r\n        address seller;\r\n        bool sold;\r\n    }\r\n\r\n    event EventAuction (\r\n        uint256 id,\r\n        uint256 indexed itemId,\r\n        uint256 reservePrice,\r\n        uint256 expireAt,\r\n        address previousBidder,\r\n        address currentBidder,\r\n        address seller,\r\n        address indexed contractAddress,\r\n        bool sold,\r\n        TypeAuction indexed eventType\r\n    );\r\n\r\n    event EventOffer (\r\n        uint id,\r\n        uint256 indexed itemId,\r\n        uint256 amount,\r\n        uint256 expireAt,\r\n        address indexed contractAddress,\r\n        address offerFrom,\r\n        bool sold,\r\n        TypeOffer indexed eventType\r\n    );\r\n\r\n    event EventSale (\r\n        uint id,\r\n        uint indexed itemId,\r\n        uint256 amount,\r\n        address indexed contractAddress,\r\n        address seller,\r\n        bool sold,\r\n        TypeSale indexed eventType\r\n    );\r\n\r\n    modifier _auctionExists(uint256 _auctionId) {\r\n        // Check if auction exist's\r\n        require(_auctionId <= _auctionCount.current(), \"Market: Invalid auction id!\");\r\n        _;\r\n    }\r\n\r\n    modifier _offerExists(uint256 _offerId) {\r\n        // Check if offer exist's\r\n        require(_offerId <= _offersCount.current(), \"Market: Invalid Offer id!\");\r\n        _;\r\n    }\r\n\r\n    modifier _saleExists(uint256 _saleId) {\r\n        require(_saleId <= _salesCount.current(), \"Market: Invalid sale id!\");\r\n        _;\r\n    }\r\n\r\n    modifier _saleEnded(uint256 _saleId) {\r\n        Sale memory sale = sales[_saleId];\r\n        require(!sale.sold, \"Market: Sale has been ended or canceled!\");\r\n        _;\r\n    }\r\n\r\n    // Check if this contract has approval for the item/token\r\n    modifier _isApproved(address _contractAddress, uint256 _itemId) {\r\n        if(IERC721(_contractAddress).getApproved(_itemId) != address(this) && IERC721(_contractAddress).ownerOf(_itemId) != address(this)){\r\n            revert ItemNotApproved();\r\n        }\r\n        _;\r\n    }\r\n\r\n    constructor() Pausable() Ownable() {}\r\n\r\n    function pause() external onlyOwner {\r\n        _pause();\r\n    }\r\n\r\n    function unPause() external onlyOwner {\r\n        _unpause();\r\n    }\r\n\r\n    function sendTokenTo(address _contractAddress, uint256 _itemId, address _to) external onlyOwner returns (uint256) {\r\n        IERC721(_contractAddress).transferFrom(address(this), _to, _itemId);\r\n        return _itemId;\r\n    }\r\n\r\n    function transferTo(address _to, uint256 _amount) external onlyOwner nonReentrant whenNotPaused {\r\n        (bool sent,) = _to.call{value: _amount}(\"\");\r\n         require(sent, \"Market: Amount not sent.\");\r\n    }\r\n    \r\n    // Create Auction\r\n    function createReserveAuction(address _contractAddress, uint256 _itemId, uint256 _reservePrice) external returns(uint256) {\r\n        _auctionCount.increment();\r\n        uint256 _auctionId = _auctionCount.current();\r\n        IERC721(_contractAddress).transferFrom(msg.sender, address(this), _itemId);\r\n        uint256 expireAt = block.timestamp + 1 days;\r\n        \r\n        auctions[_auctionId] = Auction({\r\n            id: _auctionId,\r\n            contractAddress: _contractAddress,\r\n            itemId:_itemId,\r\n            reservePrice:_reservePrice,\r\n            previousBidder:address(0),\r\n            currentBidder: address(0),\r\n            seller: payable(msg.sender),\r\n            sold: false,\r\n            expireAt: expireAt\r\n        });\r\n\r\n        emit EventAuction (\r\n            _auctionId,\r\n            _itemId,\r\n            _reservePrice,\r\n            expireAt,\r\n            address(0),\r\n            address(0),\r\n            msg.sender,\r\n            _contractAddress,\r\n            false,\r\n            TypeAuction.create\r\n        );\r\n        return _auctionId;\r\n    }\r\n\r\n    // Bid Auction\r\n    function placeBid(uint256 _auctionId) external payable _auctionExists(_auctionId) nonReentrant whenNotPaused returns (uint256) {\r\n        Auction storage auction = auctions[_auctionId];\r\n        // Check if it is not expired or sold\r\n        require(block.timestamp <= auction.expireAt, \"Market: Auction has expired!\");\r\n        require(!auction.sold,\"Market: Auction is no more active, Item has been sold already or removed!\");\r\n        // Send the requried amount to this contract\r\n        require(msg.value > auction.reservePrice, \"Market: Please send amount greater than reserve amount!\");\r\n\r\n        // Change state, new owner and previous owner\r\n        address _currentBidder = auction.currentBidder;\r\n        auction.currentBidder = payable(msg.sender);\r\n        auction.previousBidder = payable(_currentBidder);\r\n        // Update the reserve price to the new bid amount\r\n        uint _previousReservePrice = auction.reservePrice;\r\n        auction.reservePrice = msg.value;\r\n        \r\n        // Payback the old bidder\r\n        if(auction.previousBidder != address(0)) {\r\n            (bool sent, ) = auction.previousBidder.call{value: _previousReservePrice}(\"\");\r\n            require(sent,\"Market: Bid amount has not been sent to the previous bidder.\");\r\n        }\r\n\r\n        return auction.id;\r\n    }\r\n\r\n    // Settle Auction\r\n    function settleAuction(uint256 _auctionId) external _auctionExists(_auctionId) nonReentrant returns (uint256) {\r\n        Auction storage auction = auctions[_auctionId];\r\n\r\n        // Only seller or currentBidder can settle this auction.\r\n        require(msg.sender == auction.seller || msg.sender == auction.currentBidder, \"Market: Only seller or current highest bidder can settle this auction!\");\r\n\r\n        // Check if it is expired or sold\r\n        require(block.timestamp > auction.expireAt, \"Market: Auction has not expired yet!\");\r\n        require(!auction.sold, \"Market: Auction has been settled already!\");\r\n\r\n        // Change state, sold.\r\n        auction.sold = true;\r\n        // Sent the asset to the highest bidder\r\n        IERC721(auction.contractAddress).transferFrom(address(this), auction.currentBidder, auction.itemId);\r\n        // Transfer the bid amount to the seller\r\n        (bool sent,) = auction.seller.call{value: auction.reservePrice}(\"\");\r\n        require(sent,\"Market: Bid amount has not been sent to the seller.\");\r\n\r\n        emit EventAuction (\r\n            _auctionId,\r\n            auction.itemId,\r\n            auction.reservePrice,\r\n            auction.expireAt,\r\n            auction.previousBidder,\r\n            auction.currentBidder,\r\n            auction.seller,\r\n            auction.contractAddress,\r\n            true,\r\n            TypeAuction.settle\r\n        );\r\n        \r\n        return _auctionId;\r\n    }\r\n\r\n    // Update Reserve Price\r\n    function updateReservePrice(uint256 _auctionId, uint256 _reservePrice) external _auctionExists(_auctionId)  {\r\n        Auction storage auction = auctions[_auctionId];\r\n\r\n        // Only seller can update the auction\r\n        require(msg.sender == auction.seller, \"Market: Only the auction seller can modify the auction!\");\r\n\r\n        // Only update if the auction has not started\r\n        require(auction.currentBidder == address(0) && auction.previousBidder == address(0), \"Market: Auction has started already, cant update now!\");\r\n\r\n        // Change state\r\n        auction.reservePrice = _reservePrice;\r\n\r\n        emit EventAuction (\r\n            _auctionId,\r\n            auction.itemId,\r\n            _reservePrice,\r\n            auction.expireAt,\r\n            auction.previousBidder,\r\n            auction.currentBidder,\r\n            auction.seller,\r\n            auction.contractAddress,\r\n            false,\r\n            TypeAuction.update\r\n        );\r\n    }\r\n\r\n    // Cancel the Auction\r\n    function cancelReserveAuction(uint256 _auctionId) external _auctionExists(_auctionId) {\r\n        Auction storage auction = auctions[_auctionId];\r\n\r\n        // Only seller can update the auction\r\n        require(msg.sender == auction.seller, \"Market: Only the auction seller can cancel the auction!\");\r\n\r\n        // Only update if the auction has not started\r\n        require(auction.currentBidder == address(0) && auction.previousBidder == address(0), \"Market: Auction has started already, cant update now!\");\r\n\r\n        // Send back the asset to the seller\r\n        IERC721(auction.contractAddress).transferFrom(address(this), auction.seller, auction.itemId);\r\n        // Change state\r\n        auction.sold = true;\r\n\r\n        emit EventAuction (\r\n            _auctionId,\r\n            auction.itemId,\r\n            auction.reservePrice,\r\n            auction.expireAt,\r\n            auction.previousBidder,\r\n            auction.currentBidder,\r\n            auction.seller,\r\n            auction.contractAddress,\r\n            true,\r\n            TypeAuction.settle\r\n        );\r\n    }\r\n\r\n    // OFFERS //\r\n    // Create Offer\r\n    function makeOffer(address _contractAddress, uint256 _itemId, uint256 _amount) external payable whenNotPaused returns(uint256) {\r\n\r\n        require(msg.value >= _amount, \"Market: Amount sent should be greater than offer amount!\");\r\n\r\n        _offersCount.increment();\r\n        uint256 offerId = _offersCount.current();\r\n        uint256 expireAt =  block.timestamp + 1 days;\r\n\r\n        offers[offerId] = Offer({\r\n            id: offerId,\r\n            itemId: _itemId,\r\n            amount:_amount,\r\n            expireAt: expireAt,\r\n            contractAddress: _contractAddress,\r\n            offerFrom: payable(msg.sender),\r\n            sold: false\r\n        });\r\n\r\n        emit EventOffer (\r\n            offerId,\r\n            _itemId,\r\n            _amount,\r\n            expireAt,\r\n            _contractAddress,\r\n            msg.sender,\r\n            false,\r\n            TypeOffer.create\r\n        );\r\n\r\n        return offerId;\r\n    }\r\n\r\n    function acceptOffer(uint256 _offerId) external nonReentrant whenNotPaused _offerExists(_offerId) {\r\n\r\n        Offer storage offer = offers[_offerId];\r\n\r\n        // Check if it is expired or sold\r\n        require(block.timestamp <= offer.expireAt, \"Market: Offer has expired!\");\r\n        require(!offer.sold, \"Market: Offer has been settled already!\");\r\n\r\n        if(IERC721(offer.contractAddress).getApproved(offer.itemId) != address(this)){\r\n            revert ItemNotApproved();\r\n        }\r\n\r\n        // Change State\r\n        offer.sold = true;\r\n\r\n        IERC721(offer.contractAddress).transferFrom(msg.sender, offer.offerFrom, offer.itemId);\r\n        (bool sent,) = msg.sender.call{value: offer.amount}(\"\");\r\n        require(sent, \"Market: Offer amount has not been sent to the asset owner.\");\r\n\r\n        emit EventOffer (\r\n            _offerId,\r\n            offer.itemId,\r\n            offer.amount,\r\n            offer.expireAt,\r\n            offer.contractAddress,\r\n            offer.offerFrom,\r\n            true,\r\n            TypeOffer.accept\r\n        );\r\n    }\r\n\r\n    function cancelOffer(uint _offerId) external nonReentrant _offerExists(_offerId) {\r\n        Offer storage offer = offers[_offerId];\r\n\r\n        // Can be canceled by the offerer\r\n        require(msg.sender == offer.offerFrom, \"Market: Can be canceled by the offerer!\");\r\n        \r\n        require(!offer.sold, \"Market: Offer has been settled or has been canceled already!\");\r\n\r\n        offer.sold = true;\r\n        (bool sent, ) = offer.offerFrom.call{ value: offer.amount }(\"\");\r\n        require(sent, \"Market: Offer amount not returned to the offerer!\");\r\n\r\n        emit EventOffer (\r\n            _offerId,\r\n            offer.itemId,\r\n            offer.amount,\r\n            offer.expireAt,\r\n            offer.contractAddress,\r\n            offer.offerFrom,\r\n            true,\r\n            TypeOffer.decline\r\n        );\r\n    }\r\n\r\n    // BUY //\r\n    function setBuyPrice(address _contractAddress, uint256 _itemId, uint256 _amount) external _isApproved(_contractAddress, _itemId) returns(uint256) {\r\n        _salesCount.increment();\r\n\r\n        uint256 saleId = _salesCount.current();\r\n\r\n        sales[saleId] = Sale({\r\n            id: saleId,\r\n            itemId: _itemId,\r\n            amount:_amount,\r\n            contractAddress: _contractAddress,\r\n            seller: payable(msg.sender),\r\n            sold: false\r\n        });\r\n\r\n        IERC721(_contractAddress).transferFrom(msg.sender, address(this), _itemId);\r\n\r\n        emit EventSale (\r\n            saleId,\r\n            _itemId,\r\n            _amount,\r\n            _contractAddress,\r\n            msg.sender,\r\n            false,\r\n            TypeSale.create\r\n        );\r\n\r\n        return saleId;\r\n    }\r\n\r\n    function buy(address _contractAddress, uint256 _itemId, uint256 _saleId) external payable whenNotPaused nonReentrant _isApproved(_contractAddress, _itemId) _saleExists(_saleId) _saleEnded(_saleId) {\r\n        Sale storage sale = sales[_saleId];\r\n\r\n        require(msg.value >= sale.amount, \"Market: Send the asking price!\");\r\n\r\n        // Change state\r\n        sale.sold = true;\r\n\r\n        IERC721(_contractAddress).transferFrom(address(this), msg.sender, sale.itemId);\r\n        (bool sent, ) = sale.seller.call{value:sale.amount}(\"\");\r\n        require(sent, \"Market: Sale amount not returned to the seller!\");\r\n\r\n        emit EventSale (\r\n            _saleId,\r\n            _itemId,\r\n            sale.amount,\r\n            _contractAddress,\r\n            sale.seller,\r\n            true,\r\n            TypeSale.accept\r\n        );\r\n    }\r\n\r\n    function updateBuyPrice(uint256 _saleId, uint256 _amount) external _saleExists(_saleId)  _saleEnded(_saleId) {\r\n        Sale storage sale = sales[_saleId];\r\n\r\n        require(msg.sender == sale.seller,\"Market: Only seller can update buy price!\");\r\n\r\n        // Change State\r\n        sale.amount = _amount;\r\n\r\n        emit EventSale (\r\n            _saleId,\r\n            sale.itemId,\r\n            sale.amount,\r\n            sale.contractAddress,\r\n            sale.seller,\r\n            false,\r\n            TypeSale.update\r\n        );\r\n    }\r\n\r\n    function cancelBuyPrice(uint256 _saleId) external _saleExists(_saleId) _saleEnded(_saleId) {\r\n        Sale storage sale = sales[_saleId];\r\n\r\n        require(msg.sender == sale.seller,\"Market: Only seller can cancel the sale!\");\r\n\r\n        // Change State\r\n        sale.sold = true;\r\n\r\n        IERC721(sale.contractAddress).transferFrom(address(this), msg.sender, sale.itemId);\r\n\r\n        emit EventSale (\r\n            _saleId,\r\n            sale.itemId,\r\n            sale.amount,\r\n            sale.contractAddress,\r\n            sale.seller,\r\n            true,\r\n            TypeSale.cancel\r\n        );\r\n    }\r\n}",
	"sourcePath": "D:\\nft\\cd\\contracts\\Market.sol",
	"compiler": {
		"name": "solc",
		"version": "0.8.7+commit.e28d00a7.Emscripten.clang"
	},
	"schemaVersion": "3.4.7",
	"updatedAt": "2022-05-28T05:26:21.942Z",
	"networkType": "ethereum",
	"devdoc": {
		"kind": "dev",
		"methods": {
			"owner()": {
				"details": "Returns the address of the current owner."
			},
			"paused()": {
				"details": "Returns true if the contract is paused, and false otherwise."
			},
			"renounceOwnership()": {
				"details": "Leaves the contract without owner. It will not be possible to call `onlyOwner` functions anymore. Can only be called by the current owner. NOTE: Renouncing ownership will leave the contract without an owner, thereby removing any functionality that is only available to the owner."
			},
			"transferOwnership(address)": {
				"details": "Transfers ownership of the contract to a new account (`newOwner`). Can only be called by the current owner."
			}
		},
		"version": 1
	},
	"userdoc": {
		"kind": "user",
		"methods": {},
		"version": 1
	}
}