{
	"contractName": "Market",
	"abi": [
		{
			"inputs": [],
			"stateMutability": "nonpayable",
			"type": "constructor"
		},
		{
			"inputs": [],
			"name": "ItemNotApproved",
			"type": "error"
		},
		{
			"anonymous": false,
			"inputs": [
				{
					"indexed": false,
					"internalType": "uint256",
					"name": "id",
					"type": "uint256"
				},
				{
					"indexed": true,
					"internalType": "uint256",
					"name": "itemId",
					"type": "uint256"
				},
				{
					"indexed": false,
					"internalType": "uint256",
					"name": "reservePrice",
					"type": "uint256"
				},
				{
					"indexed": false,
					"internalType": "uint256",
					"name": "expireAt",
					"type": "uint256"
				},
				{
					"indexed": false,
					"internalType": "address",
					"name": "previousBidder",
					"type": "address"
				},
				{
					"indexed": false,
					"internalType": "address",
					"name": "currentBidder",
					"type": "address"
				},
				{
					"indexed": false,
					"internalType": "address",
					"name": "seller",
					"type": "address"
				},
				{
					"indexed": true,
					"internalType": "address",
					"name": "contractAddress",
					"type": "address"
				},
				{
					"indexed": false,
					"internalType": "bool",
					"name": "sold",
					"type": "bool"
				},
				{
					"indexed": true,
					"internalType": "enum Market.TypeAuction",
					"name": "eventType",
					"type": "uint8"
				}
			],
			"name": "EventAuction",
			"type": "event"
		},
		{
			"anonymous": false,
			"inputs": [
				{
					"indexed": false,
					"internalType": "uint256",
					"name": "id",
					"type": "uint256"
				},
				{
					"indexed": true,
					"internalType": "uint256",
					"name": "itemId",
					"type": "uint256"
				},
				{
					"indexed": false,
					"internalType": "uint256",
					"name": "amount",
					"type": "uint256"
				},
				{
					"indexed": false,
					"internalType": "uint256",
					"name": "expireAt",
					"type": "uint256"
				},
				{
					"indexed": true,
					"internalType": "address",
					"name": "contractAddress",
					"type": "address"
				},
				{
					"indexed": false,
					"internalType": "address",
					"name": "offerFrom",
					"type": "address"
				},
				{
					"indexed": false,
					"internalType": "bool",
					"name": "sold",
					"type": "bool"
				},
				{
					"indexed": true,
					"internalType": "enum Market.TypeOffer",
					"name": "eventType",
					"type": "uint8"
				}
			],
			"name": "EventOffer",
			"type": "event"
		},
		{
			"anonymous": false,
			"inputs": [
				{
					"indexed": false,
					"internalType": "uint256",
					"name": "id",
					"type": "uint256"
				},
				{
					"indexed": true,
					"internalType": "uint256",
					"name": "itemId",
					"type": "uint256"
				},
				{
					"indexed": false,
					"internalType": "uint256",
					"name": "amount",
					"type": "uint256"
				},
				{
					"indexed": true,
					"internalType": "address",
					"name": "contractAddress",
					"type": "address"
				},
				{
					"indexed": false,
					"internalType": "address",
					"name": "seller",
					"type": "address"
				},
				{
					"indexed": false,
					"internalType": "bool",
					"name": "sold",
					"type": "bool"
				},
				{
					"indexed": true,
					"internalType": "enum Market.TypeSale",
					"name": "eventType",
					"type": "uint8"
				}
			],
			"name": "EventSale",
			"type": "event"
		},
		{
			"anonymous": false,
			"inputs": [
				{
					"indexed": true,
					"internalType": "address",
					"name": "previousOwner",
					"type": "address"
				},
				{
					"indexed": true,
					"internalType": "address",
					"name": "newOwner",
					"type": "address"
				}
			],
			"name": "OwnershipTransferred",
			"type": "event"
		},
		{
			"anonymous": false,
			"inputs": [
				{
					"indexed": false,
					"internalType": "address",
					"name": "account",
					"type": "address"
				}
			],
			"name": "Paused",
			"type": "event"
		},
		{
			"anonymous": false,
			"inputs": [
				{
					"indexed": false,
					"internalType": "address",
					"name": "account",
					"type": "address"
				}
			],
			"name": "Unpaused",
			"type": "event"
		},
		{
			"inputs": [
				{
					"internalType": "uint256",
					"name": "",
					"type": "uint256"
				}
			],
			"name": "auctions",
			"outputs": [
				{
					"internalType": "uint256",
					"name": "id",
					"type": "uint256"
				},
				{
					"internalType": "uint256",
					"name": "itemId",
					"type": "uint256"
				},
				{
					"internalType": "uint256",
					"name": "reservePrice",
					"type": "uint256"
				},
				{
					"internalType": "uint256",
					"name": "expireAt",
					"type": "uint256"
				},
				{
					"internalType": "address",
					"name": "previousBidder",
					"type": "address"
				},
				{
					"internalType": "address",
					"name": "currentBidder",
					"type": "address"
				},
				{
					"internalType": "address",
					"name": "seller",
					"type": "address"
				},
				{
					"internalType": "address",
					"name": "contractAddress",
					"type": "address"
				},
				{
					"internalType": "bool",
					"name": "sold",
					"type": "bool"
				}
			],
			"stateMutability": "view",
			"type": "function",
			"constant": true
		},
		{
			"inputs": [
				{
					"internalType": "uint256",
					"name": "",
					"type": "uint256"
				}
			],
			"name": "offers",
			"outputs": [
				{
					"internalType": "uint256",
					"name": "id",
					"type": "uint256"
				},
				{
					"internalType": "uint256",
					"name": "itemId",
					"type": "uint256"
				},
				{
					"internalType": "uint256",
					"name": "amount",
					"type": "uint256"
				},
				{
					"internalType": "uint256",
					"name": "expireAt",
					"type": "uint256"
				},
				{
					"internalType": "address",
					"name": "contractAddress",
					"type": "address"
				},
				{
					"internalType": "address",
					"name": "offerFrom",
					"type": "address"
				},
				{
					"internalType": "bool",
					"name": "sold",
					"type": "bool"
				}
			],
			"stateMutability": "view",
			"type": "function",
			"constant": true
		},
		{
			"inputs": [],
			"name": "owner",
			"outputs": [
				{
					"internalType": "address",
					"name": "",
					"type": "address"
				}
			],
			"stateMutability": "view",
			"type": "function",
			"constant": true
		},
		{
			"inputs": [],
			"name": "paused",
			"outputs": [
				{
					"internalType": "bool",
					"name": "",
					"type": "bool"
				}
			],
			"stateMutability": "view",
			"type": "function",
			"constant": true
		},
		{
			"inputs": [],
			"name": "renounceOwnership",
			"outputs": [],
			"stateMutability": "nonpayable",
			"type": "function"
		},
		{
			"inputs": [
				{
					"internalType": "uint256",
					"name": "",
					"type": "uint256"
				}
			],
			"name": "sales",
			"outputs": [
				{
					"internalType": "uint256",
					"name": "id",
					"type": "uint256"
				},
				{
					"internalType": "uint256",
					"name": "itemId",
					"type": "uint256"
				},
				{
					"internalType": "uint256",
					"name": "amount",
					"type": "uint256"
				},
				{
					"internalType": "address",
					"name": "contractAddress",
					"type": "address"
				},
				{
					"internalType": "address",
					"name": "seller",
					"type": "address"
				},
				{
					"internalType": "bool",
					"name": "sold",
					"type": "bool"
				}
			],
			"stateMutability": "view",
			"type": "function",
			"constant": true
		},
		{
			"inputs": [
				{
					"internalType": "address",
					"name": "newOwner",
					"type": "address"
				}
			],
			"name": "transferOwnership",
			"outputs": [],
			"stateMutability": "nonpayable",
			"type": "function"
		},
		{
			"inputs": [],
			"name": "pause",
			"outputs": [],
			"stateMutability": "nonpayable",
			"type": "function"
		},
		{
			"inputs": [],
			"name": "unPause",
			"outputs": [],
			"stateMutability": "nonpayable",
			"type": "function"
		},
		{
			"inputs": [
				{
					"internalType": "address",
					"name": "_contractAddress",
					"type": "address"
				},
				{
					"internalType": "uint256",
					"name": "_itemId",
					"type": "uint256"
				},
				{
					"internalType": "uint256",
					"name": "_reservePrice",
					"type": "uint256"
				}
			],
			"name": "createReserveAuction",
			"outputs": [
				{
					"internalType": "uint256",
					"name": "",
					"type": "uint256"
				}
			],
			"stateMutability": "nonpayable",
			"type": "function"
		},
		{
			"inputs": [
				{
					"internalType": "uint256",
					"name": "_auctionId",
					"type": "uint256"
				}
			],
			"name": "placeBid",
			"outputs": [
				{
					"internalType": "uint256",
					"name": "",
					"type": "uint256"
				}
			],
			"stateMutability": "payable",
			"type": "function",
			"payable": true
		},
		{
			"inputs": [
				{
					"internalType": "uint256",
					"name": "_auctionId",
					"type": "uint256"
				}
			],
			"name": "settleAuction",
			"outputs": [
				{
					"internalType": "uint256",
					"name": "",
					"type": "uint256"
				}
			],
			"stateMutability": "nonpayable",
			"type": "function"
		},
		{
			"inputs": [
				{
					"internalType": "uint256",
					"name": "_auctionId",
					"type": "uint256"
				},
				{
					"internalType": "uint256",
					"name": "_reservePrice",
					"type": "uint256"
				}
			],
			"name": "updateReservePrice",
			"outputs": [],
			"stateMutability": "nonpayable",
			"type": "function"
		},
		{
			"inputs": [
				{
					"internalType": "uint256",
					"name": "_auctionId",
					"type": "uint256"
				}
			],
			"name": "cancelReserveAuction",
			"outputs": [],
			"stateMutability": "nonpayable",
			"type": "function"
		},
		{
			"inputs": [
				{
					"internalType": "address",
					"name": "_contractAddress",
					"type": "address"
				},
				{
					"internalType": "uint256",
					"name": "_itemId",
					"type": "uint256"
				},
				{
					"internalType": "uint256",
					"name": "_amount",
					"type": "uint256"
				}
			],
			"name": "makeOffer",
			"outputs": [
				{
					"internalType": "uint256",
					"name": "",
					"type": "uint256"
				}
			],
			"stateMutability": "payable",
			"type": "function",
			"payable": true
		},
		{
			"inputs": [
				{
					"internalType": "uint256",
					"name": "_offerId",
					"type": "uint256"
				}
			],
			"name": "acceptOffer",
			"outputs": [],
			"stateMutability": "nonpayable",
			"type": "function"
		},
		{
			"inputs": [
				{
					"internalType": "uint256",
					"name": "_offerId",
					"type": "uint256"
				}
			],
			"name": "cancelOffer",
			"outputs": [],
			"stateMutability": "nonpayable",
			"type": "function"
		},
		{
			"inputs": [
				{
					"internalType": "address",
					"name": "_contractAddress",
					"type": "address"
				},
				{
					"internalType": "uint256",
					"name": "_itemId",
					"type": "uint256"
				},
				{
					"internalType": "uint256",
					"name": "_amount",
					"type": "uint256"
				}
			],
			"name": "setBuyPrice",
			"outputs": [
				{
					"internalType": "uint256",
					"name": "",
					"type": "uint256"
				}
			],
			"stateMutability": "nonpayable",
			"type": "function"
		},
		{
			"inputs": [
				{
					"internalType": "address",
					"name": "_contractAddress",
					"type": "address"
				},
				{
					"internalType": "uint256",
					"name": "_itemId",
					"type": "uint256"
				},
				{
					"internalType": "uint256",
					"name": "_saleId",
					"type": "uint256"
				}
			],
			"name": "buy",
			"outputs": [],
			"stateMutability": "payable",
			"type": "function",
			"payable": true
		},
		{
			"inputs": [
				{
					"internalType": "uint256",
					"name": "_saleId",
					"type": "uint256"
				},
				{
					"internalType": "uint256",
					"name": "_amount",
					"type": "uint256"
				}
			],
			"name": "updateBuyPrice",
			"outputs": [],
			"stateMutability": "nonpayable",
			"type": "function"
		},
		{
			"inputs": [
				{
					"internalType": "uint256",
					"name": "_saleId",
					"type": "uint256"
				}
			],
			"name": "cancelBuyPrice",
			"outputs": [],
			"stateMutability": "nonpayable",
			"type": "function"
		}
	],
	"bytecode": "0x60806040523480156200001157600080fd5b5060016000819055506000600160006101000a81548160ff02191690831515021790555062000055620000496200005b60201b60201c565b6200006360201b60201c565b62000126565b600033905090565b600060018054906101000a900473ffffffffffffffffffffffffffffffffffffffff169050816001806101000a81548173ffffffffffffffffffffffffffffffffffffffff021916908373ffffffffffffffffffffffffffffffffffffffff1602179055508173ffffffffffffffffffffffffffffffffffffffff168173ffffffffffffffffffffffffffffffffffffffff167f8be0079c531659141344cd1fd0a4f28419497f9722a3daafe3b4186f6b6457e060405160405180910390a35050565b61512a80620001366000396000f3fe60806040526004361061012a5760003560e01c80638a72ea6a116100ab578063b62deb651161006f578063b62deb6514610402578063c815729d1461042b578063cfbf4ee914610454578063ef706adf1461047d578063f2fde38b146104a6578063f7b188a5146104cf5761012a565b80638a72ea6a146103065780638da5cb5b146103495780639979ef4514610374578063a59ac6dd146103a4578063b5f522f7146103c05761012a565b80635c975abb116100f25780635c975abb14610240578063715018a61461026b578063798bac8d146102825780637de3bd07146102bf5780638456cb59146102ef5761012a565b806321506fff1461012f5780632e9936111461015857806338927394146101955780634ce6931a146101be578063571a26a0146101fb575b600080fd5b34801561013b57600080fd5b5061015660048036038101906101519190613b6a565b6104e6565b005b34801561016457600080fd5b5061017f600480360381019061017a9190613b6a565b6108b3565b60405161018c91906144c6565b60405180910390f35b3480156101a157600080fd5b506101bc60048036038101906101b79190613b97565b610db5565b005b3480156101ca57600080fd5b506101e560048036038101906101e09190613b17565b6110b1565b6040516101f291906144c6565b60405180910390f35b34801561020757600080fd5b50610222600480360381019061021d9190613b6a565b6113e2565b60405161023799989796959493929190614649565b60405180910390f35b34801561024c57600080fd5b506102556114bd565b60405161026291906140cb565b60405180910390f35b34801561027757600080fd5b506102806114d4565b005b34801561028e57600080fd5b506102a960048036038101906102a49190613b17565b61155c565b6040516102b691906144c6565b60405180910390f35b6102d960048036038101906102d49190613b17565b61194b565b6040516102e691906144c6565b60405180910390f35b3480156102fb57600080fd5b50610304611bc9565b005b34801561031257600080fd5b5061032d60048036038101906103289190613b6a565b611c4f565b60405161034097969594939291906146d6565b60405180910390f35b34801561035557600080fd5b5061035e611cde565b60405161036b9190614079565b60405180910390f35b61038e60048036038101906103899190613b6a565b611d06565b60405161039b91906144c6565b60405180910390f35b6103be60048036038101906103b99190613b17565b6120e4565b005b3480156103cc57600080fd5b506103e760048036038101906103e29190613b6a565b61272d565b6040516103f996959493929190614595565b60405180910390f35b34801561040e57600080fd5b5061042960048036038101906104249190613b6a565b6127b6565b005b34801561043757600080fd5b50610452600480360381019061044d9190613b6a565b612b6d565b005b34801561046057600080fd5b5061047b60048036038101906104769190613b97565b61306b565b005b34801561048957600080fd5b506104a4600480360381019061049f9190613b6a565b613379565b005b3480156104b257600080fd5b506104cd60048036038101906104c89190613abd565b6136cd565b005b3480156104db57600080fd5b506104e46137c5565b005b806104f1600261384b565b811115610533576040517f08c379a000000000000000000000000000000000000000000000000000000000815260040161052a90614266565b60405180910390fd5b60006005600084815260200190815260200160002090508060060160009054906101000a900473ffffffffffffffffffffffffffffffffffffffff1673ffffffffffffffffffffffffffffffffffffffff163373ffffffffffffffffffffffffffffffffffffffff16146105dc576040517f08c379a00000000000000000000000000000000000000000000000000000000081526004016105d390614186565b60405180910390fd5b600073ffffffffffffffffffffffffffffffffffffffff168160050160009054906101000a900473ffffffffffffffffffffffffffffffffffffffff1673ffffffffffffffffffffffffffffffffffffffff1614801561068c5750600073ffffffffffffffffffffffffffffffffffffffff168160040160009054906101000a900473ffffffffffffffffffffffffffffffffffffffff1673ffffffffffffffffffffffffffffffffffffffff16145b6106cb576040517f08c379a00000000000000000000000000000000000000000000000000000000081526004016106c290614226565b60405180910390fd5b8060070160009054906101000a900473ffffffffffffffffffffffffffffffffffffffff1673ffffffffffffffffffffffffffffffffffffffff166323b872dd308360060160009054906101000a900473ffffffffffffffffffffffffffffffffffffffff1684600101546040518463ffffffff1660e01b815260040161075493929190614094565b600060405180830381600087803b15801561076e57600080fd5b505af1158015610782573d6000803e3d6000fd5b5050505060018160070160146101000a81548160ff0219169083151502179055506003808111156107b6576107b561482e565b5b8160070160009054906101000a900473ffffffffffffffffffffffffffffffffffffffff1673ffffffffffffffffffffffffffffffffffffffff1682600101547f88e98201e0ee31d381fbbafcc13f7a5a0a8e8203bf21a2eb739fa2388ac8720786856002015486600301548760040160009054906101000a900473ffffffffffffffffffffffffffffffffffffffff168860050160009054906101000a900473ffffffffffffffffffffffffffffffffffffffff168960060160009054906101000a900473ffffffffffffffffffffffffffffffffffffffff1660016040516108a69796959493929190614526565b60405180910390a4505050565b6000816108c0600261384b565b811115610902576040517f08c379a00000000000000000000000000000000000000000000000000000000081526004016108f990614266565b60405180910390fd5b60026000541415610948576040517f08c379a000000000000000000000000000000000000000000000000000000000815260040161093f90614446565b60405180910390fd5b600260008190555060006005600085815260200190815260200160002090508060060160009054906101000a900473ffffffffffffffffffffffffffffffffffffffff1673ffffffffffffffffffffffffffffffffffffffff163373ffffffffffffffffffffffffffffffffffffffff161480610a1457508060050160009054906101000a900473ffffffffffffffffffffffffffffffffffffffff1673ffffffffffffffffffffffffffffffffffffffff163373ffffffffffffffffffffffffffffffffffffffff16145b610a53576040517f08c379a0000000000000000000000000000000000000000000000000000000008152600401610a4a906143a6565b60405180910390fd5b80600301544211610a99576040517f08c379a0000000000000000000000000000000000000000000000000000000008152600401610a9090614346565b60405180910390fd5b8060070160149054906101000a900460ff1615610aeb576040517f08c379a0000000000000000000000000000000000000000000000000000000008152600401610ae290614366565b60405180910390fd5b60018160070160146101000a81548160ff0219169083151502179055508060070160009054906101000a900473ffffffffffffffffffffffffffffffffffffffff1673ffffffffffffffffffffffffffffffffffffffff166323b872dd308360050160009054906101000a900473ffffffffffffffffffffffffffffffffffffffff1684600101546040518463ffffffff1660e01b8152600401610b9193929190614094565b600060405180830381600087803b158015610bab57600080fd5b505af1158015610bbf573d6000803e3d6000fd5b5050505060008160060160009054906101000a900473ffffffffffffffffffffffffffffffffffffffff1673ffffffffffffffffffffffffffffffffffffffff168260020154604051610c1190614064565b60006040518083038185875af1925050503d8060008114610c4e576040519150601f19603f3d011682016040523d82523d6000602084013e610c53565b606091505b5050905080610c97576040517f08c379a0000000000000000000000000000000000000000000000000000000008152600401610c8e906142c6565b60405180910390fd5b600380811115610caa57610ca961482e565b5b8260070160009054906101000a900473ffffffffffffffffffffffffffffffffffffffff1673ffffffffffffffffffffffffffffffffffffffff1683600101547f88e98201e0ee31d381fbbafcc13f7a5a0a8e8203bf21a2eb739fa2388ac8720788866002015487600301548860040160009054906101000a900473ffffffffffffffffffffffffffffffffffffffff168960050160009054906101000a900473ffffffffffffffffffffffffffffffffffffffff168a60060160009054906101000a900473ffffffffffffffffffffffffffffffffffffffff166001604051610d9a9796959493929190614526565b60405180910390a48493505050600160008190555050919050565b81610dc0600261384b565b811115610e02576040517f08c379a0000000000000000000000000000000000000000000000000000000008152600401610df990614266565b60405180910390fd5b60006005600085815260200190815260200160002090508060060160009054906101000a900473ffffffffffffffffffffffffffffffffffffffff1673ffffffffffffffffffffffffffffffffffffffff163373ffffffffffffffffffffffffffffffffffffffff1614610eab576040517f08c379a0000000000000000000000000000000000000000000000000000000008152600401610ea2906142a6565b60405180910390fd5b600073ffffffffffffffffffffffffffffffffffffffff168160050160009054906101000a900473ffffffffffffffffffffffffffffffffffffffff1673ffffffffffffffffffffffffffffffffffffffff16148015610f5b5750600073ffffffffffffffffffffffffffffffffffffffff168160040160009054906101000a900473ffffffffffffffffffffffffffffffffffffffff1673ffffffffffffffffffffffffffffffffffffffff16145b610f9a576040517f08c379a0000000000000000000000000000000000000000000000000000000008152600401610f9190614226565b60405180910390fd5b82816002018190555060016003811115610fb757610fb661482e565b5b8160070160009054906101000a900473ffffffffffffffffffffffffffffffffffffffff1673ffffffffffffffffffffffffffffffffffffffff1682600101547f88e98201e0ee31d381fbbafcc13f7a5a0a8e8203bf21a2eb739fa2388ac87207878786600301548760040160009054906101000a900473ffffffffffffffffffffffffffffffffffffffff168860050160009054906101000a900473ffffffffffffffffffffffffffffffffffffffff168960060160009054906101000a900473ffffffffffffffffffffffffffffffffffffffff1660006040516110a39796959493929190614526565b60405180910390a450505050565b60006110bd6002613859565b60006110c9600261384b565b90508473ffffffffffffffffffffffffffffffffffffffff166323b872dd3330876040518463ffffffff1660e01b815260040161110893929190614094565b600060405180830381600087803b15801561112257600080fd5b505af1158015611136573d6000803e3d6000fd5b505050506000620151804261114b9190614761565b9050604051806101200160405280838152602001868152602001858152602001828152602001600073ffffffffffffffffffffffffffffffffffffffff168152602001600073ffffffffffffffffffffffffffffffffffffffff1681526020013373ffffffffffffffffffffffffffffffffffffffff1681526020018773ffffffffffffffffffffffffffffffffffffffff16815260200160001515815250600560008481526020019081526020016000206000820151816000015560208201518160010155604082015181600201556060820151816003015560808201518160040160006101000a81548173ffffffffffffffffffffffffffffffffffffffff021916908373ffffffffffffffffffffffffffffffffffffffff16021790555060a08201518160050160006101000a81548173ffffffffffffffffffffffffffffffffffffffff021916908373ffffffffffffffffffffffffffffffffffffffff16021790555060c08201518160060160006101000a81548173ffffffffffffffffffffffffffffffffffffffff021916908373ffffffffffffffffffffffffffffffffffffffff16021790555060e08201518160070160006101000a81548173ffffffffffffffffffffffffffffffffffffffff021916908373ffffffffffffffffffffffffffffffffffffffff1602179055506101008201518160070160146101000a81548160ff021916908315150217905550905050600060038111156113795761137861482e565b5b8673ffffffffffffffffffffffffffffffffffffffff16867f88e98201e0ee31d381fbbafcc13f7a5a0a8e8203bf21a2eb739fa2388ac872078588866000803360006040516113ce9796959493929190614526565b60405180910390a481925050509392505050565b60056020528060005260406000206000915090508060000154908060010154908060020154908060030154908060040160009054906101000a900473ffffffffffffffffffffffffffffffffffffffff16908060050160009054906101000a900473ffffffffffffffffffffffffffffffffffffffff16908060060160009054906101000a900473ffffffffffffffffffffffffffffffffffffffff16908060070160009054906101000a900473ffffffffffffffffffffffffffffffffffffffff16908060070160149054906101000a900460ff16905089565b6000600160009054906101000a900460ff16905090565b6114dc61386f565b73ffffffffffffffffffffffffffffffffffffffff166114fa611cde565b73ffffffffffffffffffffffffffffffffffffffff1614611550576040517f08c379a0000000000000000000000000000000000000000000000000000000008152600401611547906142e6565b60405180910390fd5b61155a6000613877565b565b600083833073ffffffffffffffffffffffffffffffffffffffff168273ffffffffffffffffffffffffffffffffffffffff1663081812fc836040518263ffffffff1660e01b81526004016115b091906144c6565b60206040518083038186803b1580156115c857600080fd5b505afa1580156115dc573d6000803e3d6000fd5b505050506040513d601f19601f820116820180604052508101906116009190613aea565b73ffffffffffffffffffffffffffffffffffffffff16141580156116d857503073ffffffffffffffffffffffffffffffffffffffff168273ffffffffffffffffffffffffffffffffffffffff16636352211e836040518263ffffffff1660e01b815260040161166f91906144c6565b60206040518083038186803b15801561168757600080fd5b505afa15801561169b573d6000803e3d6000fd5b505050506040513d601f19601f820116820180604052508101906116bf9190613aea565b73ffffffffffffffffffffffffffffffffffffffff1614155b1561170f576040517ff826f86200000000000000000000000000000000000000000000000000000000815260040160405180910390fd5b6117196004613859565b6000611725600461384b565b90506040518060c001604052808281526020018781526020018681526020018873ffffffffffffffffffffffffffffffffffffffff1681526020013373ffffffffffffffffffffffffffffffffffffffff168152602001600015158152506007600083815260200190815260200160002060008201518160000155602082015181600101556040820151816002015560608201518160030160006101000a81548173ffffffffffffffffffffffffffffffffffffffff021916908373ffffffffffffffffffffffffffffffffffffffff16021790555060808201518160040160006101000a81548173ffffffffffffffffffffffffffffffffffffffff021916908373ffffffffffffffffffffffffffffffffffffffff16021790555060a08201518160040160146101000a81548160ff0219169083151502179055509050508673ffffffffffffffffffffffffffffffffffffffff166323b872dd3330896040518463ffffffff1660e01b81526004016118a293929190614094565b600060405180830381600087803b1580156118bc57600080fd5b505af11580156118d0573d6000803e3d6000fd5b50505050600060038111156118e8576118e761482e565b5b8773ffffffffffffffffffffffffffffffffffffffff16877f0cd43fd9c12c0b040dc330b451adcefd47851dfa029dec57f23f570054ef4688848933600060405161193694939291906144e1565b60405180910390a48093505050509392505050565b60006119556114bd565b15611995576040517f08c379a000000000000000000000000000000000000000000000000000000000815260040161198c90614286565b60405180910390fd5b813410156119d8576040517f08c379a00000000000000000000000000000000000000000000000000000000081526004016119cf906144a6565b60405180910390fd5b6119e26003613859565b60006119ee600361384b565b905060006201518042611a019190614761565b90506040518060e001604052808381526020018681526020018581526020018281526020018773ffffffffffffffffffffffffffffffffffffffff1681526020013373ffffffffffffffffffffffffffffffffffffffff16815260200160001515815250600660008481526020019081526020016000206000820151816000015560208201518160010155604082015181600201556060820151816003015560808201518160040160006101000a81548173ffffffffffffffffffffffffffffffffffffffff021916908373ffffffffffffffffffffffffffffffffffffffff16021790555060a08201518160050160006101000a81548173ffffffffffffffffffffffffffffffffffffffff021916908373ffffffffffffffffffffffffffffffffffffffff16021790555060c08201518160050160146101000a81548160ff02191690831515021790555090505060006002811115611b6557611b6461482e565b5b8673ffffffffffffffffffffffffffffffffffffffff16867f3d44ddf83a852335fb93dea137ad2410905452f00c66ea62151f153d0a11ae5e858886336000604051611bb59594939291906145f6565b60405180910390a481925050509392505050565b611bd161386f565b73ffffffffffffffffffffffffffffffffffffffff16611bef611cde565b73ffffffffffffffffffffffffffffffffffffffff1614611c45576040517f08c379a0000000000000000000000000000000000000000000000000000000008152600401611c3c906142e6565b60405180910390fd5b611c4d61393a565b565b60066020528060005260406000206000915090508060000154908060010154908060020154908060030154908060040160009054906101000a900473ffffffffffffffffffffffffffffffffffffffff16908060050160009054906101000a900473ffffffffffffffffffffffffffffffffffffffff16908060050160149054906101000a900460ff16905087565b600060018054906101000a900473ffffffffffffffffffffffffffffffffffffffff16905090565b600081611d13600261384b565b811115611d55576040517f08c379a0000000000000000000000000000000000000000000000000000000008152600401611d4c90614266565b60405180910390fd5b60026000541415611d9b576040517f08c379a0000000000000000000000000000000000000000000000000000000008152600401611d9290614446565b60405180910390fd5b6002600081905550611dab6114bd565b15611deb576040517f08c379a0000000000000000000000000000000000000000000000000000000008152600401611de290614286565b60405180910390fd5b60006005600085815260200190815260200160002090508060030154421115611e49576040517f08c379a0000000000000000000000000000000000000000000000000000000008152600401611e4090614166565b60405180910390fd5b8060070160149054906101000a900460ff1615611e9b576040517f08c379a0000000000000000000000000000000000000000000000000000000008152600401611e9290614106565b60405180910390fd5b80600201543411611ee1576040517f08c379a0000000000000000000000000000000000000000000000000000000008152600401611ed8906143c6565b60405180910390fd5b60008160050160009054906101000a900473ffffffffffffffffffffffffffffffffffffffff169050338260050160006101000a81548173ffffffffffffffffffffffffffffffffffffffff021916908373ffffffffffffffffffffffffffffffffffffffff160217905550808260040160006101000a81548173ffffffffffffffffffffffffffffffffffffffff021916908373ffffffffffffffffffffffffffffffffffffffff160217905550600082600201549050348360020181905550600073ffffffffffffffffffffffffffffffffffffffff168360040160009054906101000a900473ffffffffffffffffffffffffffffffffffffffff1673ffffffffffffffffffffffffffffffffffffffff16146120cc5760008360040160009054906101000a900473ffffffffffffffffffffffffffffffffffffffff1673ffffffffffffffffffffffffffffffffffffffff168260405161204490614064565b60006040518083038185875af1925050503d8060008114612081576040519150601f19603f3d011682016040523d82523d6000602084013e612086565b606091505b50509050806120ca576040517f08c379a00000000000000000000000000000000000000000000000000000000081526004016120c190614246565b60405180910390fd5b505b82600001549450505050600160008190555050919050565b6120ec6114bd565b1561212c576040517f08c379a000000000000000000000000000000000000000000000000000000000815260040161212390614286565b60405180910390fd5b60026000541415612172576040517f08c379a000000000000000000000000000000000000000000000000000000000815260040161216990614446565b60405180910390fd5b600260008190555082823073ffffffffffffffffffffffffffffffffffffffff168273ffffffffffffffffffffffffffffffffffffffff1663081812fc836040518263ffffffff1660e01b81526004016121cc91906144c6565b60206040518083038186803b1580156121e457600080fd5b505afa1580156121f8573d6000803e3d6000fd5b505050506040513d601f19601f8201168201806040525081019061221c9190613aea565b73ffffffffffffffffffffffffffffffffffffffff16141580156122f457503073ffffffffffffffffffffffffffffffffffffffff168273ffffffffffffffffffffffffffffffffffffffff16636352211e836040518263ffffffff1660e01b815260040161228b91906144c6565b60206040518083038186803b1580156122a357600080fd5b505afa1580156122b7573d6000803e3d6000fd5b505050506040513d601f19601f820116820180604052508101906122db9190613aea565b73ffffffffffffffffffffffffffffffffffffffff1614155b1561232b576040517ff826f86200000000000000000000000000000000000000000000000000000000815260040160405180910390fd5b82612336600461384b565b811115612378576040517f08c379a000000000000000000000000000000000000000000000000000000000815260040161236f90614326565b60405180910390fd5b836000600760008381526020019081526020016000206040518060c00160405290816000820154815260200160018201548152602001600282015481526020016003820160009054906101000a900473ffffffffffffffffffffffffffffffffffffffff1673ffffffffffffffffffffffffffffffffffffffff1673ffffffffffffffffffffffffffffffffffffffff1681526020016004820160009054906101000a900473ffffffffffffffffffffffffffffffffffffffff1673ffffffffffffffffffffffffffffffffffffffff1673ffffffffffffffffffffffffffffffffffffffff1681526020016004820160149054906101000a900460ff16151515158152505090508060a00151156124c5576040517f08c379a00000000000000000000000000000000000000000000000000000000081526004016124bc90614486565b60405180910390fd5b60006007600088815260200190815260200160002090508060020154341015612523576040517f08c379a000000000000000000000000000000000000000000000000000000000815260040161251a906140e6565b60405180910390fd5b60018160040160146101000a81548160ff0219169083151502179055508873ffffffffffffffffffffffffffffffffffffffff166323b872dd303384600101546040518463ffffffff1660e01b815260040161258193929190614094565b600060405180830381600087803b15801561259b57600080fd5b505af11580156125af573d6000803e3d6000fd5b5050505060008160040160009054906101000a900473ffffffffffffffffffffffffffffffffffffffff1673ffffffffffffffffffffffffffffffffffffffff16826002015460405161260190614064565b60006040518083038185875af1925050503d806000811461263e576040519150601f19603f3d011682016040523d82523d6000602084013e612643565b606091505b5050905080612687576040517f08c379a000000000000000000000000000000000000000000000000000000000815260040161267e906143e6565b60405180910390fd5b6001600381111561269b5761269a61482e565b5b8a73ffffffffffffffffffffffffffffffffffffffff168a7f0cd43fd9c12c0b040dc330b451adcefd47851dfa029dec57f23f570054ef46888b86600201548760040160009054906101000a900473ffffffffffffffffffffffffffffffffffffffff16600160405161271194939291906144e1565b60405180910390a4505050505050506001600081905550505050565b60076020528060005260406000206000915090508060000154908060010154908060020154908060030160009054906101000a900473ffffffffffffffffffffffffffffffffffffffff16908060040160009054906101000a900473ffffffffffffffffffffffffffffffffffffffff16908060040160149054906101000a900460ff16905086565b806127c1600461384b565b811115612803576040517f08c379a00000000000000000000000000000000000000000000000000000000081526004016127fa90614326565b60405180910390fd5b816000600760008381526020019081526020016000206040518060c00160405290816000820154815260200160018201548152602001600282015481526020016003820160009054906101000a900473ffffffffffffffffffffffffffffffffffffffff1673ffffffffffffffffffffffffffffffffffffffff1673ffffffffffffffffffffffffffffffffffffffff1681526020016004820160009054906101000a900473ffffffffffffffffffffffffffffffffffffffff1673ffffffffffffffffffffffffffffffffffffffff1673ffffffffffffffffffffffffffffffffffffffff1681526020016004820160149054906101000a900460ff16151515158152505090508060a0015115612950576040517f08c379a000000000000000000000000000000000000000000000000000000000815260040161294790614486565b60405180910390fd5b60006007600086815260200190815260200160002090508060040160009054906101000a900473ffffffffffffffffffffffffffffffffffffffff1673ffffffffffffffffffffffffffffffffffffffff163373ffffffffffffffffffffffffffffffffffffffff16146129f9576040517f08c379a00000000000000000000000000000000000000000000000000000000081526004016129f090614306565b60405180910390fd5b60018160040160146101000a81548160ff0219169083151502179055508060030160009054906101000a900473ffffffffffffffffffffffffffffffffffffffff1673ffffffffffffffffffffffffffffffffffffffff166323b872dd303384600101546040518463ffffffff1660e01b8152600401612a7b93929190614094565b600060405180830381600087803b158015612a9557600080fd5b505af1158015612aa9573d6000803e3d6000fd5b50505050600380811115612ac057612abf61482e565b5b8160030160009054906101000a900473ffffffffffffffffffffffffffffffffffffffff1673ffffffffffffffffffffffffffffffffffffffff1682600101547f0cd43fd9c12c0b040dc330b451adcefd47851dfa029dec57f23f570054ef46888885600201548660040160009054906101000a900473ffffffffffffffffffffffffffffffffffffffff166001604051612b5e94939291906144e1565b60405180910390a45050505050565b60026000541415612bb3576040517f08c379a0000000000000000000000000000000000000000000000000000000008152600401612baa90614446565b60405180910390fd5b6002600081905550612bc36114bd565b15612c03576040517f08c379a0000000000000000000000000000000000000000000000000000000008152600401612bfa90614286565b60405180910390fd5b80612c0e600361384b565b811115612c50576040517f08c379a0000000000000000000000000000000000000000000000000000000008152600401612c4790614146565b60405180910390fd5b60006006600084815260200190815260200160002090508060030154421115612cae576040517f08c379a0000000000000000000000000000000000000000000000000000000008152600401612ca590614426565b60405180910390fd5b8060050160149054906101000a900460ff1615612d00576040517f08c379a0000000000000000000000000000000000000000000000000000000008152600401612cf790614386565b60405180910390fd5b3073ffffffffffffffffffffffffffffffffffffffff168160040160009054906101000a900473ffffffffffffffffffffffffffffffffffffffff1673ffffffffffffffffffffffffffffffffffffffff1663081812fc83600101546040518263ffffffff1660e01b8152600401612d7891906144c6565b60206040518083038186803b158015612d9057600080fd5b505afa158015612da4573d6000803e3d6000fd5b505050506040513d601f19601f82011682018060405250810190612dc89190613aea565b73ffffffffffffffffffffffffffffffffffffffff1614612e15576040517ff826f86200000000000000000000000000000000000000000000000000000000815260040160405180910390fd5b60018160050160146101000a81548160ff0219169083151502179055508060040160009054906101000a900473ffffffffffffffffffffffffffffffffffffffff1673ffffffffffffffffffffffffffffffffffffffff166323b872dd338360050160009054906101000a900473ffffffffffffffffffffffffffffffffffffffff1684600101546040518463ffffffff1660e01b8152600401612ebb93929190614094565b600060405180830381600087803b158015612ed557600080fd5b505af1158015612ee9573d6000803e3d6000fd5b5050505060003373ffffffffffffffffffffffffffffffffffffffff168260020154604051612f1790614064565b60006040518083038185875af1925050503d8060008114612f54576040519150601f19603f3d011682016040523d82523d6000602084013e612f59565b606091505b5050905080612f9d576040517f08c379a0000000000000000000000000000000000000000000000000000000008152600401612f94906141c6565b60405180910390fd5b60016002811115612fb157612fb061482e565b5b8260040160009054906101000a900473ffffffffffffffffffffffffffffffffffffffff1673ffffffffffffffffffffffffffffffffffffffff1683600101547f3d44ddf83a852335fb93dea137ad2410905452f00c66ea62151f153d0a11ae5e87866002015487600301548860050160009054906101000a900473ffffffffffffffffffffffffffffffffffffffff1660016040516130559594939291906145f6565b60405180910390a4505050600160008190555050565b81613076600461384b565b8111156130b8576040517f08c379a00000000000000000000000000000000000000000000000000000000081526004016130af90614326565b60405180910390fd5b826000600760008381526020019081526020016000206040518060c00160405290816000820154815260200160018201548152602001600282015481526020016003820160009054906101000a900473ffffffffffffffffffffffffffffffffffffffff1673ffffffffffffffffffffffffffffffffffffffff1673ffffffffffffffffffffffffffffffffffffffff1681526020016004820160009054906101000a900473ffffffffffffffffffffffffffffffffffffffff1673ffffffffffffffffffffffffffffffffffffffff1673ffffffffffffffffffffffffffffffffffffffff1681526020016004820160149054906101000a900460ff16151515158152505090508060a0015115613205576040517f08c379a00000000000000000000000000000000000000000000000000000000081526004016131fc90614486565b60405180910390fd5b60006007600087815260200190815260200160002090508060040160009054906101000a900473ffffffffffffffffffffffffffffffffffffffff1673ffffffffffffffffffffffffffffffffffffffff163373ffffffffffffffffffffffffffffffffffffffff16146132ae576040517f08c379a00000000000000000000000000000000000000000000000000000000081526004016132a590614466565b60405180910390fd5b848160020181905550600260038111156132cb576132ca61482e565b5b8160030160009054906101000a900473ffffffffffffffffffffffffffffffffffffffff1673ffffffffffffffffffffffffffffffffffffffff1682600101547f0cd43fd9c12c0b040dc330b451adcefd47851dfa029dec57f23f570054ef46888985600201548660040160009054906101000a900473ffffffffffffffffffffffffffffffffffffffff16600060405161336994939291906144e1565b60405180910390a4505050505050565b600260005414156133bf576040517f08c379a00000000000000000000000000000000000000000000000000000000081526004016133b690614446565b60405180910390fd5b6002600081905550806133d2600361384b565b811115613414576040517f08c379a000000000000000000000000000000000000000000000000000000000815260040161340b90614146565b60405180910390fd5b60006006600084815260200190815260200160002090508060050160009054906101000a900473ffffffffffffffffffffffffffffffffffffffff1673ffffffffffffffffffffffffffffffffffffffff163373ffffffffffffffffffffffffffffffffffffffff16146134bd576040517f08c379a00000000000000000000000000000000000000000000000000000000081526004016134b490614406565b60405180910390fd5b8060050160149054906101000a900460ff161561350f576040517f08c379a0000000000000000000000000000000000000000000000000000000008152600401613506906141e6565b60405180910390fd5b60018160050160146101000a81548160ff02191690831515021790555060008160050160009054906101000a900473ffffffffffffffffffffffffffffffffffffffff1673ffffffffffffffffffffffffffffffffffffffff16826002015460405161357a90614064565b60006040518083038185875af1925050503d80600081146135b7576040519150601f19603f3d011682016040523d82523d6000602084013e6135bc565b606091505b5050905080613600576040517f08c379a00000000000000000000000000000000000000000000000000000000081526004016135f790614206565b60405180910390fd5b6002808111156136135761361261482e565b5b8260040160009054906101000a900473ffffffffffffffffffffffffffffffffffffffff1673ffffffffffffffffffffffffffffffffffffffff1683600101547f3d44ddf83a852335fb93dea137ad2410905452f00c66ea62151f153d0a11ae5e87866002015487600301548860050160009054906101000a900473ffffffffffffffffffffffffffffffffffffffff1660016040516136b79594939291906145f6565b60405180910390a4505050600160008190555050565b6136d561386f565b73ffffffffffffffffffffffffffffffffffffffff166136f3611cde565b73ffffffffffffffffffffffffffffffffffffffff1614613749576040517f08c379a0000000000000000000000000000000000000000000000000000000008152600401613740906142e6565b60405180910390fd5b600073ffffffffffffffffffffffffffffffffffffffff168173ffffffffffffffffffffffffffffffffffffffff1614156137b9576040517f08c379a00000000000000000000000000000000000000000000000000000000081526004016137b0906141a6565b60405180910390fd5b6137c281613877565b50565b6137cd61386f565b73ffffffffffffffffffffffffffffffffffffffff166137eb611cde565b73ffffffffffffffffffffffffffffffffffffffff1614613841576040517f08c379a0000000000000000000000000000000000000000000000000000000008152600401613838906142e6565b60405180910390fd5b6138496139dc565b565b600081600001549050919050565b6001816000016000828254019250508190555050565b600033905090565b600060018054906101000a900473ffffffffffffffffffffffffffffffffffffffff169050816001806101000a81548173ffffffffffffffffffffffffffffffffffffffff021916908373ffffffffffffffffffffffffffffffffffffffff1602179055508173ffffffffffffffffffffffffffffffffffffffff168173ffffffffffffffffffffffffffffffffffffffff167f8be0079c531659141344cd1fd0a4f28419497f9722a3daafe3b4186f6b6457e060405160405180910390a35050565b6139426114bd565b15613982576040517f08c379a000000000000000000000000000000000000000000000000000000000815260040161397990614286565b60405180910390fd5b60018060006101000a81548160ff0219169083151502179055507f62e78cea01bee320cd4e420270b5ea74000d11b0c9f74754ebdbfc544b05a2586139c561386f565b6040516139d29190614079565b60405180910390a1565b6139e46114bd565b613a23576040517f08c379a0000000000000000000000000000000000000000000000000000000008152600401613a1a90614126565b60405180910390fd5b6000600160006101000a81548160ff0219169083151502179055507f5db9ee0a495bf2e6ff9c91a7834c1ba4fdd244a5e8aa4e537bd38aeae4b073aa613a6761386f565b604051613a749190614079565b60405180910390a1565b600081359050613a8d816150c6565b92915050565b600081519050613aa2816150c6565b92915050565b600081359050613ab7816150dd565b92915050565b600060208284031215613ad357613ad261485d565b5b6000613ae184828501613a7e565b91505092915050565b600060208284031215613b0057613aff61485d565b5b6000613b0e84828501613a93565b91505092915050565b600080600060608486031215613b3057613b2f61485d565b5b6000613b3e86828701613a7e565b9350506020613b4f86828701613aa8565b9250506040613b6086828701613aa8565b9150509250925092565b600060208284031215613b8057613b7f61485d565b5b6000613b8e84828501613aa8565b91505092915050565b60008060408385031215613bae57613bad61485d565b5b6000613bbc85828601613aa8565b9250506020613bcd85828601613aa8565b9150509250929050565b613be0816147b7565b82525050565b613bef816147c9565b82525050565b6000613c02601e83614750565b9150613c0d82614862565b602082019050919050565b6000613c25604983614750565b9150613c308261488b565b606082019050919050565b6000613c48601483614750565b9150613c5382614900565b602082019050919050565b6000613c6b601983614750565b9150613c7682614929565b602082019050919050565b6000613c8e601c83614750565b9150613c9982614952565b602082019050919050565b6000613cb1603783614750565b9150613cbc8261497b565b604082019050919050565b6000613cd4602683614750565b9150613cdf826149ca565b604082019050919050565b6000613cf7603a83614750565b9150613d0282614a19565b604082019050919050565b6000613d1a603c83614750565b9150613d2582614a68565b604082019050919050565b6000613d3d603183614750565b9150613d4882614ab7565b604082019050919050565b6000613d60603583614750565b9150613d6b82614b06565b604082019050919050565b6000613d83603c83614750565b9150613d8e82614b55565b604082019050919050565b6000613da6601b83614750565b9150613db182614ba4565b602082019050919050565b6000613dc9601083614750565b9150613dd482614bcd565b602082019050919050565b6000613dec603783614750565b9150613df782614bf6565b604082019050919050565b6000613e0f603383614750565b9150613e1a82614c45565b604082019050919050565b6000613e32602083614750565b9150613e3d82614c94565b602082019050919050565b6000613e55602883614750565b9150613e6082614cbd565b604082019050919050565b6000613e78601883614750565b9150613e8382614d0c565b602082019050919050565b6000613e9b602483614750565b9150613ea682614d35565b604082019050919050565b6000613ebe602983614750565b9150613ec982614d84565b604082019050919050565b6000613ee1602783614750565b9150613eec82614dd3565b604082019050919050565b6000613f04604683614750565b9150613f0f82614e22565b606082019050919050565b6000613f27600083614745565b9150613f3282614e97565b600082019050919050565b6000613f4a603783614750565b9150613f5582614e9a565b604082019050919050565b6000613f6d602f83614750565b9150613f7882614ee9565b604082019050919050565b6000613f90602783614750565b9150613f9b82614f38565b604082019050919050565b6000613fb3601a83614750565b9150613fbe82614f87565b602082019050919050565b6000613fd6601f83614750565b9150613fe182614fb0565b602082019050919050565b6000613ff9602983614750565b915061400482614fd9565b604082019050919050565b600061401c602883614750565b915061402782615028565b604082019050919050565b600061403f603883614750565b915061404a82615077565b604082019050919050565b61405e816147f5565b82525050565b600061406f82613f1a565b9150819050919050565b600060208201905061408e6000830184613bd7565b92915050565b60006060820190506140a96000830186613bd7565b6140b66020830185613bd7565b6140c36040830184614055565b949350505050565b60006020820190506140e06000830184613be6565b92915050565b600060208201905081810360008301526140ff81613bf5565b9050919050565b6000602082019050818103600083015261411f81613c18565b9050919050565b6000602082019050818103600083015261413f81613c3b565b9050919050565b6000602082019050818103600083015261415f81613c5e565b9050919050565b6000602082019050818103600083015261417f81613c81565b9050919050565b6000602082019050818103600083015261419f81613ca4565b9050919050565b600060208201905081810360008301526141bf81613cc7565b9050919050565b600060208201905081810360008301526141df81613cea565b9050919050565b600060208201905081810360008301526141ff81613d0d565b9050919050565b6000602082019050818103600083015261421f81613d30565b9050919050565b6000602082019050818103600083015261423f81613d53565b9050919050565b6000602082019050818103600083015261425f81613d76565b9050919050565b6000602082019050818103600083015261427f81613d99565b9050919050565b6000602082019050818103600083015261429f81613dbc565b9050919050565b600060208201905081810360008301526142bf81613ddf565b9050919050565b600060208201905081810360008301526142df81613e02565b9050919050565b600060208201905081810360008301526142ff81613e25565b9050919050565b6000602082019050818103600083015261431f81613e48565b9050919050565b6000602082019050818103600083015261433f81613e6b565b9050919050565b6000602082019050818103600083015261435f81613e8e565b9050919050565b6000602082019050818103600083015261437f81613eb1565b9050919050565b6000602082019050818103600083015261439f81613ed4565b9050919050565b600060208201905081810360008301526143bf81613ef7565b9050919050565b600060208201905081810360008301526143df81613f3d565b9050919050565b600060208201905081810360008301526143ff81613f60565b9050919050565b6000602082019050818103600083015261441f81613f83565b9050919050565b6000602082019050818103600083015261443f81613fa6565b9050919050565b6000602082019050818103600083015261445f81613fc9565b9050919050565b6000602082019050818103600083015261447f81613fec565b9050919050565b6000602082019050818103600083015261449f8161400f565b9050919050565b600060208201905081810360008301526144bf81614032565b9050919050565b60006020820190506144db6000830184614055565b92915050565b60006080820190506144f66000830187614055565b6145036020830186614055565b6145106040830185613bd7565b61451d6060830184613be6565b95945050505050565b600060e08201905061453b600083018a614055565b6145486020830189614055565b6145556040830188614055565b6145626060830187613bd7565b61456f6080830186613bd7565b61457c60a0830185613bd7565b61458960c0830184613be6565b98975050505050505050565b600060c0820190506145aa6000830189614055565b6145b76020830188614055565b6145c46040830187614055565b6145d16060830186613bd7565b6145de6080830185613bd7565b6145eb60a0830184613be6565b979650505050505050565b600060a08201905061460b6000830188614055565b6146186020830187614055565b6146256040830186614055565b6146326060830185613bd7565b61463f6080830184613be6565b9695505050505050565b60006101208201905061465f600083018c614055565b61466c602083018b614055565b614679604083018a614055565b6146866060830189614055565b6146936080830188613bd7565b6146a060a0830187613bd7565b6146ad60c0830186613bd7565b6146ba60e0830185613bd7565b6146c8610100830184613be6565b9a9950505050505050505050565b600060e0820190506146eb600083018a614055565b6146f86020830189614055565b6147056040830188614055565b6147126060830187614055565b61471f6080830186613bd7565b61472c60a0830185613bd7565b61473960c0830184613be6565b98975050505050505050565b600081905092915050565b600082825260208201905092915050565b600061476c826147f5565b9150614777836147f5565b9250827fffffffffffffffffffffffffffffffffffffffffffffffffffffffffffffffff038211156147ac576147ab6147ff565b5b828201905092915050565b60006147c2826147d5565b9050919050565b60008115159050919050565b600073ffffffffffffffffffffffffffffffffffffffff82169050919050565b6000819050919050565b7f4e487b7100000000000000000000000000000000000000000000000000000000600052601160045260246000fd5b7f4e487b7100000000000000000000000000000000000000000000000000000000600052602160045260246000fd5b600080fd5b7f4d61726b65743a2053656e64207468652061736b696e67207072696365210000600082015250565b7f4d61726b65743a2041756374696f6e206973206e6f206d6f726520616374697660008201527f652c204974656d20686173206265656e20736f6c6420616c7265616479206f7260208201527f2072656d6f766564210000000000000000000000000000000000000000000000604082015250565b7f5061757361626c653a206e6f7420706175736564000000000000000000000000600082015250565b7f4d61726b65743a20496e76616c6964204f666665722069642100000000000000600082015250565b7f4d61726b65743a2041756374696f6e2068617320657870697265642100000000600082015250565b7f4d61726b65743a204f6e6c79207468652061756374696f6e2073656c6c65722060008201527f63616e2063616e63656c207468652061756374696f6e21000000000000000000602082015250565b7f4f776e61626c653a206e6577206f776e657220697320746865207a65726f206160008201527f6464726573730000000000000000000000000000000000000000000000000000602082015250565b7f4d61726b65743a204f6666657220616d6f756e7420686173206e6f742062656560008201527f6e2073656e7420746f20746865206173736574206f776e65722e000000000000602082015250565b7f4d61726b65743a204f6666657220686173206265656e20736574746c6564206f60008201527f7220686173206265656e2063616e63656c656420616c72656164792100000000602082015250565b7f4d61726b65743a204f6666657220616d6f756e74206e6f742072657475726e6560008201527f6420746f20746865206f66666572657221000000000000000000000000000000602082015250565b7f4d61726b65743a2041756374696f6e20686173207374617274656420616c726560008201527f6164792c2063616e7420757064617465206e6f77210000000000000000000000602082015250565b7f4d61726b65743a2042696420616d6f756e7420686173206e6f74206265656e2060008201527f73656e7420746f207468652070726576696f7573206269646465722e00000000602082015250565b7f4d61726b65743a20496e76616c69642061756374696f6e206964210000000000600082015250565b7f5061757361626c653a2070617573656400000000000000000000000000000000600082015250565b7f4d61726b65743a204f6e6c79207468652061756374696f6e2073656c6c65722060008201527f63616e206d6f64696679207468652061756374696f6e21000000000000000000602082015250565b7f4d61726b65743a2042696420616d6f756e7420686173206e6f74206265656e2060008201527f73656e7420746f207468652073656c6c65722e00000000000000000000000000602082015250565b7f4f776e61626c653a2063616c6c6572206973206e6f7420746865206f776e6572600082015250565b7f4d61726b65743a204f6e6c792073656c6c65722063616e2063616e63656c207460008201527f68652073616c6521000000000000000000000000000000000000000000000000602082015250565b7f4d61726b65743a20496e76616c69642073616c65206964210000000000000000600082015250565b7f4d61726b65743a2041756374696f6e20686173206e6f7420657870697265642060008201527f7965742100000000000000000000000000000000000000000000000000000000602082015250565b7f4d61726b65743a2041756374696f6e20686173206265656e20736574746c656460008201527f20616c7265616479210000000000000000000000000000000000000000000000602082015250565b7f4d61726b65743a204f6666657220686173206265656e20736574746c6564206160008201527f6c72656164792100000000000000000000000000000000000000000000000000602082015250565b7f4d61726b65743a204f6e6c792073656c6c6572206f722063757272656e74206860008201527f696768657374206269646465722063616e20736574746c65207468697320617560208201527f6374696f6e210000000000000000000000000000000000000000000000000000604082015250565b50565b7f4d61726b65743a20506c656173652073656e6420616d6f756e7420677265617460008201527f6572207468616e207265736572766520616d6f756e7421000000000000000000602082015250565b7f4d61726b65743a2053616c6520616d6f756e74206e6f742072657475726e656460008201527f20746f207468652073656c6c6572210000000000000000000000000000000000602082015250565b7f4d61726b65743a2043616e2062652063616e63656c656420627920746865206f60008201527f6666657265722100000000000000000000000000000000000000000000000000602082015250565b7f4d61726b65743a204f6666657220686173206578706972656421000000000000600082015250565b7f5265656e7472616e637947756172643a207265656e7472616e742063616c6c00600082015250565b7f4d61726b65743a204f6e6c792073656c6c65722063616e20757064617465206260008201527f7579207072696365210000000000000000000000000000000000000000000000602082015250565b7f4d61726b65743a2053616c6520686173206265656e20656e646564206f72206360008201527f616e63656c656421000000000000000000000000000000000000000000000000602082015250565b7f4d61726b65743a20416d6f756e742073656e742073686f756c6420626520677260008201527f6561746572207468616e206f6666657220616d6f756e74210000000000000000602082015250565b6150cf816147b7565b81146150da57600080fd5b50565b6150e6816147f5565b81146150f157600080fd5b5056fea26469706673582212203efcebac90affd7e1d09249b57fce2173fe70e45a85f042fb371142e3df6b81264736f6c63430008070033",
	"immutableReferences": {},
	"source": "// SPDX-License-Identifier: MITX\r\npragma solidity 0.8.7;\r\n\r\nimport \"@openzeppelin/contracts/utils/Counters.sol\";\r\nimport \"@openzeppelin/contracts/token/ERC721/IERC721.sol\";\r\nimport \"@openzeppelin/contracts/security/ReentrancyGuard.sol\";\r\nimport \"@openzeppelin/contracts/security/Pausable.sol\";\r\nimport \"@openzeppelin/contracts/access/Ownable.sol\";\r\n\r\ncontract Market is ReentrancyGuard, Pausable, Ownable {\r\n    // ERRORS\r\n    // \"Market: Market doesn't has approved status for this item!\"\r\n    error ItemNotApproved();\r\n    \r\n    using Counters for Counters.Counter;\r\n    Counters.Counter private _auctionCount;\r\n    Counters.Counter private _offersCount;\r\n    Counters.Counter private _salesCount;\r\n\r\n    mapping(uint256 => Auction) public auctions;\r\n    mapping(uint256 => Offer) public offers;\r\n    mapping(uint256 => Sale) public sales;\r\n\r\n    // Event enums\r\n    enum TypeAuction {create, update, cancel, settle}\r\n    enum TypeOffer {create, accept, decline}\r\n    enum TypeSale {create, accept, update, cancel}\r\n\r\n    struct Auction {\r\n        uint256 id;\r\n        uint256 itemId;\r\n        uint256 reservePrice;\r\n        uint256 expireAt;\r\n        address previousBidder;\r\n        address currentBidder;\r\n        address seller;\r\n        address contractAddress;\r\n        bool sold;\r\n    }\r\n\r\n    struct Offer {\r\n        uint id;\r\n        uint256 itemId;\r\n        uint256 amount;\r\n        uint256 expireAt;\r\n        address contractAddress;\r\n        address offerFrom;\r\n        bool sold;\r\n    }\r\n\r\n    struct Sale {\r\n        uint id;\r\n        uint itemId;\r\n        uint256 amount;\r\n        address contractAddress;\r\n        address seller;\r\n        bool sold;\r\n    }\r\n\r\n    event EventAuction (\r\n        uint256 id,\r\n        uint256 indexed itemId,\r\n        uint256 reservePrice,\r\n        uint256 expireAt,\r\n        address previousBidder,\r\n        address currentBidder,\r\n        address seller,\r\n        address indexed contractAddress,\r\n        bool sold,\r\n        TypeAuction indexed eventType\r\n    );\r\n\r\n    event EventOffer (\r\n        uint id,\r\n        uint256 indexed itemId,\r\n        uint256 amount,\r\n        uint256 expireAt,\r\n        address indexed contractAddress,\r\n        address offerFrom,\r\n        bool sold,\r\n        TypeOffer indexed eventType\r\n    );\r\n\r\n    event EventSale (\r\n        uint id,\r\n        uint indexed itemId,\r\n        uint256 amount,\r\n        address indexed contractAddress,\r\n        address seller,\r\n        bool sold,\r\n        TypeSale indexed eventType\r\n    );\r\n\r\n    modifier _auctionExists(uint256 _auctionId) {\r\n        // Check if auction exist's\r\n        require(_auctionId <= _auctionCount.current(), \"Market: Invalid auction id!\");\r\n        _;\r\n    }\r\n\r\n    modifier _offerExists(uint256 _offerId) {\r\n        // Check if offer exist's\r\n        require(_offerId <= _offersCount.current(), \"Market: Invalid Offer id!\");\r\n        _;\r\n    }\r\n\r\n    modifier _saleExists(uint256 _saleId) {\r\n        require(_saleId <= _salesCount.current(), \"Market: Invalid sale id!\");\r\n        _;\r\n    }\r\n\r\n    modifier _saleEnded(uint256 _saleId) {\r\n        Sale memory sale = sales[_saleId];\r\n        require(!sale.sold, \"Market: Sale has been ended or canceled!\");\r\n        _;\r\n    }\r\n\r\n    // Check if this contract has approval for the item/token\r\n    modifier _isApproved(address _contractAddress, uint256 _itemId) {\r\n        if(IERC721(_contractAddress).getApproved(_itemId) != address(this) && IERC721(_contractAddress).ownerOf(_itemId) != address(this)){\r\n            revert ItemNotApproved();\r\n        }\r\n        _;\r\n    }\r\n\r\n    constructor() Pausable() Ownable() {}\r\n\r\n    function pause() external onlyOwner {\r\n        _pause();\r\n    }\r\n\r\n    function unPause() external onlyOwner {\r\n        _unpause();\r\n    }\r\n    \r\n    // Create Auction\r\n    function createReserveAuction(address _contractAddress, uint256 _itemId, uint256 _reservePrice) external returns(uint256) {\r\n        _auctionCount.increment();\r\n        uint256 _auctionId = _auctionCount.current();\r\n        IERC721(_contractAddress).transferFrom(msg.sender, address(this), _itemId);\r\n        uint256 expireAt = block.timestamp + 1 days;\r\n        \r\n        auctions[_auctionId] = Auction({\r\n            id: _auctionId,\r\n            contractAddress: _contractAddress,\r\n            itemId:_itemId,\r\n            reservePrice:_reservePrice,\r\n            previousBidder:address(0),\r\n            currentBidder: address(0),\r\n            seller: payable(msg.sender),\r\n            sold: false,\r\n            expireAt: expireAt\r\n        });\r\n\r\n        emit EventAuction (\r\n            _auctionId,\r\n            _itemId,\r\n            _reservePrice,\r\n            expireAt,\r\n            address(0),\r\n            address(0),\r\n            msg.sender,\r\n            _contractAddress,\r\n            false,\r\n            TypeAuction.create\r\n        );\r\n        return _auctionId;\r\n    }\r\n\r\n    // Bid Auction\r\n    function placeBid(uint256 _auctionId) external payable _auctionExists(_auctionId) nonReentrant whenNotPaused returns (uint256) {\r\n        Auction storage auction = auctions[_auctionId];\r\n        // Check if it is not expired or sold\r\n        require(block.timestamp <= auction.expireAt, \"Market: Auction has expired!\");\r\n        require(!auction.sold,\"Market: Auction is no more active, Item has been sold already or removed!\");\r\n        // Send the requried amount to this contract\r\n        require(msg.value > auction.reservePrice, \"Market: Please send amount greater than reserve amount!\");\r\n\r\n        // Change state, new owner and previous owner\r\n        address _currentBidder = auction.currentBidder;\r\n        auction.currentBidder = payable(msg.sender);\r\n        auction.previousBidder = payable(_currentBidder);\r\n        // Update the reserve price to the new bid amount\r\n        uint _previousReservePrice = auction.reservePrice;\r\n        auction.reservePrice = msg.value;\r\n        \r\n        // Payback the old bidder\r\n        if(auction.previousBidder != address(0)) {\r\n            (bool sent, ) = auction.previousBidder.call{value: _previousReservePrice}(\"\");\r\n            require(sent,\"Market: Bid amount has not been sent to the previous bidder.\");\r\n        }\r\n\r\n        return auction.id;\r\n    }\r\n\r\n    // Settle Auction\r\n    function settleAuction(uint256 _auctionId) external _auctionExists(_auctionId) nonReentrant returns (uint256) {\r\n        Auction storage auction = auctions[_auctionId];\r\n\r\n        // Only seller or currentBidder can settle this auction.\r\n        require(msg.sender == auction.seller || msg.sender == auction.currentBidder, \"Market: Only seller or current highest bidder can settle this auction!\");\r\n\r\n        // Check if it is expired or sold\r\n        require(block.timestamp > auction.expireAt, \"Market: Auction has not expired yet!\");\r\n        require(!auction.sold, \"Market: Auction has been settled already!\");\r\n\r\n        // Change state, sold.\r\n        auction.sold = true;\r\n        // Sent the asset to the highest bidder\r\n        IERC721(auction.contractAddress).transferFrom(address(this), auction.currentBidder, auction.itemId);\r\n        // Transfer the bid amount to the seller\r\n        (bool sent,) = auction.seller.call{value: auction.reservePrice}(\"\");\r\n        require(sent,\"Market: Bid amount has not been sent to the seller.\");\r\n\r\n        emit EventAuction (\r\n            _auctionId,\r\n            auction.itemId,\r\n            auction.reservePrice,\r\n            auction.expireAt,\r\n            auction.previousBidder,\r\n            auction.currentBidder,\r\n            auction.seller,\r\n            auction.contractAddress,\r\n            true,\r\n            TypeAuction.settle\r\n        );\r\n        \r\n        return _auctionId;\r\n    }\r\n\r\n    // Update Reserve Price\r\n    function updateReservePrice(uint256 _auctionId, uint256 _reservePrice) external _auctionExists(_auctionId)  {\r\n        Auction storage auction = auctions[_auctionId];\r\n\r\n        // Only seller can update the auction\r\n        require(msg.sender == auction.seller, \"Market: Only the auction seller can modify the auction!\");\r\n\r\n        // Only update if the auction has not started\r\n        require(auction.currentBidder == address(0) && auction.previousBidder == address(0), \"Market: Auction has started already, cant update now!\");\r\n\r\n        // Change state\r\n        auction.reservePrice = _reservePrice;\r\n\r\n        emit EventAuction (\r\n            _auctionId,\r\n            auction.itemId,\r\n            _reservePrice,\r\n            auction.expireAt,\r\n            auction.previousBidder,\r\n            auction.currentBidder,\r\n            auction.seller,\r\n            auction.contractAddress,\r\n            false,\r\n            TypeAuction.update\r\n        );\r\n    }\r\n\r\n    // Cancel the Auction\r\n    function cancelReserveAuction(uint256 _auctionId) external _auctionExists(_auctionId) {\r\n        Auction storage auction = auctions[_auctionId];\r\n\r\n        // Only seller can update the auction\r\n        require(msg.sender == auction.seller, \"Market: Only the auction seller can cancel the auction!\");\r\n\r\n        // Only update if the auction has not started\r\n        require(auction.currentBidder == address(0) && auction.previousBidder == address(0), \"Market: Auction has started already, cant update now!\");\r\n\r\n        // Send back the asset to the seller\r\n        IERC721(auction.contractAddress).transferFrom(address(this), auction.seller, auction.itemId);\r\n        // Change state\r\n        auction.sold = true;\r\n\r\n        emit EventAuction (\r\n            _auctionId,\r\n            auction.itemId,\r\n            auction.reservePrice,\r\n            auction.expireAt,\r\n            auction.previousBidder,\r\n            auction.currentBidder,\r\n            auction.seller,\r\n            auction.contractAddress,\r\n            true,\r\n            TypeAuction.settle\r\n        );\r\n    }\r\n\r\n    // OFFERS //\r\n    // Create Offer\r\n    function makeOffer(address _contractAddress, uint256 _itemId, uint256 _amount) external payable whenNotPaused returns(uint256) {\r\n\r\n        require(msg.value >= _amount, \"Market: Amount sent should be greater than offer amount!\");\r\n\r\n        _offersCount.increment();\r\n        uint256 offerId = _offersCount.current();\r\n        uint256 expireAt =  block.timestamp + 1 days;\r\n\r\n        offers[offerId] = Offer({\r\n            id: offerId,\r\n            itemId: _itemId,\r\n            amount:_amount,\r\n            expireAt: expireAt,\r\n            contractAddress: _contractAddress,\r\n            offerFrom: payable(msg.sender),\r\n            sold: false\r\n        });\r\n\r\n        emit EventOffer (\r\n            offerId,\r\n            _itemId,\r\n            _amount,\r\n            expireAt,\r\n            _contractAddress,\r\n            msg.sender,\r\n            false,\r\n            TypeOffer.create\r\n        );\r\n\r\n        return offerId;\r\n    }\r\n\r\n    function acceptOffer(uint256 _offerId) external nonReentrant whenNotPaused _offerExists(_offerId) {\r\n\r\n        Offer storage offer = offers[_offerId];\r\n\r\n        // Check if it is expired or sold\r\n        require(block.timestamp <= offer.expireAt, \"Market: Offer has expired!\");\r\n        require(!offer.sold, \"Market: Offer has been settled already!\");\r\n\r\n        if(IERC721(offer.contractAddress).getApproved(offer.itemId) != address(this)){\r\n            revert ItemNotApproved();\r\n        }\r\n\r\n        // Change State\r\n        offer.sold = true;\r\n\r\n        IERC721(offer.contractAddress).transferFrom(msg.sender, offer.offerFrom, offer.itemId);\r\n        (bool sent,) = msg.sender.call{value: offer.amount}(\"\");\r\n        require(sent, \"Market: Offer amount has not been sent to the asset owner.\");\r\n\r\n        emit EventOffer (\r\n            _offerId,\r\n            offer.itemId,\r\n            offer.amount,\r\n            offer.expireAt,\r\n            offer.contractAddress,\r\n            offer.offerFrom,\r\n            true,\r\n            TypeOffer.accept\r\n        );\r\n    }\r\n\r\n    function cancelOffer(uint _offerId) external nonReentrant _offerExists(_offerId) {\r\n        Offer storage offer = offers[_offerId];\r\n\r\n        // Can be canceled by the offerer\r\n        require(msg.sender == offer.offerFrom, \"Market: Can be canceled by the offerer!\");\r\n        \r\n        require(!offer.sold, \"Market: Offer has been settled or has been canceled already!\");\r\n\r\n        offer.sold = true;\r\n        (bool sent, ) = offer.offerFrom.call{ value: offer.amount }(\"\");\r\n        require(sent, \"Market: Offer amount not returned to the offerer!\");\r\n\r\n        emit EventOffer (\r\n            _offerId,\r\n            offer.itemId,\r\n            offer.amount,\r\n            offer.expireAt,\r\n            offer.contractAddress,\r\n            offer.offerFrom,\r\n            true,\r\n            TypeOffer.decline\r\n        );\r\n    }\r\n\r\n    // BUY //\r\n    function setBuyPrice(address _contractAddress, uint256 _itemId, uint256 _amount) external _isApproved(_contractAddress, _itemId) returns(uint256) {\r\n        _salesCount.increment();\r\n\r\n        uint256 saleId = _salesCount.current();\r\n\r\n        sales[saleId] = Sale({\r\n            id: saleId,\r\n            itemId: _itemId,\r\n            amount:_amount,\r\n            contractAddress: _contractAddress,\r\n            seller: payable(msg.sender),\r\n            sold: false\r\n        });\r\n\r\n        IERC721(_contractAddress).transferFrom(msg.sender, address(this), _itemId);\r\n\r\n        emit EventSale (\r\n            saleId,\r\n            _itemId,\r\n            _amount,\r\n            _contractAddress,\r\n            msg.sender,\r\n            false,\r\n            TypeSale.create\r\n        );\r\n\r\n        return saleId;\r\n    }\r\n\r\n    function buy(address _contractAddress, uint256 _itemId, uint256 _saleId) external payable whenNotPaused nonReentrant _isApproved(_contractAddress, _itemId) _saleExists(_saleId) _saleEnded(_saleId) {\r\n        Sale storage sale = sales[_saleId];\r\n\r\n        require(msg.value >= sale.amount, \"Market: Send the asking price!\");\r\n\r\n        // Change state\r\n        sale.sold = true;\r\n\r\n        IERC721(_contractAddress).transferFrom(address(this), msg.sender, sale.itemId);\r\n        (bool sent, ) = sale.seller.call{value:sale.amount}(\"\");\r\n        require(sent, \"Market: Sale amount not returned to the seller!\");\r\n\r\n        emit EventSale (\r\n            _saleId,\r\n            _itemId,\r\n            sale.amount,\r\n            _contractAddress,\r\n            sale.seller,\r\n            true,\r\n            TypeSale.accept\r\n        );\r\n    }\r\n\r\n    function updateBuyPrice(uint256 _saleId, uint256 _amount) external _saleExists(_saleId)  _saleEnded(_saleId) {\r\n        Sale storage sale = sales[_saleId];\r\n\r\n        require(msg.sender == sale.seller,\"Market: Only seller can update buy price!\");\r\n\r\n        // Change State\r\n        sale.amount = _amount;\r\n\r\n        emit EventSale (\r\n            _saleId,\r\n            sale.itemId,\r\n            sale.amount,\r\n            sale.contractAddress,\r\n            sale.seller,\r\n            false,\r\n            TypeSale.update\r\n        );\r\n    }\r\n\r\n    function cancelBuyPrice(uint256 _saleId) external _saleExists(_saleId) _saleEnded(_saleId) {\r\n        Sale storage sale = sales[_saleId];\r\n\r\n        require(msg.sender == sale.seller,\"Market: Only seller can cancel the sale!\");\r\n\r\n        // Change State\r\n        sale.sold = true;\r\n\r\n        IERC721(sale.contractAddress).transferFrom(address(this), msg.sender, sale.itemId);\r\n\r\n        emit EventSale (\r\n            _saleId,\r\n            sale.itemId,\r\n            sale.amount,\r\n            sale.contractAddress,\r\n            sale.seller,\r\n            true,\r\n            TypeSale.cancel\r\n        );\r\n    }\r\n}",
	"sourcePath": "D:\\nft\\cd\\contracts\\Market.sol",
	"compiler": {
		"name": "solc",
		"version": "0.8.7+commit.e28d00a7.Emscripten.clang"
	},
	"schemaVersion": "3.4.7",
	"updatedAt": "2022-05-27T16:53:15.609Z",
	"networkType": "ethereum",
	"devdoc": {
		"kind": "dev",
		"methods": {
			"owner()": {
				"details": "Returns the address of the current owner."
			},
			"paused()": {
				"details": "Returns true if the contract is paused, and false otherwise."
			},
			"renounceOwnership()": {
				"details": "Leaves the contract without owner. It will not be possible to call `onlyOwner` functions anymore. Can only be called by the current owner. NOTE: Renouncing ownership will leave the contract without an owner, thereby removing any functionality that is only available to the owner."
			},
			"transferOwnership(address)": {
				"details": "Transfers ownership of the contract to a new account (`newOwner`). Can only be called by the current owner."
			}
		},
		"version": 1
	},
	"userdoc": {
		"kind": "user",
		"methods": {},
		"version": 1
	}
}